{
  "_format": "hh-sol-artifact-1",
  "contractName": "VoteDapp",
  "sourceName": "contracts/VoteDapp.sol",
  "abi": [
    {
      "inputs": [],
      "stateMutability": "nonpayable",
      "type": "constructor"
    },
    {
      "inputs": [],
      "name": "Donate",
      "outputs": [],
      "stateMutability": "payable",
      "type": "function"
    },
    {
      "inputs": [
        {
          "internalType": "uint256",
          "name": "idVote",
          "type": "uint256"
        }
      ],
      "name": "addCandidate",
      "outputs": [],
      "stateMutability": "nonpayable",
      "type": "function"
    },
    {
      "inputs": [
        {
          "internalType": "string",
          "name": "_name",
          "type": "string"
        },
        {
          "internalType": "string",
          "name": "_description",
          "type": "string"
        },
        {
          "internalType": "uint256",
          "name": "_daysToVote",
          "type": "uint256"
        }
      ],
      "name": "addPetition",
      "outputs": [],
      "stateMutability": "nonpayable",
      "type": "function"
    },
    {
      "inputs": [
        {
          "internalType": "string",
          "name": "_name",
          "type": "string"
        },
        {
          "internalType": "string",
          "name": "_description",
          "type": "string"
        },
        {
          "internalType": "uint256",
          "name": "_timeToJoin",
          "type": "uint256"
        },
        {
          "internalType": "uint256",
          "name": "_daysToVote",
          "type": "uint256"
        }
      ],
      "name": "addVote",
      "outputs": [],
      "stateMutability": "nonpayable",
      "type": "function"
    },
    {
      "inputs": [],
      "name": "owner",
      "outputs": [
        {
          "internalType": "address payable",
          "name": "",
          "type": "address"
        }
      ],
      "stateMutability": "view",
      "type": "function"
    },
    {
      "inputs": [
        {
          "internalType": "string",
          "name": "_description",
          "type": "string"
        }
      ],
      "name": "setUserDescription",
      "outputs": [],
      "stateMutability": "nonpayable",
      "type": "function"
    },
    {
      "inputs": [
        {
          "internalType": "string",
          "name": "_name",
          "type": "string"
        }
      ],
      "name": "setUserName",
      "outputs": [],
      "stateMutability": "nonpayable",
      "type": "function"
    },
    {
      "inputs": [
        {
          "internalType": "address",
          "name": "",
          "type": "address"
        }
      ],
      "name": "testPartMap",
      "outputs": [
        {
          "internalType": "bool",
          "name": "",
          "type": "bool"
        }
      ],
      "stateMutability": "view",
      "type": "function"
    },
    {
      "inputs": [
        {
          "internalType": "address",
          "name": "",
          "type": "address"
        }
      ],
      "name": "userMap",
      "outputs": [
        {
          "internalType": "string",
          "name": "name",
          "type": "string"
        },
        {
          "internalType": "string",
          "name": "description",
          "type": "string"
        },
        {
          "internalType": "uint256",
          "name": "timeReg",
          "type": "uint256"
        }
      ],
      "stateMutability": "view",
      "type": "function"
    },
    {
      "inputs": [],
      "name": "viewPoll",
      "outputs": [
        {
          "components": [
            {
              "internalType": "uint256",
              "name": "id",
              "type": "uint256"
            },
            {
              "internalType": "address",
              "name": "creator",
              "type": "address"
            },
            {
              "internalType": "string",
              "name": "name",
              "type": "string"
            },
            {
              "internalType": "string",
              "name": "description",
              "type": "string"
            },
            {
              "internalType": "uint256",
              "name": "timeStart",
              "type": "uint256"
            },
            {
              "internalType": "uint256",
              "name": "timeToJoin",
              "type": "uint256"
            },
            {
              "internalType": "uint256",
              "name": "timeEnd",
              "type": "uint256"
            }
          ],
          "internalType": "struct VoteDapp.Vote[]",
          "name": "",
          "type": "tuple[]"
        }
      ],
      "stateMutability": "view",
      "type": "function"
    },
    {
      "inputs": [
        {
          "internalType": "uint256",
          "name": "",
          "type": "uint256"
        }
      ],
      "name": "votesMas",
      "outputs": [
        {
          "internalType": "uint256",
          "name": "id",
          "type": "uint256"
        },
        {
          "internalType": "address",
          "name": "creator",
          "type": "address"
        },
        {
          "internalType": "string",
          "name": "name",
          "type": "string"
        },
        {
          "internalType": "string",
          "name": "description",
          "type": "string"
        },
        {
          "internalType": "uint256",
          "name": "timeStart",
          "type": "uint256"
        },
        {
          "internalType": "uint256",
          "name": "timeToJoin",
          "type": "uint256"
        },
        {
          "internalType": "uint256",
          "name": "timeEnd",
          "type": "uint256"
        }
      ],
      "stateMutability": "view",
      "type": "function"
    },
    {
      "inputs": [],
      "name": "writePetTest",
      "outputs": [],
      "stateMutability": "nonpayable",
      "type": "function"
    }
  ],
  "bytecode": "0x60806040523480156200001157600080fd5b50336000806101000a81548173ffffffffffffffffffffffffffffffffffffffff021916908373ffffffffffffffffffffffffffffffffffffffff16021790555060405180606001604052806040518060400160405280600581526020017f4f776e657200000000000000000000000000000000000000000000000000000081525081526020016040518060400160405280601c81526020017f49276d206f776e657220746869732073797374656d2055414841484100000000815250815260200142815250600160003373ffffffffffffffffffffffffffffffffffffffff1673ffffffffffffffffffffffffffffffffffffffff16815260200190815260200160002060008201518160000190816200012d9190620003d3565b506020820151816001019081620001459190620003d3565b5060408201518160020155905050620004ba565b600081519050919050565b7f4e487b7100000000000000000000000000000000000000000000000000000000600052604160045260246000fd5b7f4e487b7100000000000000000000000000000000000000000000000000000000600052602260045260246000fd5b60006002820490506001821680620001db57607f821691505b602082108103620001f157620001f062000193565b5b50919050565b60008190508160005260206000209050919050565b60006020601f8301049050919050565b600082821b905092915050565b6000600883026200025b7fffffffffffffffffffffffffffffffffffffffffffffffffffffffffffffffff826200021c565b6200026786836200021c565b95508019841693508086168417925050509392505050565b6000819050919050565b6000819050919050565b6000620002b4620002ae620002a8846200027f565b62000289565b6200027f565b9050919050565b6000819050919050565b620002d08362000293565b620002e8620002df82620002bb565b84845462000229565b825550505050565b600090565b620002ff620002f0565b6200030c818484620002c5565b505050565b5b81811015620003345762000328600082620002f5565b60018101905062000312565b5050565b601f82111562000383576200034d81620001f7565b62000358846200020c565b8101602085101562000368578190505b6200038062000377856200020c565b83018262000311565b50505b505050565b600082821c905092915050565b6000620003a86000198460080262000388565b1980831691505092915050565b6000620003c3838362000395565b9150826002028217905092915050565b620003de8262000159565b67ffffffffffffffff811115620003fa57620003f962000164565b5b620004068254620001c2565b6200041382828562000338565b600060209050601f8311600181146200044b576000841562000436578287015190505b620004428582620003b5565b865550620004b2565b601f1984166200045b86620001f7565b60005b8281101562000485578489015182556001820191506020850194506020810190506200045e565b86831015620004a55784890151620004a1601f89168262000395565b8355505b6001600288020188555050505b505050505050565b611b1680620004ca6000396000f3fe6080604052600436106100a75760003560e01c806391c9e0d21161006457806391c9e0d2146101d0578063b8486396146101e7578063c5ff1b441461022a578063d917deb514610253578063e844d0971461025d578063f43f30d814610286576100a7565b80630e50fdca146100ac5780631d234dea146100d55780632b5914fe146101005780632bcc23f8146101295780637f2891df146101685780638da5cb5b146101a5575b600080fd5b3480156100b857600080fd5b506100d360048036038101906100ce9190610f20565b6102af565b005b3480156100e157600080fd5b506100ea610302565b6040516100f791906111a7565b60405180910390f35b34801561010c57600080fd5b5061012760048036038101906101229190610f20565b610503565b005b34801561013557600080fd5b50610150600480360381019061014b91906111f5565b610556565b60405161015f9392919061127b565b60405180910390f35b34801561017457600080fd5b5061018f600480360381019061018a91906111f5565b610690565b60405161019c91906112db565b60405180910390f35b3480156101b157600080fd5b506101ba6106b0565b6040516101c79190611317565b60405180910390f35b3480156101dc57600080fd5b506101e56106d4565b005b3480156101f357600080fd5b5061020e6004803603810190610209919061135e565b6107c1565b604051610221979695949392919061139a565b60405180910390f35b34801561023657600080fd5b50610251600480360381019061024c9190611417565b610943565b005b61025b610a8d565b005b34801561026957600080fd5b50610284600480360381019061027f919061135e565b610c90565b005b34801561029257600080fd5b506102ad60048036038101906102a891906114b6565b610c93565b005b80600160003373ffffffffffffffffffffffffffffffffffffffff1673ffffffffffffffffffffffffffffffffffffffff16815260200190815260200160002060010190816102fe919061174d565b5050565b60606005805480602002602001604051908101604052809291908181526020016000905b828210156104fa57838290600052602060002090600702016040518060e0016040529081600082015481526020016001820160009054906101000a900473ffffffffffffffffffffffffffffffffffffffff1673ffffffffffffffffffffffffffffffffffffffff1673ffffffffffffffffffffffffffffffffffffffff1681526020016002820180546103b990611570565b80601f01602080910402602001604051908101604052809291908181526020018280546103e590611570565b80156104325780601f1061040757610100808354040283529160200191610432565b820191906000526020600020905b81548152906001019060200180831161041557829003601f168201915b5050505050815260200160038201805461044b90611570565b80601f016020809104026020016040519081016040528092919081815260200182805461047790611570565b80156104c45780601f10610499576101008083540402835291602001916104c4565b820191906000526020600020905b8154815290600101906020018083116104a757829003601f168201915b50505050508152602001600482015481526020016005820154815260200160068201548152505081526020019060010190610326565b50505050905090565b80600160003373ffffffffffffffffffffffffffffffffffffffff1673ffffffffffffffffffffffffffffffffffffffff1681526020019081526020016000206000019081610552919061174d565b5050565b600160205280600052604060002060009150905080600001805461057990611570565b80601f01602080910402602001604051908101604052809291908181526020018280546105a590611570565b80156105f25780601f106105c7576101008083540402835291602001916105f2565b820191906000526020600020905b8154815290600101906020018083116105d557829003601f168201915b50505050509080600101805461060790611570565b80601f016020809104026020016040519081016040528092919081815260200182805461063390611570565b80156106805780601f1061065557610100808354040283529160200191610680565b820191906000526020600020905b81548152906001019060200180831161066357829003601f168201915b5050505050908060020154905083565b60046020528060005260406000206000915054906101000a900460ff1681565b60008054906101000a900473ffffffffffffffffffffffffffffffffffffffff1681565b60001515600460003373ffffffffffffffffffffffffffffffffffffffff1673ffffffffffffffffffffffffffffffffffffffff16815260200190815260200160002060009054906101000a900460ff16151514610767576040517f08c379a000000000000000000000000000000000000000000000000000000000815260040161075e9061186b565b60405180910390fd5b6001600460003373ffffffffffffffffffffffffffffffffffffffff1673ffffffffffffffffffffffffffffffffffffffff16815260200190815260200160002060006101000a81548160ff021916908315150217905550565b600581815481106107d157600080fd5b90600052602060002090600702016000915090508060000154908060010160009054906101000a900473ffffffffffffffffffffffffffffffffffffffff169080600201805461082090611570565b80601f016020809104026020016040519081016040528092919081815260200182805461084c90611570565b80156108995780601f1061086e57610100808354040283529160200191610899565b820191906000526020600020905b81548152906001019060200180831161087c57829003601f168201915b5050505050908060030180546108ae90611570565b80601f01602080910402602001604051908101604052809291908181526020018280546108da90611570565b80156109275780601f106108fc57610100808354040283529160200191610927565b820191906000526020600020905b81548152906001019060200180831161090a57829003601f168201915b5050505050908060040154908060050154908060060154905087565b60056040518060e0016040528060058054905081526020013373ffffffffffffffffffffffffffffffffffffffff168152602001868152602001858152602001428152602001603c8561099691906118ba565b426109a191906118fc565b8152602001603c846109b391906118ba565b426109be91906118fc565b81525090806001815401808255809150506001900390600052602060002090600702016000909190919091506000820151816000015560208201518160010160006101000a81548173ffffffffffffffffffffffffffffffffffffffff021916908373ffffffffffffffffffffffffffffffffffffffff1602179055506040820151816002019081610a50919061174d565b506060820151816003019081610a66919061174d565b506080820151816004015560a0820151816005015560c08201518160060155505050505050565b600073ffffffffffffffffffffffffffffffffffffffff163373ffffffffffffffffffffffffffffffffffffffff1603610afc576040517f08c379a0000000000000000000000000000000000000000000000000000000008152600401610af39061197c565b60405180910390fd5b60003411610b3f576040517f08c379a0000000000000000000000000000000000000000000000000000000008152600401610b36906119e8565b60405180910390fd5b343373ffffffffffffffffffffffffffffffffffffffff16311015610b99576040517f08c379a0000000000000000000000000000000000000000000000000000000008152600401610b9090611a54565b60405180910390fd5b60008054906101000a900473ffffffffffffffffffffffffffffffffffffffff1673ffffffffffffffffffffffffffffffffffffffff163373ffffffffffffffffffffffffffffffffffffffff1603610c27576040517f08c379a0000000000000000000000000000000000000000000000000000000008152600401610c1e90611ac0565b60405180910390fd5b60008054906101000a900473ffffffffffffffffffffffffffffffffffffffff1673ffffffffffffffffffffffffffffffffffffffff166108fc349081150290604051600060405180830381858888f19350505050158015610c8d573d6000803e3d6000fd5b50565b50565b60066040518060e0016040528060068054905081526020013373ffffffffffffffffffffffffffffffffffffffff168152602001858152602001848152602001428152602001603c84610ce691906118ba565b42610cf191906118fc565b8152602001600081525090806001815401808255809150506001900390600052602060002090600702016000909190919091506000820151816000015560208201518160010160006101000a81548173ffffffffffffffffffffffffffffffffffffffff021916908373ffffffffffffffffffffffffffffffffffffffff1602179055506040820151816002019081610d8a919061174d565b506060820151816003019081610da0919061174d565b506080820151816004015560a0820151816005015560c082015181600601555050505050565b6000604051905090565b600080fd5b600080fd5b600080fd5b600080fd5b6000601f19601f8301169050919050565b7f4e487b7100000000000000000000000000000000000000000000000000000000600052604160045260246000fd5b610e2d82610de4565b810181811067ffffffffffffffff82111715610e4c57610e4b610df5565b5b80604052505050565b6000610e5f610dc6565b9050610e6b8282610e24565b919050565b600067ffffffffffffffff821115610e8b57610e8a610df5565b5b610e9482610de4565b9050602081019050919050565b82818337600083830152505050565b6000610ec3610ebe84610e70565b610e55565b905082815260208101848484011115610edf57610ede610ddf565b5b610eea848285610ea1565b509392505050565b600082601f830112610f0757610f06610dda565b5b8135610f17848260208601610eb0565b91505092915050565b600060208284031215610f3657610f35610dd0565b5b600082013567ffffffffffffffff811115610f5457610f53610dd5565b5b610f6084828501610ef2565b91505092915050565b600081519050919050565b600082825260208201905092915050565b6000819050602082019050919050565b6000819050919050565b610fa881610f95565b82525050565b600073ffffffffffffffffffffffffffffffffffffffff82169050919050565b6000610fd982610fae565b9050919050565b610fe981610fce565b82525050565b600081519050919050565b600082825260208201905092915050565b60005b8381101561102957808201518184015260208101905061100e565b60008484015250505050565b600061104082610fef565b61104a8185610ffa565b935061105a81856020860161100b565b61106381610de4565b840191505092915050565b600060e0830160008301516110866000860182610f9f565b5060208301516110996020860182610fe0565b50604083015184820360408601526110b18282611035565b915050606083015184820360608601526110cb8282611035565b91505060808301516110e06080860182610f9f565b5060a08301516110f360a0860182610f9f565b5060c083015161110660c0860182610f9f565b508091505092915050565b600061111d838361106e565b905092915050565b6000602082019050919050565b600061113d82610f69565b6111478185610f74565b93508360208202850161115985610f85565b8060005b8581101561119557848403895281516111768582611111565b945061118183611125565b925060208a0199505060018101905061115d565b50829750879550505050505092915050565b600060208201905081810360008301526111c18184611132565b905092915050565b6111d281610fce565b81146111dd57600080fd5b50565b6000813590506111ef816111c9565b92915050565b60006020828403121561120b5761120a610dd0565b5b6000611219848285016111e0565b91505092915050565b600082825260208201905092915050565b600061123e82610fef565b6112488185611222565b935061125881856020860161100b565b61126181610de4565b840191505092915050565b61127581610f95565b82525050565b600060608201905081810360008301526112958186611233565b905081810360208301526112a98185611233565b90506112b8604083018461126c565b949350505050565b60008115159050919050565b6112d5816112c0565b82525050565b60006020820190506112f060008301846112cc565b92915050565b600061130182610fae565b9050919050565b611311816112f6565b82525050565b600060208201905061132c6000830184611308565b92915050565b61133b81610f95565b811461134657600080fd5b50565b60008135905061135881611332565b92915050565b60006020828403121561137457611373610dd0565b5b600061138284828501611349565b91505092915050565b61139481610fce565b82525050565b600060e0820190506113af600083018a61126c565b6113bc602083018961138b565b81810360408301526113ce8188611233565b905081810360608301526113e28187611233565b90506113f1608083018661126c565b6113fe60a083018561126c565b61140b60c083018461126c565b98975050505050505050565b6000806000806080858703121561143157611430610dd0565b5b600085013567ffffffffffffffff81111561144f5761144e610dd5565b5b61145b87828801610ef2565b945050602085013567ffffffffffffffff81111561147c5761147b610dd5565b5b61148887828801610ef2565b935050604061149987828801611349565b92505060606114aa87828801611349565b91505092959194509250565b6000806000606084860312156114cf576114ce610dd0565b5b600084013567ffffffffffffffff8111156114ed576114ec610dd5565b5b6114f986828701610ef2565b935050602084013567ffffffffffffffff81111561151a57611519610dd5565b5b61152686828701610ef2565b925050604061153786828701611349565b9150509250925092565b7f4e487b7100000000000000000000000000000000000000000000000000000000600052602260045260246000fd5b6000600282049050600182168061158857607f821691505b60208210810361159b5761159a611541565b5b50919050565b60008190508160005260206000209050919050565b60006020601f8301049050919050565b600082821b905092915050565b6000600883026116037fffffffffffffffffffffffffffffffffffffffffffffffffffffffffffffffff826115c6565b61160d86836115c6565b95508019841693508086168417925050509392505050565b6000819050919050565b600061164a61164561164084610f95565b611625565b610f95565b9050919050565b6000819050919050565b6116648361162f565b61167861167082611651565b8484546115d3565b825550505050565b600090565b61168d611680565b61169881848461165b565b505050565b5b818110156116bc576116b1600082611685565b60018101905061169e565b5050565b601f821115611701576116d2816115a1565b6116db846115b6565b810160208510156116ea578190505b6116fe6116f6856115b6565b83018261169d565b50505b505050565b600082821c905092915050565b600061172460001984600802611706565b1980831691505092915050565b600061173d8383611713565b9150826002028217905092915050565b61175682610fef565b67ffffffffffffffff81111561176f5761176e610df5565b5b6117798254611570565b6117848282856116c0565b600060209050601f8311600181146117b757600084156117a5578287015190505b6117af8582611731565b865550611817565b601f1984166117c5866115a1565b60005b828110156117ed578489015182556001820191506020850194506020810190506117c8565b8683101561180a5784890151611806601f891682611713565b8355505b6001600288020188555050505b505050505050565b7f596f7520616c72656164792077726974652074686973207065746974696f6e21600082015250565b6000611855602083611222565b91506118608261181f565b602082019050919050565b6000602082019050818103600083015261188481611848565b9050919050565b7f4e487b7100000000000000000000000000000000000000000000000000000000600052601160045260246000fd5b60006118c582610f95565b91506118d083610f95565b92508282026118de81610f95565b915082820484148315176118f5576118f461188b565b5b5092915050565b600061190782610f95565b915061191283610f95565b925082820190508082111561192a5761192961188b565b5b92915050565b7f596f75722061646472657373206e6f7420666f756e6421000000000000000000600082015250565b6000611966601783611222565b915061197182611930565b602082019050919050565b6000602082019050818103600083015261199581611959565b9050919050565b7f302066756e64732073656e740000000000000000000000000000000000000000600082015250565b60006119d2600c83611222565b91506119dd8261199c565b602082019050919050565b60006020820190508181036000830152611a01816119c5565b9050919050565b7f6e6f206d6f6e6579206e6f2066756e6e79000000000000000000000000000000600082015250565b6000611a3e601183611222565b9150611a4982611a08565b602082019050919050565b60006020820190508181036000830152611a6d81611a31565b9050919050565b7f796f75207472757374206f776e65722058440000000000000000000000000000600082015250565b6000611aaa601283611222565b9150611ab582611a74565b602082019050919050565b60006020820190508181036000830152611ad981611a9d565b905091905056fea2646970667358221220d2a0855e5938ba0dcd82b331d4b5904cb9ccf9ba85817e715ee7cfbb6b7dcf4464736f6c63430008180033",
  "linkReferences": {},
  "deployedLinkReferences": {}
}