{
  "_format": "hh-sol-artifact-1",
  "contractName": "VoteDapp",
  "sourceName": "contracts/VoteDapp.sol",
  "abi": [
    {
      "inputs": [],
      "stateMutability": "nonpayable",
      "type": "constructor"
    },
    {
      "inputs": [],
      "name": "Donate",
      "outputs": [],
      "stateMutability": "payable",
      "type": "function"
    },
    {
      "inputs": [
        {
          "internalType": "uint256",
          "name": "idVote",
          "type": "uint256"
        }
      ],
      "name": "addCandidate",
      "outputs": [],
      "stateMutability": "nonpayable",
      "type": "function"
    },
    {
      "inputs": [
        {
          "internalType": "string",
          "name": "_name",
          "type": "string"
        },
        {
          "internalType": "string",
          "name": "_description",
          "type": "string"
        },
        {
          "internalType": "uint256",
          "name": "_daysToVote",
          "type": "uint256"
        }
      ],
      "name": "addPetition",
      "outputs": [],
      "stateMutability": "nonpayable",
      "type": "function"
    },
    {
      "inputs": [
        {
          "internalType": "string",
          "name": "_name",
          "type": "string"
        },
        {
          "internalType": "string",
          "name": "_description",
          "type": "string"
        },
        {
          "internalType": "uint256",
          "name": "_timeToJoin",
          "type": "uint256"
        },
        {
          "internalType": "uint256",
          "name": "_daysToVote",
          "type": "uint256"
        }
      ],
      "name": "addVote",
      "outputs": [],
      "stateMutability": "nonpayable",
      "type": "function"
    },
    {
      "inputs": [],
      "name": "owner",
      "outputs": [
        {
          "internalType": "address payable",
          "name": "",
          "type": "address"
        }
      ],
      "stateMutability": "view",
      "type": "function"
    },
    {
      "inputs": [
        {
          "internalType": "uint256",
          "name": "",
          "type": "uint256"
        }
      ],
      "name": "petitionsMas",
      "outputs": [
        {
          "internalType": "uint256",
          "name": "id",
          "type": "uint256"
        },
        {
          "internalType": "address",
          "name": "creator",
          "type": "address"
        },
        {
          "internalType": "string",
          "name": "name",
          "type": "string"
        },
        {
          "internalType": "string",
          "name": "description",
          "type": "string"
        },
        {
          "internalType": "uint256",
          "name": "timeStart",
          "type": "uint256"
        },
        {
          "internalType": "uint256",
          "name": "timeEnd",
          "type": "uint256"
        },
        {
          "internalType": "uint256",
          "name": "votes",
          "type": "uint256"
        }
      ],
      "stateMutability": "view",
      "type": "function"
    },
    {
      "inputs": [],
      "name": "petitionsMasLength",
      "outputs": [
        {
          "internalType": "uint256",
          "name": "",
          "type": "uint256"
        }
      ],
      "stateMutability": "view",
      "type": "function"
    },
    {
      "inputs": [
        {
          "internalType": "string",
          "name": "_name",
          "type": "string"
        },
        {
          "internalType": "string",
          "name": "_description",
          "type": "string"
        }
      ],
      "name": "reg",
      "outputs": [],
      "stateMutability": "nonpayable",
      "type": "function"
    },
    {
      "inputs": [
        {
          "internalType": "address",
          "name": "",
          "type": "address"
        }
      ],
      "name": "regStatus",
      "outputs": [
        {
          "internalType": "bool",
          "name": "",
          "type": "bool"
        }
      ],
      "stateMutability": "view",
      "type": "function"
    },
    {
      "inputs": [
        {
          "internalType": "address",
          "name": "",
          "type": "address"
        }
      ],
      "name": "userMap",
      "outputs": [
        {
          "internalType": "string",
          "name": "name",
          "type": "string"
        },
        {
          "internalType": "string",
          "name": "description",
          "type": "string"
        },
        {
          "internalType": "uint256",
          "name": "timeReg",
          "type": "uint256"
        }
      ],
      "stateMutability": "view",
      "type": "function"
    },
    {
      "inputs": [],
      "name": "viewPoll",
      "outputs": [
        {
          "components": [
            {
              "internalType": "uint256",
              "name": "id",
              "type": "uint256"
            },
            {
              "internalType": "address",
              "name": "creator",
              "type": "address"
            },
            {
              "internalType": "string",
              "name": "name",
              "type": "string"
            },
            {
              "internalType": "string",
              "name": "description",
              "type": "string"
            },
            {
              "internalType": "uint256",
              "name": "timeStart",
              "type": "uint256"
            },
            {
              "internalType": "uint256",
              "name": "timeToJoin",
              "type": "uint256"
            },
            {
              "internalType": "uint256",
              "name": "timeEnd",
              "type": "uint256"
            }
          ],
          "internalType": "struct VoteDapp.Vote[]",
          "name": "",
          "type": "tuple[]"
        }
      ],
      "stateMutability": "view",
      "type": "function"
    },
    {
      "inputs": [
        {
          "internalType": "uint256",
          "name": "",
          "type": "uint256"
        }
      ],
      "name": "votesMas",
      "outputs": [
        {
          "internalType": "uint256",
          "name": "id",
          "type": "uint256"
        },
        {
          "internalType": "address",
          "name": "creator",
          "type": "address"
        },
        {
          "internalType": "string",
          "name": "name",
          "type": "string"
        },
        {
          "internalType": "string",
          "name": "description",
          "type": "string"
        },
        {
          "internalType": "uint256",
          "name": "timeStart",
          "type": "uint256"
        },
        {
          "internalType": "uint256",
          "name": "timeToJoin",
          "type": "uint256"
        },
        {
          "internalType": "uint256",
          "name": "timeEnd",
          "type": "uint256"
        }
      ],
      "stateMutability": "view",
      "type": "function"
    },
    {
      "inputs": [],
      "name": "votesMasLength",
      "outputs": [
        {
          "internalType": "uint256",
          "name": "",
          "type": "uint256"
        }
      ],
      "stateMutability": "view",
      "type": "function"
    },
    {
      "inputs": [
        {
          "internalType": "uint256",
          "name": "index",
          "type": "uint256"
        }
      ],
      "name": "writePetTest",
      "outputs": [],
      "stateMutability": "nonpayable",
      "type": "function"
    }
  ],
  "bytecode": "0x60806040523480156200001157600080fd5b5060018060003373ffffffffffffffffffffffffffffffffffffffff1673ffffffffffffffffffffffffffffffffffffffff16815260200190815260200160002060006101000a81548160ff021916908315150217905550336000806101000a81548173ffffffffffffffffffffffffffffffffffffffff021916908373ffffffffffffffffffffffffffffffffffffffff16021790555060405180606001604052806040518060400160405280600581526020017f4f776e657200000000000000000000000000000000000000000000000000000081525081526020016040518060400160405280601c81526020017f49276d206f776e657220746869732073797374656d2055414841484100000000815250815260200142815250600260003373ffffffffffffffffffffffffffffffffffffffff1673ffffffffffffffffffffffffffffffffffffffff16815260200190815260200160002060008201518160000190816200018491906200042a565b5060208201518160010190816200019c91906200042a565b506040820151816002015590505062000511565b600081519050919050565b7f4e487b7100000000000000000000000000000000000000000000000000000000600052604160045260246000fd5b7f4e487b7100000000000000000000000000000000000000000000000000000000600052602260045260246000fd5b600060028204905060018216806200023257607f821691505b602082108103620002485762000247620001ea565b5b50919050565b60008190508160005260206000209050919050565b60006020601f8301049050919050565b600082821b905092915050565b600060088302620002b27fffffffffffffffffffffffffffffffffffffffffffffffffffffffffffffffff8262000273565b620002be868362000273565b95508019841693508086168417925050509392505050565b6000819050919050565b6000819050919050565b60006200030b62000305620002ff84620002d6565b620002e0565b620002d6565b9050919050565b6000819050919050565b6200032783620002ea565b6200033f620003368262000312565b84845462000280565b825550505050565b600090565b6200035662000347565b620003638184846200031c565b505050565b5b818110156200038b576200037f6000826200034c565b60018101905062000369565b5050565b601f821115620003da57620003a4816200024e565b620003af8462000263565b81016020851015620003bf578190505b620003d7620003ce8562000263565b83018262000368565b50505b505050565b600082821c905092915050565b6000620003ff60001984600802620003df565b1980831691505092915050565b60006200041a8383620003ec565b9150826002028217905092915050565b6200043582620001b0565b67ffffffffffffffff811115620004515762000450620001bb565b5b6200045d825462000219565b6200046a8282856200038f565b600060209050601f831160018114620004a257600084156200048d578287015190505b6200049985826200040c565b86555062000509565b601f198416620004b2866200024e565b60005b82811015620004dc57848901518255600182019150602085019450602081019050620004b5565b86831015620004fc5784890151620004f8601f891682620003ec565b8355505b6001600288020188555050505b505050505050565b611da280620005216000396000f3fe6080604052600436106100dd5760003560e01c8063b84863961161007f578063e844d09711610059578063e844d097146102ad578063eac01e31146102d6578063f43f30d814610301578063f4bcbb6d1461032a576100dd565b8063b848639614610237578063c5ff1b441461027a578063d917deb5146102a3576100dd565b806373a4e4c3116100bb57806373a4e4c31461017557806387ad137d1461019e5780638da5cb5b146101e15780639f1bb4751461020c576100dd565b806314a20431146100e25780631d234dea1461010b5780632bcc23f814610136575b600080fd5b3480156100ee57600080fd5b5061010960048036038101906101049190611052565b610367565b005b34801561011757600080fd5b5061012061036a565b60405161012d91906112c4565b60405180910390f35b34801561014257600080fd5b5061015d60048036038101906101589190611312565b61056b565b60405161016c93929190611398565b60405180910390f35b34801561018157600080fd5b5061019c60048036038101906101979190611512565b6106a5565b005b3480156101aa57600080fd5b506101c560048036038101906101c09190611052565b610823565b6040516101d89796959493929190611599565b60405180910390f35b3480156101ed57600080fd5b506101f66109a5565b6040516102039190611637565b60405180910390f35b34801561021857600080fd5b506102216109c9565b60405161022e9190611652565b60405180910390f35b34801561024357600080fd5b5061025e60048036038101906102599190611052565b6109d6565b6040516102719796959493929190611599565b60405180910390f35b34801561028657600080fd5b506102a1600480360381019061029c919061166d565b610b58565b005b6102ab610ca2565b005b3480156102b957600080fd5b506102d460048036038101906102cf9190611052565b610ea5565b005b3480156102e257600080fd5b506102eb610ea8565b6040516102f89190611652565b60405180910390f35b34801561030d57600080fd5b506103286004803603810190610323919061170c565b610eb5565b005b34801561033657600080fd5b50610351600480360381019061034c9190611312565b610fe8565b60405161035e91906117b2565b60405180910390f35b50565b60606005805480602002602001604051908101604052809291908181526020016000905b8282101561056257838290600052602060002090600702016040518060e0016040529081600082015481526020016001820160009054906101000a900473ffffffffffffffffffffffffffffffffffffffff1673ffffffffffffffffffffffffffffffffffffffff1673ffffffffffffffffffffffffffffffffffffffff168152602001600282018054610421906117fc565b80601f016020809104026020016040519081016040528092919081815260200182805461044d906117fc565b801561049a5780601f1061046f5761010080835404028352916020019161049a565b820191906000526020600020905b81548152906001019060200180831161047d57829003601f168201915b505050505081526020016003820180546104b3906117fc565b80601f01602080910402602001604051908101604052809291908181526020018280546104df906117fc565b801561052c5780601f106105015761010080835404028352916020019161052c565b820191906000526020600020905b81548152906001019060200180831161050f57829003601f168201915b5050505050815260200160048201548152602001600582015481526020016006820154815250508152602001906001019061038e565b50505050905090565b600260205280600052604060002060009150905080600001805461058e906117fc565b80601f01602080910402602001604051908101604052809291908181526020018280546105ba906117fc565b80156106075780601f106105dc57610100808354040283529160200191610607565b820191906000526020600020905b8154815290600101906020018083116105ea57829003601f168201915b50505050509080600101805461061c906117fc565b80601f0160208091040260200160405190810160405280929190818152602001828054610648906117fc565b80156106955780601f1061066a57610100808354040283529160200191610695565b820191906000526020600020905b81548152906001019060200180831161067857829003601f168201915b5050505050908060020154905083565b60011515600160003373ffffffffffffffffffffffffffffffffffffffff1673ffffffffffffffffffffffffffffffffffffffff16815260200190815260200160002060009054906101000a900460ff16151503610738576040517f08c379a000000000000000000000000000000000000000000000000000000000815260040161072f90611879565b60405180910390fd5b81600260003373ffffffffffffffffffffffffffffffffffffffff1673ffffffffffffffffffffffffffffffffffffffff16815260200190815260200160002060000190816107879190611a45565b5080600260003373ffffffffffffffffffffffffffffffffffffffff1673ffffffffffffffffffffffffffffffffffffffff16815260200190815260200160002060010190816107d79190611a45565b5042600260003373ffffffffffffffffffffffffffffffffffffffff1673ffffffffffffffffffffffffffffffffffffffff168152602001908152602001600020600201819055505050565b6006818154811061083357600080fd5b90600052602060002090600702016000915090508060000154908060010160009054906101000a900473ffffffffffffffffffffffffffffffffffffffff1690806002018054610882906117fc565b80601f01602080910402602001604051908101604052809291908181526020018280546108ae906117fc565b80156108fb5780601f106108d0576101008083540402835291602001916108fb565b820191906000526020600020905b8154815290600101906020018083116108de57829003601f168201915b505050505090806003018054610910906117fc565b80601f016020809104026020016040519081016040528092919081815260200182805461093c906117fc565b80156109895780601f1061095e57610100808354040283529160200191610989565b820191906000526020600020905b81548152906001019060200180831161096c57829003601f168201915b5050505050908060040154908060050154908060060154905087565b60008054906101000a900473ffffffffffffffffffffffffffffffffffffffff1681565b6000600680549050905090565b600581815481106109e657600080fd5b90600052602060002090600702016000915090508060000154908060010160009054906101000a900473ffffffffffffffffffffffffffffffffffffffff1690806002018054610a35906117fc565b80601f0160208091040260200160405190810160405280929190818152602001828054610a61906117fc565b8015610aae5780601f10610a8357610100808354040283529160200191610aae565b820191906000526020600020905b815481529060010190602001808311610a9157829003601f168201915b505050505090806003018054610ac3906117fc565b80601f0160208091040260200160405190810160405280929190818152602001828054610aef906117fc565b8015610b3c5780601f10610b1157610100808354040283529160200191610b3c565b820191906000526020600020905b815481529060010190602001808311610b1f57829003601f168201915b5050505050908060040154908060050154908060060154905087565b60056040518060e0016040528060058054905081526020013373ffffffffffffffffffffffffffffffffffffffff168152602001868152602001858152602001428152602001603c85610bab9190611b46565b42610bb69190611b88565b8152602001603c84610bc89190611b46565b42610bd39190611b88565b81525090806001815401808255809150506001900390600052602060002090600702016000909190919091506000820151816000015560208201518160010160006101000a81548173ffffffffffffffffffffffffffffffffffffffff021916908373ffffffffffffffffffffffffffffffffffffffff1602179055506040820151816002019081610c659190611a45565b506060820151816003019081610c7b9190611a45565b506080820151816004015560a0820151816005015560c08201518160060155505050505050565b600073ffffffffffffffffffffffffffffffffffffffff163373ffffffffffffffffffffffffffffffffffffffff1603610d11576040517f08c379a0000000000000000000000000000000000000000000000000000000008152600401610d0890611c08565b60405180910390fd5b60003411610d54576040517f08c379a0000000000000000000000000000000000000000000000000000000008152600401610d4b90611c74565b60405180910390fd5b343373ffffffffffffffffffffffffffffffffffffffff16311015610dae576040517f08c379a0000000000000000000000000000000000000000000000000000000008152600401610da590611ce0565b60405180910390fd5b60008054906101000a900473ffffffffffffffffffffffffffffffffffffffff1673ffffffffffffffffffffffffffffffffffffffff163373ffffffffffffffffffffffffffffffffffffffff1603610e3c576040517f08c379a0000000000000000000000000000000000000000000000000000000008152600401610e3390611d4c565b60405180910390fd5b60008054906101000a900473ffffffffffffffffffffffffffffffffffffffff1673ffffffffffffffffffffffffffffffffffffffff166108fc349081150290604051600060405180830381858888f19350505050158015610ea2573d6000803e3d6000fd5b50565b50565b6000600580549050905090565b60066040518060e0016040528060068054905081526020013373ffffffffffffffffffffffffffffffffffffffff168152602001858152602001848152602001428152602001603c84610f089190611b46565b42610f139190611b88565b8152602001600081525090806001815401808255809150506001900390600052602060002090600702016000909190919091506000820151816000015560208201518160010160006101000a81548173ffffffffffffffffffffffffffffffffffffffff021916908373ffffffffffffffffffffffffffffffffffffffff1602179055506040820151816002019081610fac9190611a45565b506060820151816003019081610fc29190611a45565b506080820151816004015560a0820151816005015560c082015181600601555050505050565b60016020528060005260406000206000915054906101000a900460ff1681565b6000604051905090565b600080fd5b600080fd5b6000819050919050565b61102f8161101c565b811461103a57600080fd5b50565b60008135905061104c81611026565b92915050565b60006020828403121561106857611067611012565b5b60006110768482850161103d565b91505092915050565b600081519050919050565b600082825260208201905092915050565b6000819050602082019050919050565b6110b48161101c565b82525050565b600073ffffffffffffffffffffffffffffffffffffffff82169050919050565b60006110e5826110ba565b9050919050565b6110f5816110da565b82525050565b600081519050919050565b600082825260208201905092915050565b60005b8381101561113557808201518184015260208101905061111a565b60008484015250505050565b6000601f19601f8301169050919050565b600061115d826110fb565b6111678185611106565b9350611177818560208601611117565b61118081611141565b840191505092915050565b600060e0830160008301516111a360008601826110ab565b5060208301516111b660208601826110ec565b50604083015184820360408601526111ce8282611152565b915050606083015184820360608601526111e88282611152565b91505060808301516111fd60808601826110ab565b5060a083015161121060a08601826110ab565b5060c083015161122360c08601826110ab565b508091505092915050565b600061123a838361118b565b905092915050565b6000602082019050919050565b600061125a8261107f565b611264818561108a565b9350836020820285016112768561109b565b8060005b858110156112b25784840389528151611293858261122e565b945061129e83611242565b925060208a0199505060018101905061127a565b50829750879550505050505092915050565b600060208201905081810360008301526112de818461124f565b905092915050565b6112ef816110da565b81146112fa57600080fd5b50565b60008135905061130c816112e6565b92915050565b60006020828403121561132857611327611012565b5b6000611336848285016112fd565b91505092915050565b600082825260208201905092915050565b600061135b826110fb565b611365818561133f565b9350611375818560208601611117565b61137e81611141565b840191505092915050565b6113928161101c565b82525050565b600060608201905081810360008301526113b28186611350565b905081810360208301526113c68185611350565b90506113d56040830184611389565b949350505050565b600080fd5b600080fd5b7f4e487b7100000000000000000000000000000000000000000000000000000000600052604160045260246000fd5b61141f82611141565b810181811067ffffffffffffffff8211171561143e5761143d6113e7565b5b80604052505050565b6000611451611008565b905061145d8282611416565b919050565b600067ffffffffffffffff82111561147d5761147c6113e7565b5b61148682611141565b9050602081019050919050565b82818337600083830152505050565b60006114b56114b084611462565b611447565b9050828152602081018484840111156114d1576114d06113e2565b5b6114dc848285611493565b509392505050565b600082601f8301126114f9576114f86113dd565b5b81356115098482602086016114a2565b91505092915050565b6000806040838503121561152957611528611012565b5b600083013567ffffffffffffffff81111561154757611546611017565b5b611553858286016114e4565b925050602083013567ffffffffffffffff81111561157457611573611017565b5b611580858286016114e4565b9150509250929050565b611593816110da565b82525050565b600060e0820190506115ae600083018a611389565b6115bb602083018961158a565b81810360408301526115cd8188611350565b905081810360608301526115e18187611350565b90506115f06080830186611389565b6115fd60a0830185611389565b61160a60c0830184611389565b98975050505050505050565b6000611621826110ba565b9050919050565b61163181611616565b82525050565b600060208201905061164c6000830184611628565b92915050565b60006020820190506116676000830184611389565b92915050565b6000806000806080858703121561168757611686611012565b5b600085013567ffffffffffffffff8111156116a5576116a4611017565b5b6116b1878288016114e4565b945050602085013567ffffffffffffffff8111156116d2576116d1611017565b5b6116de878288016114e4565b93505060406116ef8782880161103d565b92505060606117008782880161103d565b91505092959194509250565b60008060006060848603121561172557611724611012565b5b600084013567ffffffffffffffff81111561174357611742611017565b5b61174f868287016114e4565b935050602084013567ffffffffffffffff8111156117705761176f611017565b5b61177c868287016114e4565b925050604061178d8682870161103d565b9150509250925092565b60008115159050919050565b6117ac81611797565b82525050565b60006020820190506117c760008301846117a3565b92915050565b7f4e487b7100000000000000000000000000000000000000000000000000000000600052602260045260246000fd5b6000600282049050600182168061181457607f821691505b602082108103611827576118266117cd565b5b50919050565b7f796f7520616c7265616479207265676973747265640000000000000000000000600082015250565b600061186360158361133f565b915061186e8261182d565b602082019050919050565b6000602082019050818103600083015261189281611856565b9050919050565b60008190508160005260206000209050919050565b60006020601f8301049050919050565b600082821b905092915050565b6000600883026118fb7fffffffffffffffffffffffffffffffffffffffffffffffffffffffffffffffff826118be565b61190586836118be565b95508019841693508086168417925050509392505050565b6000819050919050565b600061194261193d6119388461101c565b61191d565b61101c565b9050919050565b6000819050919050565b61195c83611927565b61197061196882611949565b8484546118cb565b825550505050565b600090565b611985611978565b611990818484611953565b505050565b5b818110156119b4576119a960008261197d565b600181019050611996565b5050565b601f8211156119f9576119ca81611899565b6119d3846118ae565b810160208510156119e2578190505b6119f66119ee856118ae565b830182611995565b50505b505050565b600082821c905092915050565b6000611a1c600019846008026119fe565b1980831691505092915050565b6000611a358383611a0b565b9150826002028217905092915050565b611a4e826110fb565b67ffffffffffffffff811115611a6757611a666113e7565b5b611a7182546117fc565b611a7c8282856119b8565b600060209050601f831160018114611aaf5760008415611a9d578287015190505b611aa78582611a29565b865550611b0f565b601f198416611abd86611899565b60005b82811015611ae557848901518255600182019150602085019450602081019050611ac0565b86831015611b025784890151611afe601f891682611a0b565b8355505b6001600288020188555050505b505050505050565b7f4e487b7100000000000000000000000000000000000000000000000000000000600052601160045260246000fd5b6000611b518261101c565b9150611b5c8361101c565b9250828202611b6a8161101c565b91508282048414831517611b8157611b80611b17565b5b5092915050565b6000611b938261101c565b9150611b9e8361101c565b9250828201905080821115611bb657611bb5611b17565b5b92915050565b7f596f75722061646472657373206e6f7420666f756e6421000000000000000000600082015250565b6000611bf260178361133f565b9150611bfd82611bbc565b602082019050919050565b60006020820190508181036000830152611c2181611be5565b9050919050565b7f302066756e64732073656e740000000000000000000000000000000000000000600082015250565b6000611c5e600c8361133f565b9150611c6982611c28565b602082019050919050565b60006020820190508181036000830152611c8d81611c51565b9050919050565b7f6e6f206d6f6e6579206e6f2066756e6e79000000000000000000000000000000600082015250565b6000611cca60118361133f565b9150611cd582611c94565b602082019050919050565b60006020820190508181036000830152611cf981611cbd565b9050919050565b7f796f75207472757374206f776e65722058440000000000000000000000000000600082015250565b6000611d3660128361133f565b9150611d4182611d00565b602082019050919050565b60006020820190508181036000830152611d6581611d29565b905091905056fea2646970667358221220110cd9b6142135669a40c9d46346d3794c0e1f44b12f10bd83792ec516b0e9f364736f6c63430008180033",
  "linkReferences": {},
  "deployedLinkReferences": {}
}