{
  "_format": "hh-sol-artifact-1",
  "contractName": "VoteDapp",
  "sourceName": "contracts/VoteDapp.sol",
  "abi": [
    {
      "inputs": [],
      "stateMutability": "nonpayable",
      "type": "constructor"
    },
    {
      "inputs": [],
      "name": "Donate",
      "outputs": [],
      "stateMutability": "payable",
      "type": "function"
    },
    {
      "inputs": [
        {
          "internalType": "uint256",
          "name": "idVote",
          "type": "uint256"
        }
      ],
      "name": "addCandidate",
      "outputs": [],
      "stateMutability": "nonpayable",
      "type": "function"
    },
    {
      "inputs": [
        {
          "internalType": "string",
          "name": "_name",
          "type": "string"
        },
        {
          "internalType": "string",
          "name": "_description",
          "type": "string"
        },
        {
          "internalType": "uint256",
          "name": "_daysToVote",
          "type": "uint256"
        }
      ],
      "name": "addPetition",
      "outputs": [],
      "stateMutability": "nonpayable",
      "type": "function"
    },
    {
      "inputs": [
        {
          "internalType": "string",
          "name": "_name",
          "type": "string"
        },
        {
          "internalType": "string",
          "name": "_description",
          "type": "string"
        },
        {
          "internalType": "uint256",
          "name": "_timeToJoin",
          "type": "uint256"
        },
        {
          "internalType": "uint256",
          "name": "_daysToVote",
          "type": "uint256"
        }
      ],
      "name": "addVote",
      "outputs": [],
      "stateMutability": "nonpayable",
      "type": "function"
    },
    {
      "inputs": [],
      "name": "owner",
      "outputs": [
        {
          "internalType": "address payable",
          "name": "",
          "type": "address"
        }
      ],
      "stateMutability": "view",
      "type": "function"
    },
    {
      "inputs": [],
      "name": "usersCount",
      "outputs": [
        {
          "internalType": "uint256",
          "name": "",
          "type": "uint256"
        }
      ],
      "stateMutability": "view",
      "type": "function"
    },
    {
      "inputs": [],
      "name": "viewPoll",
      "outputs": [
        {
          "components": [
            {
              "internalType": "uint256",
              "name": "idCreator",
              "type": "uint256"
            },
            {
              "internalType": "uint256",
              "name": "id",
              "type": "uint256"
            },
            {
              "internalType": "string",
              "name": "name",
              "type": "string"
            },
            {
              "internalType": "string",
              "name": "description",
              "type": "string"
            },
            {
              "internalType": "uint256",
              "name": "timeStart",
              "type": "uint256"
            },
            {
              "internalType": "uint256",
              "name": "timeToJoin",
              "type": "uint256"
            },
            {
              "internalType": "uint256",
              "name": "timeEnd",
              "type": "uint256"
            }
          ],
          "internalType": "struct VoteDapp.Vote[]",
          "name": "",
          "type": "tuple[]"
        }
      ],
      "stateMutability": "view",
      "type": "function"
    },
    {
      "inputs": [],
      "name": "watchTestPartMap",
      "outputs": [
        {
          "internalType": "bool",
          "name": "",
          "type": "bool"
        }
      ],
      "stateMutability": "view",
      "type": "function"
    },
    {
      "inputs": [],
      "name": "writePetTest",
      "outputs": [],
      "stateMutability": "nonpayable",
      "type": "function"
    }
  ],
  "bytecode": "0x60806040523480156200001157600080fd5b50336000806101000a81548173ffffffffffffffffffffffffffffffffffffffff021916908373ffffffffffffffffffffffffffffffffffffffff160217905550600154600260003373ffffffffffffffffffffffffffffffffffffffff1673ffffffffffffffffffffffffffffffffffffffff16815260200190815260200160002081905550600154600260003373ffffffffffffffffffffffffffffffffffffffff1673ffffffffffffffffffffffffffffffffffffffff168152602001908152602001600020819055506040518060800160405280600260003373ffffffffffffffffffffffffffffffffffffffff1673ffffffffffffffffffffffffffffffffffffffff1681526020019081526020016000205481526020016040518060400160405280600581526020017f4f776e657200000000000000000000000000000000000000000000000000000081525081526020016040518060400160405280601c81526020017f49276d206f776e657220746869732073797374656d205541484148410000000081525081526020014281525060036000600260003373ffffffffffffffffffffffffffffffffffffffff1673ffffffffffffffffffffffffffffffffffffffff1681526020019081526020016000205481526020019081526020016000206000820151816000015560208201518160010190816200021b9190620004c1565b506040820151816002019081620002339190620004c1565b5060608201518160030155905050620005a8565b600081519050919050565b7f4e487b7100000000000000000000000000000000000000000000000000000000600052604160045260246000fd5b7f4e487b7100000000000000000000000000000000000000000000000000000000600052602260045260246000fd5b60006002820490506001821680620002c957607f821691505b602082108103620002df57620002de62000281565b5b50919050565b60008190508160005260206000209050919050565b60006020601f8301049050919050565b600082821b905092915050565b600060088302620003497fffffffffffffffffffffffffffffffffffffffffffffffffffffffffffffffff826200030a565b6200035586836200030a565b95508019841693508086168417925050509392505050565b6000819050919050565b6000819050919050565b6000620003a26200039c62000396846200036d565b62000377565b6200036d565b9050919050565b6000819050919050565b620003be8362000381565b620003d6620003cd82620003a9565b84845462000317565b825550505050565b600090565b620003ed620003de565b620003fa818484620003b3565b505050565b5b81811015620004225762000416600082620003e3565b60018101905062000400565b5050565b601f82111562000471576200043b81620002e5565b6200044684620002fa565b8101602085101562000456578190505b6200046e6200046585620002fa565b830182620003ff565b50505b505050565b600082821c905092915050565b6000620004966000198460080262000476565b1980831691505092915050565b6000620004b1838362000483565b9150826002028217905092915050565b620004cc8262000247565b67ffffffffffffffff811115620004e857620004e762000252565b5b620004f48254620002b0565b6200050182828562000426565b600060209050601f83116001811462000539576000841562000524578287015190505b620005308582620004a3565b865550620005a0565b601f1984166200054986620002e5565b60005b8281101562000573578489015182556001820191506020850194506020810190506200054c565b868310156200059357848901516200058f601f89168262000483565b8355505b6001600288020188555050505b505050505050565b6114ec80620005b86000396000f3fe6080604052600436106100865760003560e01c806391c9e0d21161005957806391c9e0d214610137578063c5ff1b441461014e578063d917deb514610177578063e844d09714610181578063f43f30d8146101aa57610086565b80631d234dea1461008b5780636ba13a82146100b657806375c6c096146100e15780638da5cb5b1461010c575b600080fd5b34801561009757600080fd5b506100a06101d3565b6040516100ad9190610b5c565b60405180910390f35b3480156100c257600080fd5b506100cb610388565b6040516100d89190610b8d565b60405180910390f35b3480156100ed57600080fd5b506100f661038e565b6040516101039190610bc3565b60405180910390f35b34801561011857600080fd5b506101216103e2565b60405161012e9190610c1f565b60405180910390f35b34801561014357600080fd5b5061014c610406565b005b34801561015a57600080fd5b5061017560048036038101906101709190610daf565b6104f3565b005b61017f610629565b005b34801561018d57600080fd5b506101a860048036038101906101a39190610e4e565b61082c565b005b3480156101b657600080fd5b506101d160048036038101906101cc9190610e7b565b61082f565b005b60606007805480602002602001604051908101604052809291908181526020016000905b8282101561037f57838290600052602060002090600702016040518060e0016040529081600082015481526020016001820154815260200160028201805461023e90610f35565b80601f016020809104026020016040519081016040528092919081815260200182805461026a90610f35565b80156102b75780601f1061028c576101008083540402835291602001916102b7565b820191906000526020600020905b81548152906001019060200180831161029a57829003601f168201915b505050505081526020016003820180546102d090610f35565b80601f01602080910402602001604051908101604052809291908181526020018280546102fc90610f35565b80156103495780601f1061031e57610100808354040283529160200191610349565b820191906000526020600020905b81548152906001019060200180831161032c57829003601f168201915b505050505081526020016004820154815260200160058201548152602001600682015481525050815260200190600101906101f7565b50505050905090565b60015481565b6000600660003373ffffffffffffffffffffffffffffffffffffffff1673ffffffffffffffffffffffffffffffffffffffff16815260200190815260200160002060009054906101000a900460ff16905090565b60008054906101000a900473ffffffffffffffffffffffffffffffffffffffff1681565b60001515600660003373ffffffffffffffffffffffffffffffffffffffff1673ffffffffffffffffffffffffffffffffffffffff16815260200190815260200160002060009054906101000a900460ff16151514610499576040517f08c379a000000000000000000000000000000000000000000000000000000000815260040161049090610fc3565b60405180910390fd5b6001600660003373ffffffffffffffffffffffffffffffffffffffff1673ffffffffffffffffffffffffffffffffffffffff16815260200190815260200160002060006101000a81548160ff021916908315150217905550565b60076040518060e00160405280600260003373ffffffffffffffffffffffffffffffffffffffff1673ffffffffffffffffffffffffffffffffffffffff1681526020019081526020016000205481526020016007805490508152602001868152602001858152602001428152602001603c8561056f9190611012565b4261057a9190611054565b8152602001603c8461058c9190611012565b426105979190611054565b8152509080600181540180825580915050600190039060005260206000209060070201600090919091909150600082015181600001556020820151816001015560408201518160020190816105ec9190611234565b5060608201518160030190816106029190611234565b506080820151816004015560a0820151816005015560c08201518160060155505050505050565b600073ffffffffffffffffffffffffffffffffffffffff163373ffffffffffffffffffffffffffffffffffffffff1603610698576040517f08c379a000000000000000000000000000000000000000000000000000000000815260040161068f90611352565b60405180910390fd5b600034116106db576040517f08c379a00000000000000000000000000000000000000000000000000000000081526004016106d2906113be565b60405180910390fd5b343373ffffffffffffffffffffffffffffffffffffffff16311015610735576040517f08c379a000000000000000000000000000000000000000000000000000000000815260040161072c9061142a565b60405180910390fd5b60008054906101000a900473ffffffffffffffffffffffffffffffffffffffff1673ffffffffffffffffffffffffffffffffffffffff163373ffffffffffffffffffffffffffffffffffffffff16036107c3576040517f08c379a00000000000000000000000000000000000000000000000000000000081526004016107ba90611496565b60405180910390fd5b60008054906101000a900473ffffffffffffffffffffffffffffffffffffffff1673ffffffffffffffffffffffffffffffffffffffff166108fc349081150290604051600060405180830381858888f19350505050158015610829573d6000803e3d6000fd5b50565b50565b60086040518060e00160405280600260003373ffffffffffffffffffffffffffffffffffffffff1673ffffffffffffffffffffffffffffffffffffffff1681526020019081526020016000205481526020016008805490508152602001858152602001848152602001428152602001603c846108ab9190611012565b426108b69190611054565b815260200160008152509080600181540180825580915050600190039060005260206000209060070201600090919091909150600082015181600001556020820151816001015560408201518160020190816109129190611234565b5060608201518160030190816109289190611234565b506080820151816004015560a0820151816005015560c082015181600601555050505050565b600081519050919050565b600082825260208201905092915050565b6000819050602082019050919050565b6000819050919050565b61098d8161097a565b82525050565b600081519050919050565b600082825260208201905092915050565b60005b838110156109cd5780820151818401526020810190506109b2565b60008484015250505050565b6000601f19601f8301169050919050565b60006109f582610993565b6109ff818561099e565b9350610a0f8185602086016109af565b610a18816109d9565b840191505092915050565b600060e083016000830151610a3b6000860182610984565b506020830151610a4e6020860182610984565b5060408301518482036040860152610a6682826109ea565b91505060608301518482036060860152610a8082826109ea565b9150506080830151610a956080860182610984565b5060a0830151610aa860a0860182610984565b5060c0830151610abb60c0860182610984565b508091505092915050565b6000610ad28383610a23565b905092915050565b6000602082019050919050565b6000610af28261094e565b610afc8185610959565b935083602082028501610b0e8561096a565b8060005b85811015610b4a5784840389528151610b2b8582610ac6565b9450610b3683610ada565b925060208a01995050600181019050610b12565b50829750879550505050505092915050565b60006020820190508181036000830152610b768184610ae7565b905092915050565b610b878161097a565b82525050565b6000602082019050610ba26000830184610b7e565b92915050565b60008115159050919050565b610bbd81610ba8565b82525050565b6000602082019050610bd86000830184610bb4565b92915050565b600073ffffffffffffffffffffffffffffffffffffffff82169050919050565b6000610c0982610bde565b9050919050565b610c1981610bfe565b82525050565b6000602082019050610c346000830184610c10565b92915050565b6000604051905090565b600080fd5b600080fd5b600080fd5b600080fd5b7f4e487b7100000000000000000000000000000000000000000000000000000000600052604160045260246000fd5b610c90826109d9565b810181811067ffffffffffffffff82111715610caf57610cae610c58565b5b80604052505050565b6000610cc2610c3a565b9050610cce8282610c87565b919050565b600067ffffffffffffffff821115610cee57610ced610c58565b5b610cf7826109d9565b9050602081019050919050565b82818337600083830152505050565b6000610d26610d2184610cd3565b610cb8565b905082815260208101848484011115610d4257610d41610c53565b5b610d4d848285610d04565b509392505050565b600082601f830112610d6a57610d69610c4e565b5b8135610d7a848260208601610d13565b91505092915050565b610d8c8161097a565b8114610d9757600080fd5b50565b600081359050610da981610d83565b92915050565b60008060008060808587031215610dc957610dc8610c44565b5b600085013567ffffffffffffffff811115610de757610de6610c49565b5b610df387828801610d55565b945050602085013567ffffffffffffffff811115610e1457610e13610c49565b5b610e2087828801610d55565b9350506040610e3187828801610d9a565b9250506060610e4287828801610d9a565b91505092959194509250565b600060208284031215610e6457610e63610c44565b5b6000610e7284828501610d9a565b91505092915050565b600080600060608486031215610e9457610e93610c44565b5b600084013567ffffffffffffffff811115610eb257610eb1610c49565b5b610ebe86828701610d55565b935050602084013567ffffffffffffffff811115610edf57610ede610c49565b5b610eeb86828701610d55565b9250506040610efc86828701610d9a565b9150509250925092565b7f4e487b7100000000000000000000000000000000000000000000000000000000600052602260045260246000fd5b60006002820490506001821680610f4d57607f821691505b602082108103610f6057610f5f610f06565b5b50919050565b600082825260208201905092915050565b7f596f7520616c72656164792077726974652074686973207065746974696f6e21600082015250565b6000610fad602083610f66565b9150610fb882610f77565b602082019050919050565b60006020820190508181036000830152610fdc81610fa0565b9050919050565b7f4e487b7100000000000000000000000000000000000000000000000000000000600052601160045260246000fd5b600061101d8261097a565b91506110288361097a565b92508282026110368161097a565b9150828204841483151761104d5761104c610fe3565b5b5092915050565b600061105f8261097a565b915061106a8361097a565b925082820190508082111561108257611081610fe3565b5b92915050565b60008190508160005260206000209050919050565b60006020601f8301049050919050565b600082821b905092915050565b6000600883026110ea7fffffffffffffffffffffffffffffffffffffffffffffffffffffffffffffffff826110ad565b6110f486836110ad565b95508019841693508086168417925050509392505050565b6000819050919050565b600061113161112c6111278461097a565b61110c565b61097a565b9050919050565b6000819050919050565b61114b83611116565b61115f61115782611138565b8484546110ba565b825550505050565b600090565b611174611167565b61117f818484611142565b505050565b5b818110156111a35761119860008261116c565b600181019050611185565b5050565b601f8211156111e8576111b981611088565b6111c28461109d565b810160208510156111d1578190505b6111e56111dd8561109d565b830182611184565b50505b505050565b600082821c905092915050565b600061120b600019846008026111ed565b1980831691505092915050565b600061122483836111fa565b9150826002028217905092915050565b61123d82610993565b67ffffffffffffffff81111561125657611255610c58565b5b6112608254610f35565b61126b8282856111a7565b600060209050601f83116001811461129e576000841561128c578287015190505b6112968582611218565b8655506112fe565b601f1984166112ac86611088565b60005b828110156112d4578489015182556001820191506020850194506020810190506112af565b868310156112f157848901516112ed601f8916826111fa565b8355505b6001600288020188555050505b505050505050565b7f596f75722061646472657373206e6f7420666f756e6421000000000000000000600082015250565b600061133c601783610f66565b915061134782611306565b602082019050919050565b6000602082019050818103600083015261136b8161132f565b9050919050565b7f302066756e64732073656e740000000000000000000000000000000000000000600082015250565b60006113a8600c83610f66565b91506113b382611372565b602082019050919050565b600060208201905081810360008301526113d78161139b565b9050919050565b7f6e6f206d6f6e6579206e6f2066756e6e79000000000000000000000000000000600082015250565b6000611414601183610f66565b915061141f826113de565b602082019050919050565b6000602082019050818103600083015261144381611407565b9050919050565b7f796f75207472757374206f776e65722058440000000000000000000000000000600082015250565b6000611480601283610f66565b915061148b8261144a565b602082019050919050565b600060208201905081810360008301526114af81611473565b905091905056fea2646970667358221220b0432f011de116ef10276b7564efa3f88f6185af72b19d7d649cb607c05c767764736f6c63430008180033",
  "linkReferences": {},
  "deployedLinkReferences": {}
}