{
  "_format": "hh-sol-artifact-1",
  "contractName": "VoteDapp",
  "sourceName": "contracts/VoteDapp.sol",
  "abi": [
    {
      "inputs": [],
      "stateMutability": "nonpayable",
      "type": "constructor"
    },
    {
      "inputs": [],
      "name": "Donate",
      "outputs": [],
      "stateMutability": "payable",
      "type": "function"
    },
    {
      "inputs": [
        {
          "internalType": "uint256",
          "name": "idVote",
          "type": "uint256"
        }
      ],
      "name": "addCandidate",
      "outputs": [],
      "stateMutability": "nonpayable",
      "type": "function"
    },
    {
      "inputs": [
        {
          "internalType": "string",
          "name": "_name",
          "type": "string"
        },
        {
          "internalType": "string",
          "name": "_description",
          "type": "string"
        },
        {
          "internalType": "uint256",
          "name": "_daysToVote",
          "type": "uint256"
        }
      ],
      "name": "addPetition",
      "outputs": [],
      "stateMutability": "nonpayable",
      "type": "function"
    },
    {
      "inputs": [
        {
          "internalType": "string",
          "name": "_name",
          "type": "string"
        },
        {
          "internalType": "string",
          "name": "_description",
          "type": "string"
        },
        {
          "internalType": "uint256",
          "name": "_timeToJoin",
          "type": "uint256"
        },
        {
          "internalType": "uint256",
          "name": "_daysToVote",
          "type": "uint256"
        }
      ],
      "name": "addVote",
      "outputs": [],
      "stateMutability": "nonpayable",
      "type": "function"
    },
    {
      "inputs": [],
      "name": "owner",
      "outputs": [
        {
          "internalType": "address payable",
          "name": "",
          "type": "address"
        }
      ],
      "stateMutability": "view",
      "type": "function"
    },
    {
      "inputs": [],
      "name": "petVotesTest",
      "outputs": [
        {
          "internalType": "uint256",
          "name": "",
          "type": "uint256"
        }
      ],
      "stateMutability": "view",
      "type": "function"
    },
    {
      "inputs": [],
      "name": "usersCount",
      "outputs": [
        {
          "internalType": "uint256",
          "name": "",
          "type": "uint256"
        }
      ],
      "stateMutability": "view",
      "type": "function"
    },
    {
      "inputs": [],
      "name": "viewPoll",
      "outputs": [
        {
          "components": [
            {
              "internalType": "uint256",
              "name": "idCreator",
              "type": "uint256"
            },
            {
              "internalType": "uint256",
              "name": "id",
              "type": "uint256"
            },
            {
              "internalType": "string",
              "name": "name",
              "type": "string"
            },
            {
              "internalType": "string",
              "name": "description",
              "type": "string"
            },
            {
              "internalType": "uint256",
              "name": "timeStart",
              "type": "uint256"
            },
            {
              "internalType": "uint256",
              "name": "timeToJoin",
              "type": "uint256"
            },
            {
              "internalType": "uint256",
              "name": "timeEnd",
              "type": "uint256"
            }
          ],
          "internalType": "struct VoteDapp.Vote[]",
          "name": "",
          "type": "tuple[]"
        }
      ],
      "stateMutability": "view",
      "type": "function"
    },
    {
      "inputs": [],
      "name": "watchTestPartMap",
      "outputs": [
        {
          "internalType": "bool",
          "name": "",
          "type": "bool"
        }
      ],
      "stateMutability": "view",
      "type": "function"
    },
    {
      "inputs": [],
      "name": "writePetTest",
      "outputs": [],
      "stateMutability": "nonpayable",
      "type": "function"
    }
  ],
  "bytecode": "0x60806040523480156200001157600080fd5b506000600281905550336000806101000a81548173ffffffffffffffffffffffffffffffffffffffff021916908373ffffffffffffffffffffffffffffffffffffffff160217905550600154600360003373ffffffffffffffffffffffffffffffffffffffff1673ffffffffffffffffffffffffffffffffffffffff16815260200190815260200160002081905550600154600360003373ffffffffffffffffffffffffffffffffffffffff1673ffffffffffffffffffffffffffffffffffffffff168152602001908152602001600020819055506040518060800160405280600360003373ffffffffffffffffffffffffffffffffffffffff1673ffffffffffffffffffffffffffffffffffffffff1681526020019081526020016000205481526020016040518060400160405280600581526020017f4f776e657200000000000000000000000000000000000000000000000000000081525081526020016040518060400160405280601c81526020017f49276d206f776e657220746869732073797374656d205541484148410000000081525081526020014281525060046000600360003373ffffffffffffffffffffffffffffffffffffffff1673ffffffffffffffffffffffffffffffffffffffff168152602001908152602001600020548152602001908152602001600020600082015181600001556020820151816001019081620002239190620004c9565b5060408201518160020190816200023b9190620004c9565b5060608201518160030155905050620005b0565b600081519050919050565b7f4e487b7100000000000000000000000000000000000000000000000000000000600052604160045260246000fd5b7f4e487b7100000000000000000000000000000000000000000000000000000000600052602260045260246000fd5b60006002820490506001821680620002d157607f821691505b602082108103620002e757620002e662000289565b5b50919050565b60008190508160005260206000209050919050565b60006020601f8301049050919050565b600082821b905092915050565b600060088302620003517fffffffffffffffffffffffffffffffffffffffffffffffffffffffffffffffff8262000312565b6200035d868362000312565b95508019841693508086168417925050509392505050565b6000819050919050565b6000819050919050565b6000620003aa620003a46200039e8462000375565b6200037f565b62000375565b9050919050565b6000819050919050565b620003c68362000389565b620003de620003d582620003b1565b8484546200031f565b825550505050565b600090565b620003f5620003e6565b62000402818484620003bb565b505050565b5b818110156200042a576200041e600082620003eb565b60018101905062000408565b5050565b601f82111562000479576200044381620002ed565b6200044e8462000302565b810160208510156200045e578190505b620004766200046d8562000302565b83018262000407565b50505b505050565b600082821c905092915050565b60006200049e600019846008026200047e565b1980831691505092915050565b6000620004b983836200048b565b9150826002028217905092915050565b620004d4826200024f565b67ffffffffffffffff811115620004f057620004ef6200025a565b5b620004fc8254620002b8565b620005098282856200042e565b600060209050601f8311600181146200054157600084156200052c578287015190505b620005388582620004ab565b865550620005a8565b601f1984166200055186620002ed565b60005b828110156200057b5784890151825560018201915060208501945060208101905062000554565b868310156200059b578489015162000597601f8916826200048b565b8355505b6001600288020188555050505b505050505050565b61158880620005c06000396000f3fe6080604052600436106100915760003560e01c806391c9e0d21161005957806391c9e0d21461016d578063c5ff1b4414610184578063d917deb5146101ad578063e844d097146101b7578063f43f30d8146101e057610091565b80631d234dea146100965780635d141afc146100c15780636ba13a82146100ec57806375c6c096146101175780638da5cb5b14610142575b600080fd5b3480156100a257600080fd5b506100ab610209565b6040516100b89190610bb0565b60405180910390f35b3480156100cd57600080fd5b506100d66103be565b6040516100e39190610be1565b60405180910390f35b3480156100f857600080fd5b506101016103c4565b60405161010e9190610be1565b60405180910390f35b34801561012357600080fd5b5061012c6103ca565b6040516101399190610c17565b60405180910390f35b34801561014e57600080fd5b5061015761041e565b6040516101649190610c73565b60405180910390f35b34801561017957600080fd5b50610182610442565b005b34801561019057600080fd5b506101ab60048036038101906101a69190610e03565b610547565b005b6101b561067d565b005b3480156101c357600080fd5b506101de60048036038101906101d99190610ea2565b610880565b005b3480156101ec57600080fd5b5061020760048036038101906102029190610ecf565b610883565b005b60606008805480602002602001604051908101604052809291908181526020016000905b828210156103b557838290600052602060002090600702016040518060e0016040529081600082015481526020016001820154815260200160028201805461027490610f89565b80601f01602080910402602001604051908101604052809291908181526020018280546102a090610f89565b80156102ed5780601f106102c2576101008083540402835291602001916102ed565b820191906000526020600020905b8154815290600101906020018083116102d057829003601f168201915b5050505050815260200160038201805461030690610f89565b80601f016020809104026020016040519081016040528092919081815260200182805461033290610f89565b801561037f5780601f106103545761010080835404028352916020019161037f565b820191906000526020600020905b81548152906001019060200180831161036257829003601f168201915b5050505050815260200160048201548152602001600582015481526020016006820154815250508152602001906001019061022d565b50505050905090565b60025481565b60015481565b6000600760003373ffffffffffffffffffffffffffffffffffffffff1673ffffffffffffffffffffffffffffffffffffffff16815260200190815260200160002060009054906101000a900460ff16905090565b60008054906101000a900473ffffffffffffffffffffffffffffffffffffffff1681565b60001515600760003373ffffffffffffffffffffffffffffffffffffffff1673ffffffffffffffffffffffffffffffffffffffff16815260200190815260200160002060009054906101000a900460ff161515146104d5576040517f08c379a00000000000000000000000000000000000000000000000000000000081526004016104cc90611017565b60405180910390fd5b600260008154809291906104e890611066565b91905055506001600760003373ffffffffffffffffffffffffffffffffffffffff1673ffffffffffffffffffffffffffffffffffffffff16815260200190815260200160002060006101000a81548160ff021916908315150217905550565b60086040518060e00160405280600360003373ffffffffffffffffffffffffffffffffffffffff1673ffffffffffffffffffffffffffffffffffffffff1681526020019081526020016000205481526020016008805490508152602001868152602001858152602001428152602001603c856105c391906110ae565b426105ce91906110f0565b8152602001603c846105e091906110ae565b426105eb91906110f0565b81525090806001815401808255809150506001900390600052602060002090600702016000909190919091506000820151816000015560208201518160010155604082015181600201908161064091906112d0565b50606082015181600301908161065691906112d0565b506080820151816004015560a0820151816005015560c08201518160060155505050505050565b600073ffffffffffffffffffffffffffffffffffffffff163373ffffffffffffffffffffffffffffffffffffffff16036106ec576040517f08c379a00000000000000000000000000000000000000000000000000000000081526004016106e3906113ee565b60405180910390fd5b6000341161072f576040517f08c379a00000000000000000000000000000000000000000000000000000000081526004016107269061145a565b60405180910390fd5b343373ffffffffffffffffffffffffffffffffffffffff16311015610789576040517f08c379a0000000000000000000000000000000000000000000000000000000008152600401610780906114c6565b60405180910390fd5b60008054906101000a900473ffffffffffffffffffffffffffffffffffffffff1673ffffffffffffffffffffffffffffffffffffffff163373ffffffffffffffffffffffffffffffffffffffff1603610817576040517f08c379a000000000000000000000000000000000000000000000000000000000815260040161080e90611532565b60405180910390fd5b60008054906101000a900473ffffffffffffffffffffffffffffffffffffffff1673ffffffffffffffffffffffffffffffffffffffff166108fc349081150290604051600060405180830381858888f1935050505015801561087d573d6000803e3d6000fd5b50565b50565b60096040518060e00160405280600360003373ffffffffffffffffffffffffffffffffffffffff1673ffffffffffffffffffffffffffffffffffffffff1681526020019081526020016000205481526020016009805490508152602001858152602001848152602001428152602001603c846108ff91906110ae565b4261090a91906110f0565b8152602001600081525090806001815401808255809150506001900390600052602060002090600702016000909190919091506000820151816000015560208201518160010155604082015181600201908161096691906112d0565b50606082015181600301908161097c91906112d0565b506080820151816004015560a0820151816005015560c082015181600601555050505050565b600081519050919050565b600082825260208201905092915050565b6000819050602082019050919050565b6000819050919050565b6109e1816109ce565b82525050565b600081519050919050565b600082825260208201905092915050565b60005b83811015610a21578082015181840152602081019050610a06565b60008484015250505050565b6000601f19601f8301169050919050565b6000610a49826109e7565b610a5381856109f2565b9350610a63818560208601610a03565b610a6c81610a2d565b840191505092915050565b600060e083016000830151610a8f60008601826109d8565b506020830151610aa260208601826109d8565b5060408301518482036040860152610aba8282610a3e565b91505060608301518482036060860152610ad48282610a3e565b9150506080830151610ae960808601826109d8565b5060a0830151610afc60a08601826109d8565b5060c0830151610b0f60c08601826109d8565b508091505092915050565b6000610b268383610a77565b905092915050565b6000602082019050919050565b6000610b46826109a2565b610b5081856109ad565b935083602082028501610b62856109be565b8060005b85811015610b9e5784840389528151610b7f8582610b1a565b9450610b8a83610b2e565b925060208a01995050600181019050610b66565b50829750879550505050505092915050565b60006020820190508181036000830152610bca8184610b3b565b905092915050565b610bdb816109ce565b82525050565b6000602082019050610bf66000830184610bd2565b92915050565b60008115159050919050565b610c1181610bfc565b82525050565b6000602082019050610c2c6000830184610c08565b92915050565b600073ffffffffffffffffffffffffffffffffffffffff82169050919050565b6000610c5d82610c32565b9050919050565b610c6d81610c52565b82525050565b6000602082019050610c886000830184610c64565b92915050565b6000604051905090565b600080fd5b600080fd5b600080fd5b600080fd5b7f4e487b7100000000000000000000000000000000000000000000000000000000600052604160045260246000fd5b610ce482610a2d565b810181811067ffffffffffffffff82111715610d0357610d02610cac565b5b80604052505050565b6000610d16610c8e565b9050610d228282610cdb565b919050565b600067ffffffffffffffff821115610d4257610d41610cac565b5b610d4b82610a2d565b9050602081019050919050565b82818337600083830152505050565b6000610d7a610d7584610d27565b610d0c565b905082815260208101848484011115610d9657610d95610ca7565b5b610da1848285610d58565b509392505050565b600082601f830112610dbe57610dbd610ca2565b5b8135610dce848260208601610d67565b91505092915050565b610de0816109ce565b8114610deb57600080fd5b50565b600081359050610dfd81610dd7565b92915050565b60008060008060808587031215610e1d57610e1c610c98565b5b600085013567ffffffffffffffff811115610e3b57610e3a610c9d565b5b610e4787828801610da9565b945050602085013567ffffffffffffffff811115610e6857610e67610c9d565b5b610e7487828801610da9565b9350506040610e8587828801610dee565b9250506060610e9687828801610dee565b91505092959194509250565b600060208284031215610eb857610eb7610c98565b5b6000610ec684828501610dee565b91505092915050565b600080600060608486031215610ee857610ee7610c98565b5b600084013567ffffffffffffffff811115610f0657610f05610c9d565b5b610f1286828701610da9565b935050602084013567ffffffffffffffff811115610f3357610f32610c9d565b5b610f3f86828701610da9565b9250506040610f5086828701610dee565b9150509250925092565b7f4e487b7100000000000000000000000000000000000000000000000000000000600052602260045260246000fd5b60006002820490506001821680610fa157607f821691505b602082108103610fb457610fb3610f5a565b5b50919050565b600082825260208201905092915050565b7f596f7520616c72656164792077726974652074686973207065746974696f6e21600082015250565b6000611001602083610fba565b915061100c82610fcb565b602082019050919050565b6000602082019050818103600083015261103081610ff4565b9050919050565b7f4e487b7100000000000000000000000000000000000000000000000000000000600052601160045260246000fd5b6000611071826109ce565b91507fffffffffffffffffffffffffffffffffffffffffffffffffffffffffffffffff82036110a3576110a2611037565b5b600182019050919050565b60006110b9826109ce565b91506110c4836109ce565b92508282026110d2816109ce565b915082820484148315176110e9576110e8611037565b5b5092915050565b60006110fb826109ce565b9150611106836109ce565b925082820190508082111561111e5761111d611037565b5b92915050565b60008190508160005260206000209050919050565b60006020601f8301049050919050565b600082821b905092915050565b6000600883026111867fffffffffffffffffffffffffffffffffffffffffffffffffffffffffffffffff82611149565b6111908683611149565b95508019841693508086168417925050509392505050565b6000819050919050565b60006111cd6111c86111c3846109ce565b6111a8565b6109ce565b9050919050565b6000819050919050565b6111e7836111b2565b6111fb6111f3826111d4565b848454611156565b825550505050565b600090565b611210611203565b61121b8184846111de565b505050565b5b8181101561123f57611234600082611208565b600181019050611221565b5050565b601f8211156112845761125581611124565b61125e84611139565b8101602085101561126d578190505b61128161127985611139565b830182611220565b50505b505050565b600082821c905092915050565b60006112a760001984600802611289565b1980831691505092915050565b60006112c08383611296565b9150826002028217905092915050565b6112d9826109e7565b67ffffffffffffffff8111156112f2576112f1610cac565b5b6112fc8254610f89565b611307828285611243565b600060209050601f83116001811461133a5760008415611328578287015190505b61133285826112b4565b86555061139a565b601f19841661134886611124565b60005b828110156113705784890151825560018201915060208501945060208101905061134b565b8683101561138d5784890151611389601f891682611296565b8355505b6001600288020188555050505b505050505050565b7f596f75722061646472657373206e6f7420666f756e6421000000000000000000600082015250565b60006113d8601783610fba565b91506113e3826113a2565b602082019050919050565b60006020820190508181036000830152611407816113cb565b9050919050565b7f302066756e64732073656e740000000000000000000000000000000000000000600082015250565b6000611444600c83610fba565b915061144f8261140e565b602082019050919050565b6000602082019050818103600083015261147381611437565b9050919050565b7f6e6f206d6f6e6579206e6f2066756e6e79000000000000000000000000000000600082015250565b60006114b0601183610fba565b91506114bb8261147a565b602082019050919050565b600060208201905081810360008301526114df816114a3565b9050919050565b7f796f75207472757374206f776e65722058440000000000000000000000000000600082015250565b600061151c601283610fba565b9150611527826114e6565b602082019050919050565b6000602082019050818103600083015261154b8161150f565b905091905056fea26469706673582212203e7772a676f2fe68100594b49616d135b91346af3a2cb7f842500786507bb6bb64736f6c63430008180033",
  "linkReferences": {},
  "deployedLinkReferences": {}
}