{
  "_format": "hh-sol-artifact-1",
  "contractName": "VoteDapp",
  "sourceName": "contracts/VoteDapp.sol",
  "abi": [
    {
      "inputs": [],
      "stateMutability": "nonpayable",
      "type": "constructor"
    },
    {
      "inputs": [],
      "name": "Donate",
      "outputs": [],
      "stateMutability": "payable",
      "type": "function"
    },
    {
      "inputs": [
        {
          "internalType": "uint256",
          "name": "idVote",
          "type": "uint256"
        }
      ],
      "name": "addCandidate",
      "outputs": [],
      "stateMutability": "nonpayable",
      "type": "function"
    },
    {
      "inputs": [
        {
          "internalType": "string",
          "name": "_name",
          "type": "string"
        },
        {
          "internalType": "string",
          "name": "_description",
          "type": "string"
        },
        {
          "internalType": "uint256",
          "name": "_daysToVote",
          "type": "uint256"
        }
      ],
      "name": "addPetition",
      "outputs": [],
      "stateMutability": "nonpayable",
      "type": "function"
    },
    {
      "inputs": [
        {
          "internalType": "string",
          "name": "_name",
          "type": "string"
        },
        {
          "internalType": "string",
          "name": "_description",
          "type": "string"
        },
        {
          "internalType": "uint256",
          "name": "_timeToJoin",
          "type": "uint256"
        },
        {
          "internalType": "uint256",
          "name": "_daysToVote",
          "type": "uint256"
        }
      ],
      "name": "addVote",
      "outputs": [],
      "stateMutability": "nonpayable",
      "type": "function"
    },
    {
      "inputs": [],
      "name": "owner",
      "outputs": [
        {
          "internalType": "address payable",
          "name": "",
          "type": "address"
        }
      ],
      "stateMutability": "view",
      "type": "function"
    },
    {
      "inputs": [
        {
          "internalType": "uint256",
          "name": "",
          "type": "uint256"
        }
      ],
      "name": "petitionsMas",
      "outputs": [
        {
          "internalType": "uint256",
          "name": "id",
          "type": "uint256"
        },
        {
          "internalType": "address",
          "name": "creator",
          "type": "address"
        },
        {
          "internalType": "string",
          "name": "name",
          "type": "string"
        },
        {
          "internalType": "string",
          "name": "description",
          "type": "string"
        },
        {
          "internalType": "uint256",
          "name": "timeStart",
          "type": "uint256"
        },
        {
          "internalType": "uint256",
          "name": "timeEnd",
          "type": "uint256"
        },
        {
          "internalType": "uint256",
          "name": "votes",
          "type": "uint256"
        }
      ],
      "stateMutability": "view",
      "type": "function"
    },
    {
      "inputs": [],
      "name": "petitionsMasLength",
      "outputs": [
        {
          "internalType": "uint256",
          "name": "",
          "type": "uint256"
        }
      ],
      "stateMutability": "view",
      "type": "function"
    },
    {
      "inputs": [
        {
          "internalType": "string",
          "name": "_name",
          "type": "string"
        },
        {
          "internalType": "string",
          "name": "_description",
          "type": "string"
        }
      ],
      "name": "reg",
      "outputs": [],
      "stateMutability": "nonpayable",
      "type": "function"
    },
    {
      "inputs": [
        {
          "internalType": "address",
          "name": "",
          "type": "address"
        }
      ],
      "name": "regStatus",
      "outputs": [
        {
          "internalType": "bool",
          "name": "",
          "type": "bool"
        }
      ],
      "stateMutability": "view",
      "type": "function"
    },
    {
      "inputs": [
        {
          "internalType": "address",
          "name": "",
          "type": "address"
        }
      ],
      "name": "userMap",
      "outputs": [
        {
          "internalType": "string",
          "name": "name",
          "type": "string"
        },
        {
          "internalType": "string",
          "name": "description",
          "type": "string"
        },
        {
          "internalType": "uint256",
          "name": "timeReg",
          "type": "uint256"
        }
      ],
      "stateMutability": "view",
      "type": "function"
    },
    {
      "inputs": [],
      "name": "viewPoll",
      "outputs": [
        {
          "components": [
            {
              "internalType": "uint256",
              "name": "id",
              "type": "uint256"
            },
            {
              "internalType": "address",
              "name": "creator",
              "type": "address"
            },
            {
              "internalType": "string",
              "name": "name",
              "type": "string"
            },
            {
              "internalType": "string",
              "name": "description",
              "type": "string"
            },
            {
              "internalType": "uint256",
              "name": "timeStart",
              "type": "uint256"
            },
            {
              "internalType": "uint256",
              "name": "timeToJoin",
              "type": "uint256"
            },
            {
              "internalType": "uint256",
              "name": "timeEnd",
              "type": "uint256"
            }
          ],
          "internalType": "struct VoteDapp.Vote[]",
          "name": "",
          "type": "tuple[]"
        }
      ],
      "stateMutability": "view",
      "type": "function"
    },
    {
      "inputs": [
        {
          "internalType": "uint256",
          "name": "",
          "type": "uint256"
        }
      ],
      "name": "votesMas",
      "outputs": [
        {
          "internalType": "uint256",
          "name": "id",
          "type": "uint256"
        },
        {
          "internalType": "address",
          "name": "creator",
          "type": "address"
        },
        {
          "internalType": "string",
          "name": "name",
          "type": "string"
        },
        {
          "internalType": "string",
          "name": "description",
          "type": "string"
        },
        {
          "internalType": "uint256",
          "name": "timeStart",
          "type": "uint256"
        },
        {
          "internalType": "uint256",
          "name": "timeToJoin",
          "type": "uint256"
        },
        {
          "internalType": "uint256",
          "name": "timeEnd",
          "type": "uint256"
        }
      ],
      "stateMutability": "view",
      "type": "function"
    },
    {
      "inputs": [],
      "name": "votesMasLength",
      "outputs": [
        {
          "internalType": "uint256",
          "name": "",
          "type": "uint256"
        }
      ],
      "stateMutability": "view",
      "type": "function"
    },
    {
      "inputs": [
        {
          "internalType": "uint256",
          "name": "index",
          "type": "uint256"
        }
      ],
      "name": "writePet",
      "outputs": [],
      "stateMutability": "nonpayable",
      "type": "function"
    }
  ],
  "bytecode": "0x60806040523480156200001157600080fd5b5060018060003373ffffffffffffffffffffffffffffffffffffffff1673ffffffffffffffffffffffffffffffffffffffff16815260200190815260200160002060006101000a81548160ff021916908315150217905550336000806101000a81548173ffffffffffffffffffffffffffffffffffffffff021916908373ffffffffffffffffffffffffffffffffffffffff16021790555060405180606001604052806040518060400160405280600581526020017f4f776e657200000000000000000000000000000000000000000000000000000081525081526020016040518060400160405280601c81526020017f49276d206f776e657220746869732073797374656d2055414841484100000000815250815260200142815250600260003373ffffffffffffffffffffffffffffffffffffffff1673ffffffffffffffffffffffffffffffffffffffff16815260200190815260200160002060008201518160000190816200018491906200042a565b5060208201518160010190816200019c91906200042a565b506040820151816002015590505062000511565b600081519050919050565b7f4e487b7100000000000000000000000000000000000000000000000000000000600052604160045260246000fd5b7f4e487b7100000000000000000000000000000000000000000000000000000000600052602260045260246000fd5b600060028204905060018216806200023257607f821691505b602082108103620002485762000247620001ea565b5b50919050565b60008190508160005260206000209050919050565b60006020601f8301049050919050565b600082821b905092915050565b600060088302620002b27fffffffffffffffffffffffffffffffffffffffffffffffffffffffffffffffff8262000273565b620002be868362000273565b95508019841693508086168417925050509392505050565b6000819050919050565b6000819050919050565b60006200030b62000305620002ff84620002d6565b620002e0565b620002d6565b9050919050565b6000819050919050565b6200032783620002ea565b6200033f620003368262000312565b84845462000280565b825550505050565b600090565b6200035662000347565b620003638184846200031c565b505050565b5b818110156200038b576200037f6000826200034c565b60018101905062000369565b5050565b601f821115620003da57620003a4816200024e565b620003af8462000263565b81016020851015620003bf578190505b620003d7620003ce8562000263565b83018262000368565b50505b505050565b600082821c905092915050565b6000620003ff60001984600802620003df565b1980831691505092915050565b60006200041a8383620003ec565b9150826002028217905092915050565b6200043582620001b0565b67ffffffffffffffff811115620004515762000450620001bb565b5b6200045d825462000219565b6200046a8282856200038f565b600060209050601f831160018114620004a257600084156200048d578287015190505b6200049985826200040c565b86555062000509565b601f198416620004b2866200024e565b60005b82811015620004dc57848901518255600182019150602085019450602081019050620004b5565b86831015620004fc5784890151620004f8601f891682620003ec565b8355505b6001600288020188555050505b505050505050565b61202480620005216000396000f3fe6080604052600436106100dd5760003560e01c8063b84863961161007f578063e844d09711610059578063e844d097146102ad578063eac01e31146102d6578063f43f30d814610301578063f4bcbb6d1461032a576100dd565b8063b848639614610237578063c5ff1b441461027a578063d917deb5146102a3576100dd565b806373a4e4c3116100bb57806373a4e4c31461017557806387ad137d1461019e5780638da5cb5b146101e15780639f1bb4751461020c576100dd565b80631d234dea146100e25780631f6b44141461010d5780632bcc23f814610136575b600080fd5b3480156100ee57600080fd5b506100f7610367565b60405161010491906113f6565b60405180910390f35b34801561011957600080fd5b50610134600480360381019061012f9190611458565b610568565b005b34801561014257600080fd5b5061015d600480360381019061015891906114b1565b6106b3565b60405161016c93929190611537565b60405180910390f35b34801561018157600080fd5b5061019c600480360381019061019791906116b1565b6107ed565b005b3480156101aa57600080fd5b506101c560048036038101906101c09190611458565b6109c2565b6040516101d89796959493929190611738565b60405180910390f35b3480156101ed57600080fd5b506101f6610b44565b60405161020391906117d6565b60405180910390f35b34801561021857600080fd5b50610221610b68565b60405161022e91906117f1565b60405180910390f35b34801561024357600080fd5b5061025e60048036038101906102599190611458565b610b75565b6040516102719796959493929190611738565b60405180910390f35b34801561028657600080fd5b506102a1600480360381019061029c919061180c565b610cf7565b005b6102ab610e41565b005b3480156102b957600080fd5b506102d460048036038101906102cf9190611458565b611044565b005b3480156102e257600080fd5b506102eb611047565b6040516102f891906117f1565b60405180910390f35b34801561030d57600080fd5b50610328600480360381019061032391906118ab565b611054565b005b34801561033657600080fd5b50610351600480360381019061034c91906114b1565b611187565b60405161035e9190611951565b60405180910390f35b60606006805480602002602001604051908101604052809291908181526020016000905b8282101561055f57838290600052602060002090600702016040518060e0016040529081600082015481526020016001820160009054906101000a900473ffffffffffffffffffffffffffffffffffffffff1673ffffffffffffffffffffffffffffffffffffffff1673ffffffffffffffffffffffffffffffffffffffff16815260200160028201805461041e9061199b565b80601f016020809104026020016040519081016040528092919081815260200182805461044a9061199b565b80156104975780601f1061046c57610100808354040283529160200191610497565b820191906000526020600020905b81548152906001019060200180831161047a57829003601f168201915b505050505081526020016003820180546104b09061199b565b80601f01602080910402602001604051908101604052809291908181526020018280546104dc9061199b565b80156105295780601f106104fe57610100808354040283529160200191610529565b820191906000526020600020905b81548152906001019060200180831161050c57829003601f168201915b5050505050815260200160048201548152602001600582015481526020016006820154815250508152602001906001019061038b565b50505050905090565b600015156005600083815260200190815260200160002060003373ffffffffffffffffffffffffffffffffffffffff1673ffffffffffffffffffffffffffffffffffffffff16815260200190815260200160002060009054906101000a900460ff1615151461060c576040517f08c379a000000000000000000000000000000000000000000000000000000000815260040161060390611a18565b60405180910390fd5b600781815481106106205761061f611a38565b5b9060005260206000209060070201600601600081548092919061064290611a96565b919050555060016005600083815260200190815260200160002060003373ffffffffffffffffffffffffffffffffffffffff1673ffffffffffffffffffffffffffffffffffffffff16815260200190815260200160002060006101000a81548160ff02191690831515021790555050565b60026020528060005260406000206000915090508060000180546106d69061199b565b80601f01602080910402602001604051908101604052809291908181526020018280546107029061199b565b801561074f5780601f106107245761010080835404028352916020019161074f565b820191906000526020600020905b81548152906001019060200180831161073257829003601f168201915b5050505050908060010180546107649061199b565b80601f01602080910402602001604051908101604052809291908181526020018280546107909061199b565b80156107dd5780601f106107b2576101008083540402835291602001916107dd565b820191906000526020600020905b8154815290600101906020018083116107c057829003601f168201915b5050505050908060020154905083565b60011515600160003373ffffffffffffffffffffffffffffffffffffffff1673ffffffffffffffffffffffffffffffffffffffff16815260200190815260200160002060009054906101000a900460ff16151503610880576040517f08c379a000000000000000000000000000000000000000000000000000000000815260040161087790611b2a565b60405180910390fd5b81600260003373ffffffffffffffffffffffffffffffffffffffff1673ffffffffffffffffffffffffffffffffffffffff16815260200190815260200160002060000190816108cf9190611cf6565b5080600260003373ffffffffffffffffffffffffffffffffffffffff1673ffffffffffffffffffffffffffffffffffffffff168152602001908152602001600020600101908161091f9190611cf6565b5042600260003373ffffffffffffffffffffffffffffffffffffffff1673ffffffffffffffffffffffffffffffffffffffff1681526020019081526020016000206002018190555060018060003373ffffffffffffffffffffffffffffffffffffffff1673ffffffffffffffffffffffffffffffffffffffff16815260200190815260200160002060006101000a81548160ff0219169083151502179055505050565b600781815481106109d257600080fd5b90600052602060002090600702016000915090508060000154908060010160009054906101000a900473ffffffffffffffffffffffffffffffffffffffff1690806002018054610a219061199b565b80601f0160208091040260200160405190810160405280929190818152602001828054610a4d9061199b565b8015610a9a5780601f10610a6f57610100808354040283529160200191610a9a565b820191906000526020600020905b815481529060010190602001808311610a7d57829003601f168201915b505050505090806003018054610aaf9061199b565b80601f0160208091040260200160405190810160405280929190818152602001828054610adb9061199b565b8015610b285780601f10610afd57610100808354040283529160200191610b28565b820191906000526020600020905b815481529060010190602001808311610b0b57829003601f168201915b5050505050908060040154908060050154908060060154905087565b60008054906101000a900473ffffffffffffffffffffffffffffffffffffffff1681565b6000600780549050905090565b60068181548110610b8557600080fd5b90600052602060002090600702016000915090508060000154908060010160009054906101000a900473ffffffffffffffffffffffffffffffffffffffff1690806002018054610bd49061199b565b80601f0160208091040260200160405190810160405280929190818152602001828054610c009061199b565b8015610c4d5780601f10610c2257610100808354040283529160200191610c4d565b820191906000526020600020905b815481529060010190602001808311610c3057829003601f168201915b505050505090806003018054610c629061199b565b80601f0160208091040260200160405190810160405280929190818152602001828054610c8e9061199b565b8015610cdb5780601f10610cb057610100808354040283529160200191610cdb565b820191906000526020600020905b815481529060010190602001808311610cbe57829003601f168201915b5050505050908060040154908060050154908060060154905087565b60066040518060e0016040528060068054905081526020013373ffffffffffffffffffffffffffffffffffffffff168152602001868152602001858152602001428152602001603c85610d4a9190611dc8565b42610d559190611e0a565b8152602001603c84610d679190611dc8565b42610d729190611e0a565b81525090806001815401808255809150506001900390600052602060002090600702016000909190919091506000820151816000015560208201518160010160006101000a81548173ffffffffffffffffffffffffffffffffffffffff021916908373ffffffffffffffffffffffffffffffffffffffff1602179055506040820151816002019081610e049190611cf6565b506060820151816003019081610e1a9190611cf6565b506080820151816004015560a0820151816005015560c08201518160060155505050505050565b600073ffffffffffffffffffffffffffffffffffffffff163373ffffffffffffffffffffffffffffffffffffffff1603610eb0576040517f08c379a0000000000000000000000000000000000000000000000000000000008152600401610ea790611e8a565b60405180910390fd5b60003411610ef3576040517f08c379a0000000000000000000000000000000000000000000000000000000008152600401610eea90611ef6565b60405180910390fd5b343373ffffffffffffffffffffffffffffffffffffffff16311015610f4d576040517f08c379a0000000000000000000000000000000000000000000000000000000008152600401610f4490611f62565b60405180910390fd5b60008054906101000a900473ffffffffffffffffffffffffffffffffffffffff1673ffffffffffffffffffffffffffffffffffffffff163373ffffffffffffffffffffffffffffffffffffffff1603610fdb576040517f08c379a0000000000000000000000000000000000000000000000000000000008152600401610fd290611fce565b60405180910390fd5b60008054906101000a900473ffffffffffffffffffffffffffffffffffffffff1673ffffffffffffffffffffffffffffffffffffffff166108fc349081150290604051600060405180830381858888f19350505050158015611041573d6000803e3d6000fd5b50565b50565b6000600680549050905090565b60076040518060e0016040528060078054905081526020013373ffffffffffffffffffffffffffffffffffffffff168152602001858152602001848152602001428152602001603c846110a79190611dc8565b426110b29190611e0a565b8152602001600081525090806001815401808255809150506001900390600052602060002090600702016000909190919091506000820151816000015560208201518160010160006101000a81548173ffffffffffffffffffffffffffffffffffffffff021916908373ffffffffffffffffffffffffffffffffffffffff160217905550604082015181600201908161114b9190611cf6565b5060608201518160030190816111619190611cf6565b506080820151816004015560a0820151816005015560c082015181600601555050505050565b60016020528060005260406000206000915054906101000a900460ff1681565b600081519050919050565b600082825260208201905092915050565b6000819050602082019050919050565b6000819050919050565b6111e6816111d3565b82525050565b600073ffffffffffffffffffffffffffffffffffffffff82169050919050565b6000611217826111ec565b9050919050565b6112278161120c565b82525050565b600081519050919050565b600082825260208201905092915050565b60005b8381101561126757808201518184015260208101905061124c565b60008484015250505050565b6000601f19601f8301169050919050565b600061128f8261122d565b6112998185611238565b93506112a9818560208601611249565b6112b281611273565b840191505092915050565b600060e0830160008301516112d560008601826111dd565b5060208301516112e8602086018261121e565b50604083015184820360408601526113008282611284565b9150506060830151848203606086015261131a8282611284565b915050608083015161132f60808601826111dd565b5060a083015161134260a08601826111dd565b5060c083015161135560c08601826111dd565b508091505092915050565b600061136c83836112bd565b905092915050565b6000602082019050919050565b600061138c826111a7565b61139681856111b2565b9350836020820285016113a8856111c3565b8060005b858110156113e457848403895281516113c58582611360565b94506113d083611374565b925060208a019950506001810190506113ac565b50829750879550505050505092915050565b600060208201905081810360008301526114108184611381565b905092915050565b6000604051905090565b600080fd5b600080fd5b611435816111d3565b811461144057600080fd5b50565b6000813590506114528161142c565b92915050565b60006020828403121561146e5761146d611422565b5b600061147c84828501611443565b91505092915050565b61148e8161120c565b811461149957600080fd5b50565b6000813590506114ab81611485565b92915050565b6000602082840312156114c7576114c6611422565b5b60006114d58482850161149c565b91505092915050565b600082825260208201905092915050565b60006114fa8261122d565b61150481856114de565b9350611514818560208601611249565b61151d81611273565b840191505092915050565b611531816111d3565b82525050565b6000606082019050818103600083015261155181866114ef565b9050818103602083015261156581856114ef565b90506115746040830184611528565b949350505050565b600080fd5b600080fd5b7f4e487b7100000000000000000000000000000000000000000000000000000000600052604160045260246000fd5b6115be82611273565b810181811067ffffffffffffffff821117156115dd576115dc611586565b5b80604052505050565b60006115f0611418565b90506115fc82826115b5565b919050565b600067ffffffffffffffff82111561161c5761161b611586565b5b61162582611273565b9050602081019050919050565b82818337600083830152505050565b600061165461164f84611601565b6115e6565b9050828152602081018484840111156116705761166f611581565b5b61167b848285611632565b509392505050565b600082601f8301126116985761169761157c565b5b81356116a8848260208601611641565b91505092915050565b600080604083850312156116c8576116c7611422565b5b600083013567ffffffffffffffff8111156116e6576116e5611427565b5b6116f285828601611683565b925050602083013567ffffffffffffffff81111561171357611712611427565b5b61171f85828601611683565b9150509250929050565b6117328161120c565b82525050565b600060e08201905061174d600083018a611528565b61175a6020830189611729565b818103604083015261176c81886114ef565b9050818103606083015261178081876114ef565b905061178f6080830186611528565b61179c60a0830185611528565b6117a960c0830184611528565b98975050505050505050565b60006117c0826111ec565b9050919050565b6117d0816117b5565b82525050565b60006020820190506117eb60008301846117c7565b92915050565b60006020820190506118066000830184611528565b92915050565b6000806000806080858703121561182657611825611422565b5b600085013567ffffffffffffffff81111561184457611843611427565b5b61185087828801611683565b945050602085013567ffffffffffffffff81111561187157611870611427565b5b61187d87828801611683565b935050604061188e87828801611443565b925050606061189f87828801611443565b91505092959194509250565b6000806000606084860312156118c4576118c3611422565b5b600084013567ffffffffffffffff8111156118e2576118e1611427565b5b6118ee86828701611683565b935050602084013567ffffffffffffffff81111561190f5761190e611427565b5b61191b86828701611683565b925050604061192c86828701611443565b9150509250925092565b60008115159050919050565b61194b81611936565b82525050565b60006020820190506119666000830184611942565b92915050565b7f4e487b7100000000000000000000000000000000000000000000000000000000600052602260045260246000fd5b600060028204905060018216806119b357607f821691505b6020821081036119c6576119c561196c565b5b50919050565b7f796f7520616c72656164792077726974652074686973207065746974696f6e00600082015250565b6000611a02601f836114de565b9150611a0d826119cc565b602082019050919050565b60006020820190508181036000830152611a31816119f5565b9050919050565b7f4e487b7100000000000000000000000000000000000000000000000000000000600052603260045260246000fd5b7f4e487b7100000000000000000000000000000000000000000000000000000000600052601160045260246000fd5b6000611aa1826111d3565b91507fffffffffffffffffffffffffffffffffffffffffffffffffffffffffffffffff8203611ad357611ad2611a67565b5b600182019050919050565b7f796f7520616c7265616479207265676973747265640000000000000000000000600082015250565b6000611b146015836114de565b9150611b1f82611ade565b602082019050919050565b60006020820190508181036000830152611b4381611b07565b9050919050565b60008190508160005260206000209050919050565b60006020601f8301049050919050565b600082821b905092915050565b600060088302611bac7fffffffffffffffffffffffffffffffffffffffffffffffffffffffffffffffff82611b6f565b611bb68683611b6f565b95508019841693508086168417925050509392505050565b6000819050919050565b6000611bf3611bee611be9846111d3565b611bce565b6111d3565b9050919050565b6000819050919050565b611c0d83611bd8565b611c21611c1982611bfa565b848454611b7c565b825550505050565b600090565b611c36611c29565b611c41818484611c04565b505050565b5b81811015611c6557611c5a600082611c2e565b600181019050611c47565b5050565b601f821115611caa57611c7b81611b4a565b611c8484611b5f565b81016020851015611c93578190505b611ca7611c9f85611b5f565b830182611c46565b50505b505050565b600082821c905092915050565b6000611ccd60001984600802611caf565b1980831691505092915050565b6000611ce68383611cbc565b9150826002028217905092915050565b611cff8261122d565b67ffffffffffffffff811115611d1857611d17611586565b5b611d22825461199b565b611d2d828285611c69565b600060209050601f831160018114611d605760008415611d4e578287015190505b611d588582611cda565b865550611dc0565b601f198416611d6e86611b4a565b60005b82811015611d9657848901518255600182019150602085019450602081019050611d71565b86831015611db35784890151611daf601f891682611cbc565b8355505b6001600288020188555050505b505050505050565b6000611dd3826111d3565b9150611dde836111d3565b9250828202611dec816111d3565b91508282048414831517611e0357611e02611a67565b5b5092915050565b6000611e15826111d3565b9150611e20836111d3565b9250828201905080821115611e3857611e37611a67565b5b92915050565b7f596f75722061646472657373206e6f7420666f756e6421000000000000000000600082015250565b6000611e746017836114de565b9150611e7f82611e3e565b602082019050919050565b60006020820190508181036000830152611ea381611e67565b9050919050565b7f302066756e64732073656e740000000000000000000000000000000000000000600082015250565b6000611ee0600c836114de565b9150611eeb82611eaa565b602082019050919050565b60006020820190508181036000830152611f0f81611ed3565b9050919050565b7f6e6f206d6f6e6579206e6f2066756e6e79000000000000000000000000000000600082015250565b6000611f4c6011836114de565b9150611f5782611f16565b602082019050919050565b60006020820190508181036000830152611f7b81611f3f565b9050919050565b7f796f75207472757374206f776e65722058440000000000000000000000000000600082015250565b6000611fb86012836114de565b9150611fc382611f82565b602082019050919050565b60006020820190508181036000830152611fe781611fab565b905091905056fea26469706673582212209ce1091332b66919865cfb6ed70004aabe0b287b1b4036dd74253bc71ca61ffc64736f6c63430008180033",
  "linkReferences": {},
  "deployedLinkReferences": {}
}