{
  "_format": "hh-sol-artifact-1",
  "contractName": "VoteDapp",
  "sourceName": "contracts/VoteDapp.sol",
  "abi": [
    {
      "inputs": [],
      "stateMutability": "nonpayable",
      "type": "constructor"
    },
    {
      "inputs": [],
      "name": "Donate",
      "outputs": [],
      "stateMutability": "payable",
      "type": "function"
    },
    {
      "inputs": [
        {
          "internalType": "uint256",
          "name": "idVote",
          "type": "uint256"
        }
      ],
      "name": "addCandidate",
      "outputs": [],
      "stateMutability": "nonpayable",
      "type": "function"
    },
    {
      "inputs": [
        {
          "internalType": "string",
          "name": "_name",
          "type": "string"
        },
        {
          "internalType": "string",
          "name": "_description",
          "type": "string"
        },
        {
          "internalType": "uint256",
          "name": "_daysToVote",
          "type": "uint256"
        }
      ],
      "name": "addPetition",
      "outputs": [],
      "stateMutability": "nonpayable",
      "type": "function"
    },
    {
      "inputs": [
        {
          "internalType": "string",
          "name": "_name",
          "type": "string"
        },
        {
          "internalType": "string",
          "name": "_description",
          "type": "string"
        },
        {
          "internalType": "uint256",
          "name": "_timeToJoin",
          "type": "uint256"
        },
        {
          "internalType": "uint256",
          "name": "_daysToVote",
          "type": "uint256"
        }
      ],
      "name": "addVote",
      "outputs": [],
      "stateMutability": "nonpayable",
      "type": "function"
    },
    {
      "inputs": [],
      "name": "autoTh",
      "outputs": [
        {
          "components": [
            {
              "internalType": "uint256",
              "name": "id",
              "type": "uint256"
            },
            {
              "internalType": "string",
              "name": "name",
              "type": "string"
            },
            {
              "internalType": "string",
              "name": "description",
              "type": "string"
            },
            {
              "internalType": "uint256",
              "name": "timeReg",
              "type": "uint256"
            }
          ],
          "internalType": "struct VoteDapp.User",
          "name": "",
          "type": "tuple"
        }
      ],
      "stateMutability": "view",
      "type": "function"
    },
    {
      "inputs": [],
      "name": "owner",
      "outputs": [
        {
          "internalType": "address payable",
          "name": "",
          "type": "address"
        }
      ],
      "stateMutability": "view",
      "type": "function"
    },
    {
      "inputs": [
        {
          "internalType": "string",
          "name": "_name",
          "type": "string"
        }
      ],
      "name": "reg",
      "outputs": [],
      "stateMutability": "nonpayable",
      "type": "function"
    },
    {
      "inputs": [],
      "name": "usersCount",
      "outputs": [
        {
          "internalType": "uint256",
          "name": "",
          "type": "uint256"
        }
      ],
      "stateMutability": "view",
      "type": "function"
    },
    {
      "inputs": [],
      "name": "viewPoll",
      "outputs": [
        {
          "components": [
            {
              "internalType": "uint256",
              "name": "idCreator",
              "type": "uint256"
            },
            {
              "internalType": "uint256",
              "name": "id",
              "type": "uint256"
            },
            {
              "internalType": "string",
              "name": "name",
              "type": "string"
            },
            {
              "internalType": "string",
              "name": "description",
              "type": "string"
            },
            {
              "internalType": "uint256",
              "name": "timeStart",
              "type": "uint256"
            },
            {
              "internalType": "uint256",
              "name": "timeToJoin",
              "type": "uint256"
            },
            {
              "internalType": "uint256",
              "name": "timeEnd",
              "type": "uint256"
            }
          ],
          "internalType": "struct VoteDapp.Vote[]",
          "name": "",
          "type": "tuple[]"
        }
      ],
      "stateMutability": "view",
      "type": "function"
    }
  ],
  "bytecode": "0x60806040523480156200001157600080fd5b50336000806101000a81548173ffffffffffffffffffffffffffffffffffffffff021916908373ffffffffffffffffffffffffffffffffffffffff160217905550600154600360003373ffffffffffffffffffffffffffffffffffffffff1673ffffffffffffffffffffffffffffffffffffffff168152602001908152602001600020819055506001600260003373ffffffffffffffffffffffffffffffffffffffff1673ffffffffffffffffffffffffffffffffffffffff16815260200190815260200160002060006101000a81548160ff021916908315150217905550600154600360003373ffffffffffffffffffffffffffffffffffffffff1673ffffffffffffffffffffffffffffffffffffffff168152602001908152602001600020819055506040518060800160405280600360003373ffffffffffffffffffffffffffffffffffffffff1673ffffffffffffffffffffffffffffffffffffffff1681526020019081526020016000205481526020016040518060400160405280600581526020017f4f776e657200000000000000000000000000000000000000000000000000000081525081526020016040518060400160405280601c81526020017f49276d206f776e657220746869732073797374656d205541484148410000000081525081526020014281525060046000600360003373ffffffffffffffffffffffffffffffffffffffff1673ffffffffffffffffffffffffffffffffffffffff16815260200190815260200160002054815260200190815260200160002060008201518160000155602082015181600101908162000273919062000533565b5060408201518160020190816200028b919062000533565b506060820151816003015590505060016000815480929190620002ae9062000649565b919050555062000696565b600081519050919050565b7f4e487b7100000000000000000000000000000000000000000000000000000000600052604160045260246000fd5b7f4e487b7100000000000000000000000000000000000000000000000000000000600052602260045260246000fd5b600060028204905060018216806200033b57607f821691505b602082108103620003515762000350620002f3565b5b50919050565b60008190508160005260206000209050919050565b60006020601f8301049050919050565b600082821b905092915050565b600060088302620003bb7fffffffffffffffffffffffffffffffffffffffffffffffffffffffffffffffff826200037c565b620003c786836200037c565b95508019841693508086168417925050509392505050565b6000819050919050565b6000819050919050565b6000620004146200040e6200040884620003df565b620003e9565b620003df565b9050919050565b6000819050919050565b6200043083620003f3565b620004486200043f826200041b565b84845462000389565b825550505050565b600090565b6200045f62000450565b6200046c81848462000425565b505050565b5b8181101562000494576200048860008262000455565b60018101905062000472565b5050565b601f821115620004e357620004ad8162000357565b620004b8846200036c565b81016020851015620004c8578190505b620004e0620004d7856200036c565b83018262000471565b50505b505050565b600082821c905092915050565b60006200050860001984600802620004e8565b1980831691505092915050565b6000620005238383620004f5565b9150826002028217905092915050565b6200053e82620002b9565b67ffffffffffffffff8111156200055a5762000559620002c4565b5b62000566825462000322565b6200057382828562000498565b600060209050601f831160018114620005ab576000841562000596578287015190505b620005a2858262000515565b86555062000612565b601f198416620005bb8662000357565b60005b82811015620005e557848901518255600182019150602085019450602081019050620005be565b8683101562000605578489015162000601601f891682620004f5565b8355505b6001600288020188555050505b505050505050565b7f4e487b7100000000000000000000000000000000000000000000000000000000600052601160045260246000fd5b60006200065682620003df565b91507fffffffffffffffffffffffffffffffffffffffffffffffffffffffffffffffff82036200068b576200068a6200061a565b5b600182019050919050565b611f6a80620006a66000396000f3fe6080604052600436106100865760003560e01c8063b891aa5511610059578063b891aa5514610135578063c5ff1b4414610160578063d917deb514610189578063e844d09714610193578063f43f30d8146101bc57610086565b80631d234dea1461008b5780634708293e146100b65780636ba13a82146100df5780638da5cb5b1461010a575b600080fd5b34801561009757600080fd5b506100a06101e5565b6040516100ad9190611487565b60405180910390f35b3480156100c257600080fd5b506100dd60048036038101906100d891906115f2565b61039a565b005b3480156100eb57600080fd5b506100f461070e565b604051610101919061164a565b60405180910390f35b34801561011657600080fd5b5061011f610714565b60405161012c91906116a6565b60405180910390f35b34801561014157600080fd5b5061014a610738565b604051610157919061172b565b60405180910390f35b34801561016c57600080fd5b5061018760048036038101906101829190611779565b610a21565b005b610191610c9e565b005b34801561019f57600080fd5b506101ba60048036038101906101b59190611818565b610ea1565b005b3480156101c857600080fd5b506101e360048036038101906101de9190611845565b610feb565b005b60606007805480602002602001604051908101604052809291908181526020016000905b8282101561039157838290600052602060002090600702016040518060e00160405290816000820154815260200160018201548152602001600282018054610250906118ff565b80601f016020809104026020016040519081016040528092919081815260200182805461027c906118ff565b80156102c95780601f1061029e576101008083540402835291602001916102c9565b820191906000526020600020905b8154815290600101906020018083116102ac57829003601f168201915b505050505081526020016003820180546102e2906118ff565b80601f016020809104026020016040519081016040528092919081815260200182805461030e906118ff565b801561035b5780601f106103305761010080835404028352916020019161035b565b820191906000526020600020905b81548152906001019060200180831161033e57829003601f168201915b50505050508152602001600482015481526020016005820154815260200160068201548152505081526020019060010190610209565b50505050905090565b600073ffffffffffffffffffffffffffffffffffffffff163373ffffffffffffffffffffffffffffffffffffffff1603610409576040517f08c379a00000000000000000000000000000000000000000000000000000000081526004016104009061198d565b60405180910390fd5b600060011515811515036104af5760011515600260003373ffffffffffffffffffffffffffffffffffffffff1673ffffffffffffffffffffffffffffffffffffffff16815260200190815260200160002060009054906101000a900460ff161515146104aa576040517f08c379a00000000000000000000000000000000000000000000000000000000081526004016104a1906119f9565b60405180910390fd5b610550565b600015158115150361054f5760001515600260003373ffffffffffffffffffffffffffffffffffffffff1673ffffffffffffffffffffffffffffffffffffffff16815260200190815260200160002060009054906101000a900460ff1615151461054e576040517f08c379a000000000000000000000000000000000000000000000000000000000815260040161054590611a65565b60405180910390fd5b5b5b600154600360003373ffffffffffffffffffffffffffffffffffffffff1673ffffffffffffffffffffffffffffffffffffffff168152602001908152602001600020819055506040518060800160405280600360003373ffffffffffffffffffffffffffffffffffffffff1673ffffffffffffffffffffffffffffffffffffffff1681526020019081526020016000205481526020018381526020016040518060200160405280600081525081526020014281525060046000600360003373ffffffffffffffffffffffffffffffffffffffff1673ffffffffffffffffffffffffffffffffffffffff1681526020019081526020016000205481526020019081526020016000206000820151816000015560208201518160010190816106769190611c31565b50604082015181600201908161068c9190611c31565b50606082015181600301559050506001600260003373ffffffffffffffffffffffffffffffffffffffff1673ffffffffffffffffffffffffffffffffffffffff16815260200190815260200160002060006101000a81548160ff0219169083151502179055506001600081548092919061070590611d32565b91905055505050565b60015481565b60008054906101000a900473ffffffffffffffffffffffffffffffffffffffff1681565b610740611251565b6001801515811515036107e55760011515600260003373ffffffffffffffffffffffffffffffffffffffff1673ffffffffffffffffffffffffffffffffffffffff16815260200190815260200160002060009054906101000a900460ff161515146107e0576040517f08c379a00000000000000000000000000000000000000000000000000000000081526004016107d7906119f9565b60405180910390fd5b610886565b60001515811515036108855760001515600260003373ffffffffffffffffffffffffffffffffffffffff1673ffffffffffffffffffffffffffffffffffffffff16815260200190815260200160002060009054906101000a900460ff16151514610884576040517f08c379a000000000000000000000000000000000000000000000000000000000815260040161087b90611a65565b60405180910390fd5b5b5b60046000600360003373ffffffffffffffffffffffffffffffffffffffff1673ffffffffffffffffffffffffffffffffffffffff168152602001908152602001600020548152602001908152602001600020604051806080016040529081600082015481526020016001820180546108fd906118ff565b80601f0160208091040260200160405190810160405280929190818152602001828054610929906118ff565b80156109765780601f1061094b57610100808354040283529160200191610976565b820191906000526020600020905b81548152906001019060200180831161095957829003601f168201915b5050505050815260200160028201805461098f906118ff565b80601f01602080910402602001604051908101604052809291908181526020018280546109bb906118ff565b8015610a085780601f106109dd57610100808354040283529160200191610a08565b820191906000526020600020905b8154815290600101906020018083116109eb57829003601f168201915b5050505050815260200160038201548152505091505090565b600180151581151503610ac65760011515600260003373ffffffffffffffffffffffffffffffffffffffff1673ffffffffffffffffffffffffffffffffffffffff16815260200190815260200160002060009054906101000a900460ff16151514610ac1576040517f08c379a0000000000000000000000000000000000000000000000000000000008152600401610ab8906119f9565b60405180910390fd5b610b67565b6000151581151503610b665760001515600260003373ffffffffffffffffffffffffffffffffffffffff1673ffffffffffffffffffffffffffffffffffffffff16815260200190815260200160002060009054906101000a900460ff16151514610b65576040517f08c379a0000000000000000000000000000000000000000000000000000000008152600401610b5c90611a65565b60405180910390fd5b5b5b60076040518060e00160405280600360003373ffffffffffffffffffffffffffffffffffffffff1673ffffffffffffffffffffffffffffffffffffffff1681526020019081526020016000205481526020016007805490508152602001878152602001868152602001428152602001603c86610be39190611d7a565b42610bee9190611dbc565b8152602001603c85610c009190611d7a565b42610c0b9190611dbc565b815250908060018154018082558091505060019003906000526020600020906007020160009091909190915060008201518160000155602082015181600101556040820151816002019081610c609190611c31565b506060820151816003019081610c769190611c31565b506080820151816004015560a0820151816005015560c0820151816006015550505050505050565b600073ffffffffffffffffffffffffffffffffffffffff163373ffffffffffffffffffffffffffffffffffffffff1603610d0d576040517f08c379a0000000000000000000000000000000000000000000000000000000008152600401610d049061198d565b60405180910390fd5b60003411610d50576040517f08c379a0000000000000000000000000000000000000000000000000000000008152600401610d4790611e3c565b60405180910390fd5b343373ffffffffffffffffffffffffffffffffffffffff16311015610daa576040517f08c379a0000000000000000000000000000000000000000000000000000000008152600401610da190611ea8565b60405180910390fd5b60008054906101000a900473ffffffffffffffffffffffffffffffffffffffff1673ffffffffffffffffffffffffffffffffffffffff163373ffffffffffffffffffffffffffffffffffffffff1603610e38576040517f08c379a0000000000000000000000000000000000000000000000000000000008152600401610e2f90611f14565b60405180910390fd5b60008054906101000a900473ffffffffffffffffffffffffffffffffffffffff1673ffffffffffffffffffffffffffffffffffffffff166108fc349081150290604051600060405180830381858888f19350505050158015610e9e573d6000803e3d6000fd5b50565b600180151581151503610f465760011515600260003373ffffffffffffffffffffffffffffffffffffffff1673ffffffffffffffffffffffffffffffffffffffff16815260200190815260200160002060009054906101000a900460ff16151514610f41576040517f08c379a0000000000000000000000000000000000000000000000000000000008152600401610f38906119f9565b60405180910390fd5b610fe7565b6000151581151503610fe65760001515600260003373ffffffffffffffffffffffffffffffffffffffff1673ffffffffffffffffffffffffffffffffffffffff16815260200190815260200160002060009054906101000a900460ff16151514610fe5576040517f08c379a0000000000000000000000000000000000000000000000000000000008152600401610fdc90611a65565b60405180910390fd5b5b5b5050565b6001801515811515036110905760011515600260003373ffffffffffffffffffffffffffffffffffffffff1673ffffffffffffffffffffffffffffffffffffffff16815260200190815260200160002060009054906101000a900460ff1615151461108b576040517f08c379a0000000000000000000000000000000000000000000000000000000008152600401611082906119f9565b60405180910390fd5b611131565b60001515811515036111305760001515600260003373ffffffffffffffffffffffffffffffffffffffff1673ffffffffffffffffffffffffffffffffffffffff16815260200190815260200160002060009054906101000a900460ff1615151461112f576040517f08c379a000000000000000000000000000000000000000000000000000000000815260040161112690611a65565b60405180910390fd5b5b5b60086040518060e00160405280600360003373ffffffffffffffffffffffffffffffffffffffff1673ffffffffffffffffffffffffffffffffffffffff1681526020019081526020016000205481526020016008805490508152602001868152602001858152602001428152602001603c856111ad9190611d7a565b426111b89190611dbc565b815260200160008152509080600181540180825580915050600190039060005260206000209060070201600090919091909150600082015181600001556020820151816001015560408201518160020190816112149190611c31565b50606082015181600301908161122a9190611c31565b506080820151816004015560a0820151816005015560c08201518160060155505050505050565b6040518060800160405280600081526020016060815260200160608152602001600081525090565b600081519050919050565b600082825260208201905092915050565b6000819050602082019050919050565b6000819050919050565b6112b8816112a5565b82525050565b600081519050919050565b600082825260208201905092915050565b60005b838110156112f85780820151818401526020810190506112dd565b60008484015250505050565b6000601f19601f8301169050919050565b6000611320826112be565b61132a81856112c9565b935061133a8185602086016112da565b61134381611304565b840191505092915050565b600060e08301600083015161136660008601826112af565b50602083015161137960208601826112af565b50604083015184820360408601526113918282611315565b915050606083015184820360608601526113ab8282611315565b91505060808301516113c060808601826112af565b5060a08301516113d360a08601826112af565b5060c08301516113e660c08601826112af565b508091505092915050565b60006113fd838361134e565b905092915050565b6000602082019050919050565b600061141d82611279565b6114278185611284565b93508360208202850161143985611295565b8060005b85811015611475578484038952815161145685826113f1565b945061146183611405565b925060208a0199505060018101905061143d565b50829750879550505050505092915050565b600060208201905081810360008301526114a18184611412565b905092915050565b6000604051905090565b600080fd5b600080fd5b600080fd5b600080fd5b7f4e487b7100000000000000000000000000000000000000000000000000000000600052604160045260246000fd5b6114ff82611304565b810181811067ffffffffffffffff8211171561151e5761151d6114c7565b5b80604052505050565b60006115316114a9565b905061153d82826114f6565b919050565b600067ffffffffffffffff82111561155d5761155c6114c7565b5b61156682611304565b9050602081019050919050565b82818337600083830152505050565b600061159561159084611542565b611527565b9050828152602081018484840111156115b1576115b06114c2565b5b6115bc848285611573565b509392505050565b600082601f8301126115d9576115d86114bd565b5b81356115e9848260208601611582565b91505092915050565b600060208284031215611608576116076114b3565b5b600082013567ffffffffffffffff811115611626576116256114b8565b5b611632848285016115c4565b91505092915050565b611644816112a5565b82525050565b600060208201905061165f600083018461163b565b92915050565b600073ffffffffffffffffffffffffffffffffffffffff82169050919050565b600061169082611665565b9050919050565b6116a081611685565b82525050565b60006020820190506116bb6000830184611697565b92915050565b60006080830160008301516116d960008601826112af565b50602083015184820360208601526116f18282611315565b9150506040830151848203604086015261170b8282611315565b915050606083015161172060608601826112af565b508091505092915050565b6000602082019050818103600083015261174581846116c1565b905092915050565b611756816112a5565b811461176157600080fd5b50565b6000813590506117738161174d565b92915050565b60008060008060808587031215611793576117926114b3565b5b600085013567ffffffffffffffff8111156117b1576117b06114b8565b5b6117bd878288016115c4565b945050602085013567ffffffffffffffff8111156117de576117dd6114b8565b5b6117ea878288016115c4565b93505060406117fb87828801611764565b925050606061180c87828801611764565b91505092959194509250565b60006020828403121561182e5761182d6114b3565b5b600061183c84828501611764565b91505092915050565b60008060006060848603121561185e5761185d6114b3565b5b600084013567ffffffffffffffff81111561187c5761187b6114b8565b5b611888868287016115c4565b935050602084013567ffffffffffffffff8111156118a9576118a86114b8565b5b6118b5868287016115c4565b92505060406118c686828701611764565b9150509250925092565b7f4e487b7100000000000000000000000000000000000000000000000000000000600052602260045260246000fd5b6000600282049050600182168061191757607f821691505b60208210810361192a576119296118d0565b5b50919050565b600082825260208201905092915050565b7f596f75722061646472657373206e6f7420666f756e6421000000000000000000600082015250565b6000611977601783611930565b915061198282611941565b602082019050919050565b600060208201905081810360008301526119a68161196a565b9050919050565b7f75736572206e6f74207265672100000000000000000000000000000000000000600082015250565b60006119e3600d83611930565b91506119ee826119ad565b602082019050919050565b60006020820190508181036000830152611a12816119d6565b9050919050565b7f7573657220616c72656164792072656721000000000000000000000000000000600082015250565b6000611a4f601183611930565b9150611a5a82611a19565b602082019050919050565b60006020820190508181036000830152611a7e81611a42565b9050919050565b60008190508160005260206000209050919050565b60006020601f8301049050919050565b600082821b905092915050565b600060088302611ae77fffffffffffffffffffffffffffffffffffffffffffffffffffffffffffffffff82611aaa565b611af18683611aaa565b95508019841693508086168417925050509392505050565b6000819050919050565b6000611b2e611b29611b24846112a5565b611b09565b6112a5565b9050919050565b6000819050919050565b611b4883611b13565b611b5c611b5482611b35565b848454611ab7565b825550505050565b600090565b611b71611b64565b611b7c818484611b3f565b505050565b5b81811015611ba057611b95600082611b69565b600181019050611b82565b5050565b601f821115611be557611bb681611a85565b611bbf84611a9a565b81016020851015611bce578190505b611be2611bda85611a9a565b830182611b81565b50505b505050565b600082821c905092915050565b6000611c0860001984600802611bea565b1980831691505092915050565b6000611c218383611bf7565b9150826002028217905092915050565b611c3a826112be565b67ffffffffffffffff811115611c5357611c526114c7565b5b611c5d82546118ff565b611c68828285611ba4565b600060209050601f831160018114611c9b5760008415611c89578287015190505b611c938582611c15565b865550611cfb565b601f198416611ca986611a85565b60005b82811015611cd157848901518255600182019150602085019450602081019050611cac565b86831015611cee5784890151611cea601f891682611bf7565b8355505b6001600288020188555050505b505050505050565b7f4e487b7100000000000000000000000000000000000000000000000000000000600052601160045260246000fd5b6000611d3d826112a5565b91507fffffffffffffffffffffffffffffffffffffffffffffffffffffffffffffffff8203611d6f57611d6e611d03565b5b600182019050919050565b6000611d85826112a5565b9150611d90836112a5565b9250828202611d9e816112a5565b91508282048414831517611db557611db4611d03565b5b5092915050565b6000611dc7826112a5565b9150611dd2836112a5565b9250828201905080821115611dea57611de9611d03565b5b92915050565b7f302066756e64732073656e740000000000000000000000000000000000000000600082015250565b6000611e26600c83611930565b9150611e3182611df0565b602082019050919050565b60006020820190508181036000830152611e5581611e19565b9050919050565b7f6e6f206d6f6e6579206e6f2066756e6e79000000000000000000000000000000600082015250565b6000611e92601183611930565b9150611e9d82611e5c565b602082019050919050565b60006020820190508181036000830152611ec181611e85565b9050919050565b7f796f75207472757374206f776e65722058440000000000000000000000000000600082015250565b6000611efe601283611930565b9150611f0982611ec8565b602082019050919050565b60006020820190508181036000830152611f2d81611ef1565b905091905056fea26469706673582212204e9afca75e26908b1434f5750578ee53449ebca12478c3d9b52be3ff2de725a364736f6c63430008180033",
  "linkReferences": {},
  "deployedLinkReferences": {}
}