{
  "_format": "hh-sol-artifact-1",
  "contractName": "VoteDapp",
  "sourceName": "contracts/VoteDapp.sol",
  "abi": [
    {
      "inputs": [],
      "stateMutability": "nonpayable",
      "type": "constructor"
    },
    {
      "inputs": [],
      "name": "Donate",
      "outputs": [],
      "stateMutability": "payable",
      "type": "function"
    },
    {
      "inputs": [
        {
          "internalType": "uint256",
          "name": "idVote",
          "type": "uint256"
        }
      ],
      "name": "addCandidate",
      "outputs": [],
      "stateMutability": "nonpayable",
      "type": "function"
    },
    {
      "inputs": [
        {
          "internalType": "string",
          "name": "_name",
          "type": "string"
        },
        {
          "internalType": "string",
          "name": "_description",
          "type": "string"
        },
        {
          "internalType": "uint256",
          "name": "_daysToVote",
          "type": "uint256"
        }
      ],
      "name": "addPetition",
      "outputs": [],
      "stateMutability": "nonpayable",
      "type": "function"
    },
    {
      "inputs": [
        {
          "internalType": "string",
          "name": "_name",
          "type": "string"
        },
        {
          "internalType": "string",
          "name": "_description",
          "type": "string"
        },
        {
          "internalType": "uint256",
          "name": "_timeToJoin",
          "type": "uint256"
        },
        {
          "internalType": "uint256",
          "name": "_daysToVote",
          "type": "uint256"
        }
      ],
      "name": "addVote",
      "outputs": [],
      "stateMutability": "nonpayable",
      "type": "function"
    },
    {
      "inputs": [],
      "name": "owner",
      "outputs": [
        {
          "internalType": "address payable",
          "name": "",
          "type": "address"
        }
      ],
      "stateMutability": "view",
      "type": "function"
    },
    {
      "inputs": [
        {
          "internalType": "uint256",
          "name": "",
          "type": "uint256"
        }
      ],
      "name": "petitionsMas",
      "outputs": [
        {
          "internalType": "uint256",
          "name": "id",
          "type": "uint256"
        },
        {
          "internalType": "address",
          "name": "creator",
          "type": "address"
        },
        {
          "internalType": "string",
          "name": "name",
          "type": "string"
        },
        {
          "internalType": "string",
          "name": "description",
          "type": "string"
        },
        {
          "internalType": "uint256",
          "name": "timeStart",
          "type": "uint256"
        },
        {
          "internalType": "uint256",
          "name": "timeEnd",
          "type": "uint256"
        },
        {
          "internalType": "uint256",
          "name": "votes",
          "type": "uint256"
        }
      ],
      "stateMutability": "view",
      "type": "function"
    },
    {
      "inputs": [
        {
          "internalType": "string",
          "name": "_name",
          "type": "string"
        },
        {
          "internalType": "string",
          "name": "_description",
          "type": "string"
        }
      ],
      "name": "reg",
      "outputs": [],
      "stateMutability": "nonpayable",
      "type": "function"
    },
    {
      "inputs": [
        {
          "internalType": "address",
          "name": "",
          "type": "address"
        }
      ],
      "name": "regStatus",
      "outputs": [
        {
          "internalType": "bool",
          "name": "",
          "type": "bool"
        }
      ],
      "stateMutability": "view",
      "type": "function"
    },
    {
      "inputs": [
        {
          "internalType": "address",
          "name": "",
          "type": "address"
        }
      ],
      "name": "userMap",
      "outputs": [
        {
          "internalType": "string",
          "name": "name",
          "type": "string"
        },
        {
          "internalType": "string",
          "name": "description",
          "type": "string"
        },
        {
          "internalType": "uint256",
          "name": "timeReg",
          "type": "uint256"
        }
      ],
      "stateMutability": "view",
      "type": "function"
    },
    {
      "inputs": [],
      "name": "viewPoll",
      "outputs": [
        {
          "components": [
            {
              "internalType": "uint256",
              "name": "id",
              "type": "uint256"
            },
            {
              "internalType": "address",
              "name": "creator",
              "type": "address"
            },
            {
              "internalType": "string",
              "name": "name",
              "type": "string"
            },
            {
              "internalType": "string",
              "name": "description",
              "type": "string"
            },
            {
              "internalType": "uint256",
              "name": "timeStart",
              "type": "uint256"
            },
            {
              "internalType": "uint256",
              "name": "timeToJoin",
              "type": "uint256"
            },
            {
              "internalType": "uint256",
              "name": "timeEnd",
              "type": "uint256"
            }
          ],
          "internalType": "struct VoteDapp.Vote[]",
          "name": "",
          "type": "tuple[]"
        }
      ],
      "stateMutability": "view",
      "type": "function"
    },
    {
      "inputs": [
        {
          "internalType": "uint256",
          "name": "",
          "type": "uint256"
        }
      ],
      "name": "votesMas",
      "outputs": [
        {
          "internalType": "uint256",
          "name": "id",
          "type": "uint256"
        },
        {
          "internalType": "address",
          "name": "creator",
          "type": "address"
        },
        {
          "internalType": "string",
          "name": "name",
          "type": "string"
        },
        {
          "internalType": "string",
          "name": "description",
          "type": "string"
        },
        {
          "internalType": "uint256",
          "name": "timeStart",
          "type": "uint256"
        },
        {
          "internalType": "uint256",
          "name": "timeToJoin",
          "type": "uint256"
        },
        {
          "internalType": "uint256",
          "name": "timeEnd",
          "type": "uint256"
        }
      ],
      "stateMutability": "view",
      "type": "function"
    },
    {
      "inputs": [],
      "name": "writePetTest",
      "outputs": [],
      "stateMutability": "nonpayable",
      "type": "function"
    }
  ],
  "bytecode": "0x60806040523480156200001157600080fd5b50336000806101000a81548173ffffffffffffffffffffffffffffffffffffffff021916908373ffffffffffffffffffffffffffffffffffffffff16021790555060405180606001604052806040518060400160405280600581526020017f4f776e657200000000000000000000000000000000000000000000000000000081525081526020016040518060400160405280601c81526020017f49276d206f776e657220746869732073797374656d2055414841484100000000815250815260200142815250600260003373ffffffffffffffffffffffffffffffffffffffff1673ffffffffffffffffffffffffffffffffffffffff16815260200190815260200160002060008201518160000190816200012d9190620003d3565b506020820151816001019081620001459190620003d3565b5060408201518160020155905050620004ba565b600081519050919050565b7f4e487b7100000000000000000000000000000000000000000000000000000000600052604160045260246000fd5b7f4e487b7100000000000000000000000000000000000000000000000000000000600052602260045260246000fd5b60006002820490506001821680620001db57607f821691505b602082108103620001f157620001f062000193565b5b50919050565b60008190508160005260206000209050919050565b60006020601f8301049050919050565b600082821b905092915050565b6000600883026200025b7fffffffffffffffffffffffffffffffffffffffffffffffffffffffffffffffff826200021c565b6200026786836200021c565b95508019841693508086168417925050509392505050565b6000819050919050565b6000819050919050565b6000620002b4620002ae620002a8846200027f565b62000289565b6200027f565b9050919050565b6000819050919050565b620002d08362000293565b620002e8620002df82620002bb565b84845462000229565b825550505050565b600090565b620002ff620002f0565b6200030c818484620002c5565b505050565b5b81811015620003345762000328600082620002f5565b60018101905062000312565b5050565b601f82111562000383576200034d81620001f7565b62000358846200020c565b8101602085101562000368578190505b6200038062000377856200020c565b83018262000311565b50505b505050565b600082821c905092915050565b6000620003a86000198460080262000388565b1980831691505092915050565b6000620003c3838362000395565b9150826002028217905092915050565b620003de8262000159565b67ffffffffffffffff811115620003fa57620003f962000164565b5b620004068254620001c2565b6200041382828562000338565b600060209050601f8311600181146200044b576000841562000436578287015190505b620004428582620003b5565b865550620004b2565b601f1984166200045b86620001f7565b60005b8281101562000485578489015182556001820191506020850194506020810190506200045e565b86831015620004a55784890151620004a1601f89168262000395565b8355505b6001600288020188555050505b505050505050565b611cce80620004ca6000396000f3fe6080604052600436106100a75760003560e01c8063b848639611610064578063b8486396146101c4578063c5ff1b4414610207578063d917deb514610230578063e844d0971461023a578063f43f30d814610263578063f4bcbb6d1461028c576100a7565b80631d234dea146100ac5780632bcc23f8146100d757806373a4e4c31461011657806387ad137d1461013f5780638da5cb5b1461018257806391c9e0d2146101ad575b600080fd5b3480156100b857600080fd5b506100c16102c9565b6040516100ce919061119e565b60405180910390f35b3480156100e357600080fd5b506100fe60048036038101906100f99190611200565b6104ca565b60405161010d93929190611286565b60405180910390f35b34801561012257600080fd5b5061013d60048036038101906101389190611400565b610604565b005b34801561014b57600080fd5b50610166600480360381019061016191906114a4565b610782565b60405161017997969594939291906114e0565b60405180910390f35b34801561018e57600080fd5b50610197610904565b6040516101a4919061157e565b60405180910390f35b3480156101b957600080fd5b506101c2610928565b005b3480156101d057600080fd5b506101eb60048036038101906101e691906114a4565b61092a565b6040516101fe97969594939291906114e0565b60405180910390f35b34801561021357600080fd5b5061022e60048036038101906102299190611599565b610aac565b005b610238610bf6565b005b34801561024657600080fd5b50610261600480360381019061025c91906114a4565b610df9565b005b34801561026f57600080fd5b5061028a60048036038101906102859190611638565b610dfc565b005b34801561029857600080fd5b506102b360048036038101906102ae9190611200565b610f2f565b6040516102c091906116de565b60405180910390f35b60606005805480602002602001604051908101604052809291908181526020016000905b828210156104c157838290600052602060002090600702016040518060e0016040529081600082015481526020016001820160009054906101000a900473ffffffffffffffffffffffffffffffffffffffff1673ffffffffffffffffffffffffffffffffffffffff1673ffffffffffffffffffffffffffffffffffffffff16815260200160028201805461038090611728565b80601f01602080910402602001604051908101604052809291908181526020018280546103ac90611728565b80156103f95780601f106103ce576101008083540402835291602001916103f9565b820191906000526020600020905b8154815290600101906020018083116103dc57829003601f168201915b5050505050815260200160038201805461041290611728565b80601f016020809104026020016040519081016040528092919081815260200182805461043e90611728565b801561048b5780601f106104605761010080835404028352916020019161048b565b820191906000526020600020905b81548152906001019060200180831161046e57829003601f168201915b505050505081526020016004820154815260200160058201548152602001600682015481525050815260200190600101906102ed565b50505050905090565b60026020528060005260406000206000915090508060000180546104ed90611728565b80601f016020809104026020016040519081016040528092919081815260200182805461051990611728565b80156105665780601f1061053b57610100808354040283529160200191610566565b820191906000526020600020905b81548152906001019060200180831161054957829003601f168201915b50505050509080600101805461057b90611728565b80601f01602080910402602001604051908101604052809291908181526020018280546105a790611728565b80156105f45780601f106105c9576101008083540402835291602001916105f4565b820191906000526020600020905b8154815290600101906020018083116105d757829003601f168201915b5050505050908060020154905083565b60011515600160003373ffffffffffffffffffffffffffffffffffffffff1673ffffffffffffffffffffffffffffffffffffffff16815260200190815260200160002060009054906101000a900460ff16151503610697576040517f08c379a000000000000000000000000000000000000000000000000000000000815260040161068e906117a5565b60405180910390fd5b81600260003373ffffffffffffffffffffffffffffffffffffffff1673ffffffffffffffffffffffffffffffffffffffff16815260200190815260200160002060000190816106e69190611971565b5080600260003373ffffffffffffffffffffffffffffffffffffffff1673ffffffffffffffffffffffffffffffffffffffff16815260200190815260200160002060010190816107369190611971565b5042600260003373ffffffffffffffffffffffffffffffffffffffff1673ffffffffffffffffffffffffffffffffffffffff168152602001908152602001600020600201819055505050565b6006818154811061079257600080fd5b90600052602060002090600702016000915090508060000154908060010160009054906101000a900473ffffffffffffffffffffffffffffffffffffffff16908060020180546107e190611728565b80601f016020809104026020016040519081016040528092919081815260200182805461080d90611728565b801561085a5780601f1061082f5761010080835404028352916020019161085a565b820191906000526020600020905b81548152906001019060200180831161083d57829003601f168201915b50505050509080600301805461086f90611728565b80601f016020809104026020016040519081016040528092919081815260200182805461089b90611728565b80156108e85780601f106108bd576101008083540402835291602001916108e8565b820191906000526020600020905b8154815290600101906020018083116108cb57829003601f168201915b5050505050908060040154908060050154908060060154905087565b60008054906101000a900473ffffffffffffffffffffffffffffffffffffffff1681565b565b6005818154811061093a57600080fd5b90600052602060002090600702016000915090508060000154908060010160009054906101000a900473ffffffffffffffffffffffffffffffffffffffff169080600201805461098990611728565b80601f01602080910402602001604051908101604052809291908181526020018280546109b590611728565b8015610a025780601f106109d757610100808354040283529160200191610a02565b820191906000526020600020905b8154815290600101906020018083116109e557829003601f168201915b505050505090806003018054610a1790611728565b80601f0160208091040260200160405190810160405280929190818152602001828054610a4390611728565b8015610a905780601f10610a6557610100808354040283529160200191610a90565b820191906000526020600020905b815481529060010190602001808311610a7357829003601f168201915b5050505050908060040154908060050154908060060154905087565b60056040518060e0016040528060058054905081526020013373ffffffffffffffffffffffffffffffffffffffff168152602001868152602001858152602001428152602001603c85610aff9190611a72565b42610b0a9190611ab4565b8152602001603c84610b1c9190611a72565b42610b279190611ab4565b81525090806001815401808255809150506001900390600052602060002090600702016000909190919091506000820151816000015560208201518160010160006101000a81548173ffffffffffffffffffffffffffffffffffffffff021916908373ffffffffffffffffffffffffffffffffffffffff1602179055506040820151816002019081610bb99190611971565b506060820151816003019081610bcf9190611971565b506080820151816004015560a0820151816005015560c08201518160060155505050505050565b600073ffffffffffffffffffffffffffffffffffffffff163373ffffffffffffffffffffffffffffffffffffffff1603610c65576040517f08c379a0000000000000000000000000000000000000000000000000000000008152600401610c5c90611b34565b60405180910390fd5b60003411610ca8576040517f08c379a0000000000000000000000000000000000000000000000000000000008152600401610c9f90611ba0565b60405180910390fd5b343373ffffffffffffffffffffffffffffffffffffffff16311015610d02576040517f08c379a0000000000000000000000000000000000000000000000000000000008152600401610cf990611c0c565b60405180910390fd5b60008054906101000a900473ffffffffffffffffffffffffffffffffffffffff1673ffffffffffffffffffffffffffffffffffffffff163373ffffffffffffffffffffffffffffffffffffffff1603610d90576040517f08c379a0000000000000000000000000000000000000000000000000000000008152600401610d8790611c78565b60405180910390fd5b60008054906101000a900473ffffffffffffffffffffffffffffffffffffffff1673ffffffffffffffffffffffffffffffffffffffff166108fc349081150290604051600060405180830381858888f19350505050158015610df6573d6000803e3d6000fd5b50565b50565b60066040518060e0016040528060068054905081526020013373ffffffffffffffffffffffffffffffffffffffff168152602001858152602001848152602001428152602001603c84610e4f9190611a72565b42610e5a9190611ab4565b8152602001600081525090806001815401808255809150506001900390600052602060002090600702016000909190919091506000820151816000015560208201518160010160006101000a81548173ffffffffffffffffffffffffffffffffffffffff021916908373ffffffffffffffffffffffffffffffffffffffff1602179055506040820151816002019081610ef39190611971565b506060820151816003019081610f099190611971565b506080820151816004015560a0820151816005015560c082015181600601555050505050565b60016020528060005260406000206000915054906101000a900460ff1681565b600081519050919050565b600082825260208201905092915050565b6000819050602082019050919050565b6000819050919050565b610f8e81610f7b565b82525050565b600073ffffffffffffffffffffffffffffffffffffffff82169050919050565b6000610fbf82610f94565b9050919050565b610fcf81610fb4565b82525050565b600081519050919050565b600082825260208201905092915050565b60005b8381101561100f578082015181840152602081019050610ff4565b60008484015250505050565b6000601f19601f8301169050919050565b600061103782610fd5565b6110418185610fe0565b9350611051818560208601610ff1565b61105a8161101b565b840191505092915050565b600060e08301600083015161107d6000860182610f85565b5060208301516110906020860182610fc6565b50604083015184820360408601526110a8828261102c565b915050606083015184820360608601526110c2828261102c565b91505060808301516110d76080860182610f85565b5060a08301516110ea60a0860182610f85565b5060c08301516110fd60c0860182610f85565b508091505092915050565b60006111148383611065565b905092915050565b6000602082019050919050565b600061113482610f4f565b61113e8185610f5a565b93508360208202850161115085610f6b565b8060005b8581101561118c578484038952815161116d8582611108565b94506111788361111c565b925060208a01995050600181019050611154565b50829750879550505050505092915050565b600060208201905081810360008301526111b88184611129565b905092915050565b6000604051905090565b600080fd5b600080fd5b6111dd81610fb4565b81146111e857600080fd5b50565b6000813590506111fa816111d4565b92915050565b600060208284031215611216576112156111ca565b5b6000611224848285016111eb565b91505092915050565b600082825260208201905092915050565b600061124982610fd5565b611253818561122d565b9350611263818560208601610ff1565b61126c8161101b565b840191505092915050565b61128081610f7b565b82525050565b600060608201905081810360008301526112a0818661123e565b905081810360208301526112b4818561123e565b90506112c36040830184611277565b949350505050565b600080fd5b600080fd5b7f4e487b7100000000000000000000000000000000000000000000000000000000600052604160045260246000fd5b61130d8261101b565b810181811067ffffffffffffffff8211171561132c5761132b6112d5565b5b80604052505050565b600061133f6111c0565b905061134b8282611304565b919050565b600067ffffffffffffffff82111561136b5761136a6112d5565b5b6113748261101b565b9050602081019050919050565b82818337600083830152505050565b60006113a361139e84611350565b611335565b9050828152602081018484840111156113bf576113be6112d0565b5b6113ca848285611381565b509392505050565b600082601f8301126113e7576113e66112cb565b5b81356113f7848260208601611390565b91505092915050565b60008060408385031215611417576114166111ca565b5b600083013567ffffffffffffffff811115611435576114346111cf565b5b611441858286016113d2565b925050602083013567ffffffffffffffff811115611462576114616111cf565b5b61146e858286016113d2565b9150509250929050565b61148181610f7b565b811461148c57600080fd5b50565b60008135905061149e81611478565b92915050565b6000602082840312156114ba576114b96111ca565b5b60006114c88482850161148f565b91505092915050565b6114da81610fb4565b82525050565b600060e0820190506114f5600083018a611277565b61150260208301896114d1565b8181036040830152611514818861123e565b90508181036060830152611528818761123e565b90506115376080830186611277565b61154460a0830185611277565b61155160c0830184611277565b98975050505050505050565b600061156882610f94565b9050919050565b6115788161155d565b82525050565b6000602082019050611593600083018461156f565b92915050565b600080600080608085870312156115b3576115b26111ca565b5b600085013567ffffffffffffffff8111156115d1576115d06111cf565b5b6115dd878288016113d2565b945050602085013567ffffffffffffffff8111156115fe576115fd6111cf565b5b61160a878288016113d2565b935050604061161b8782880161148f565b925050606061162c8782880161148f565b91505092959194509250565b600080600060608486031215611651576116506111ca565b5b600084013567ffffffffffffffff81111561166f5761166e6111cf565b5b61167b868287016113d2565b935050602084013567ffffffffffffffff81111561169c5761169b6111cf565b5b6116a8868287016113d2565b92505060406116b98682870161148f565b9150509250925092565b60008115159050919050565b6116d8816116c3565b82525050565b60006020820190506116f360008301846116cf565b92915050565b7f4e487b7100000000000000000000000000000000000000000000000000000000600052602260045260246000fd5b6000600282049050600182168061174057607f821691505b602082108103611753576117526116f9565b5b50919050565b7f796f7520616c7265616479207265676973747265640000000000000000000000600082015250565b600061178f60158361122d565b915061179a82611759565b602082019050919050565b600060208201905081810360008301526117be81611782565b9050919050565b60008190508160005260206000209050919050565b60006020601f8301049050919050565b600082821b905092915050565b6000600883026118277fffffffffffffffffffffffffffffffffffffffffffffffffffffffffffffffff826117ea565b61183186836117ea565b95508019841693508086168417925050509392505050565b6000819050919050565b600061186e61186961186484610f7b565b611849565b610f7b565b9050919050565b6000819050919050565b61188883611853565b61189c61189482611875565b8484546117f7565b825550505050565b600090565b6118b16118a4565b6118bc81848461187f565b505050565b5b818110156118e0576118d56000826118a9565b6001810190506118c2565b5050565b601f821115611925576118f6816117c5565b6118ff846117da565b8101602085101561190e578190505b61192261191a856117da565b8301826118c1565b50505b505050565b600082821c905092915050565b60006119486000198460080261192a565b1980831691505092915050565b60006119618383611937565b9150826002028217905092915050565b61197a82610fd5565b67ffffffffffffffff811115611993576119926112d5565b5b61199d8254611728565b6119a88282856118e4565b600060209050601f8311600181146119db57600084156119c9578287015190505b6119d38582611955565b865550611a3b565b601f1984166119e9866117c5565b60005b82811015611a11578489015182556001820191506020850194506020810190506119ec565b86831015611a2e5784890151611a2a601f891682611937565b8355505b6001600288020188555050505b505050505050565b7f4e487b7100000000000000000000000000000000000000000000000000000000600052601160045260246000fd5b6000611a7d82610f7b565b9150611a8883610f7b565b9250828202611a9681610f7b565b91508282048414831517611aad57611aac611a43565b5b5092915050565b6000611abf82610f7b565b9150611aca83610f7b565b9250828201905080821115611ae257611ae1611a43565b5b92915050565b7f596f75722061646472657373206e6f7420666f756e6421000000000000000000600082015250565b6000611b1e60178361122d565b9150611b2982611ae8565b602082019050919050565b60006020820190508181036000830152611b4d81611b11565b9050919050565b7f302066756e64732073656e740000000000000000000000000000000000000000600082015250565b6000611b8a600c8361122d565b9150611b9582611b54565b602082019050919050565b60006020820190508181036000830152611bb981611b7d565b9050919050565b7f6e6f206d6f6e6579206e6f2066756e6e79000000000000000000000000000000600082015250565b6000611bf660118361122d565b9150611c0182611bc0565b602082019050919050565b60006020820190508181036000830152611c2581611be9565b9050919050565b7f796f75207472757374206f776e65722058440000000000000000000000000000600082015250565b6000611c6260128361122d565b9150611c6d82611c2c565b602082019050919050565b60006020820190508181036000830152611c9181611c55565b905091905056fea2646970667358221220c5548c19f6d189b72f242551182c4936a7c5e6f772aaacac166a624f6f73b9ea64736f6c63430008180033",
  "linkReferences": {},
  "deployedLinkReferences": {}
}