{
  "_format": "hh-sol-artifact-1",
  "contractName": "VoteDapp",
  "sourceName": "contracts/VoteDapp.sol",
  "abi": [
    {
      "inputs": [],
      "stateMutability": "nonpayable",
      "type": "constructor"
    },
    {
      "inputs": [],
      "name": "Donate",
      "outputs": [],
      "stateMutability": "payable",
      "type": "function"
    },
    {
      "inputs": [
        {
          "internalType": "uint256",
          "name": "idVote",
          "type": "uint256"
        }
      ],
      "name": "addCandidate",
      "outputs": [],
      "stateMutability": "nonpayable",
      "type": "function"
    },
    {
      "inputs": [
        {
          "internalType": "string",
          "name": "_name",
          "type": "string"
        },
        {
          "internalType": "string",
          "name": "_description",
          "type": "string"
        },
        {
          "internalType": "uint256",
          "name": "_daysToVote",
          "type": "uint256"
        }
      ],
      "name": "addPet",
      "outputs": [],
      "stateMutability": "nonpayable",
      "type": "function"
    },
    {
      "inputs": [
        {
          "internalType": "string",
          "name": "_name",
          "type": "string"
        },
        {
          "internalType": "string",
          "name": "_description",
          "type": "string"
        },
        {
          "internalType": "uint256",
          "name": "_timeToJoin",
          "type": "uint256"
        },
        {
          "internalType": "uint256",
          "name": "_daysToVote",
          "type": "uint256"
        }
      ],
      "name": "addVote",
      "outputs": [],
      "stateMutability": "nonpayable",
      "type": "function"
    },
    {
      "inputs": [
        {
          "internalType": "address",
          "name": "",
          "type": "address"
        }
      ],
      "name": "candidateStatusMap",
      "outputs": [
        {
          "internalType": "bool",
          "name": "",
          "type": "bool"
        }
      ],
      "stateMutability": "view",
      "type": "function"
    },
    {
      "inputs": [
        {
          "internalType": "uint256",
          "name": "",
          "type": "uint256"
        },
        {
          "internalType": "uint256",
          "name": "",
          "type": "uint256"
        }
      ],
      "name": "candidatsMap",
      "outputs": [
        {
          "internalType": "uint256",
          "name": "id",
          "type": "uint256"
        },
        {
          "components": [
            {
              "internalType": "string",
              "name": "name",
              "type": "string"
            },
            {
              "internalType": "string",
              "name": "description",
              "type": "string"
            },
            {
              "internalType": "uint256",
              "name": "timeReg",
              "type": "uint256"
            }
          ],
          "internalType": "struct VoteDapp.User",
          "name": "user",
          "type": "tuple"
        },
        {
          "internalType": "uint256",
          "name": "votes",
          "type": "uint256"
        }
      ],
      "stateMutability": "view",
      "type": "function"
    },
    {
      "inputs": [
        {
          "internalType": "uint256",
          "name": "idVote",
          "type": "uint256"
        },
        {
          "internalType": "uint256",
          "name": "idCandidate",
          "type": "uint256"
        }
      ],
      "name": "changeCandidate",
      "outputs": [],
      "stateMutability": "nonpayable",
      "type": "function"
    },
    {
      "inputs": [],
      "name": "checkLengthAddedPetitions",
      "outputs": [
        {
          "internalType": "uint256",
          "name": "",
          "type": "uint256"
        }
      ],
      "stateMutability": "view",
      "type": "function"
    },
    {
      "inputs": [],
      "name": "checkLengthAddedVotes",
      "outputs": [
        {
          "internalType": "uint256",
          "name": "",
          "type": "uint256"
        }
      ],
      "stateMutability": "view",
      "type": "function"
    },
    {
      "inputs": [
        {
          "internalType": "uint256",
          "name": "idVote",
          "type": "uint256"
        }
      ],
      "name": "checkLengthCandidats",
      "outputs": [
        {
          "internalType": "uint256",
          "name": "",
          "type": "uint256"
        }
      ],
      "stateMutability": "view",
      "type": "function"
    },
    {
      "inputs": [
        {
          "internalType": "uint256",
          "name": "idVote",
          "type": "uint256"
        }
      ],
      "name": "checkTimeToJoin",
      "outputs": [
        {
          "internalType": "bool",
          "name": "aha",
          "type": "bool"
        }
      ],
      "stateMutability": "view",
      "type": "function"
    },
    {
      "inputs": [
        {
          "internalType": "uint256",
          "name": "index",
          "type": "uint256"
        }
      ],
      "name": "delPet",
      "outputs": [],
      "stateMutability": "nonpayable",
      "type": "function"
    },
    {
      "inputs": [
        {
          "internalType": "uint256",
          "name": "index",
          "type": "uint256"
        }
      ],
      "name": "delVote",
      "outputs": [],
      "stateMutability": "nonpayable",
      "type": "function"
    },
    {
      "inputs": [],
      "name": "owner",
      "outputs": [
        {
          "internalType": "address payable",
          "name": "",
          "type": "address"
        }
      ],
      "stateMutability": "view",
      "type": "function"
    },
    {
      "inputs": [
        {
          "internalType": "uint256",
          "name": "",
          "type": "uint256"
        }
      ],
      "name": "petitionsMas",
      "outputs": [
        {
          "internalType": "uint256",
          "name": "id",
          "type": "uint256"
        },
        {
          "internalType": "address",
          "name": "creator",
          "type": "address"
        },
        {
          "internalType": "string",
          "name": "name",
          "type": "string"
        },
        {
          "internalType": "string",
          "name": "description",
          "type": "string"
        },
        {
          "internalType": "uint256",
          "name": "timeStart",
          "type": "uint256"
        },
        {
          "internalType": "uint256",
          "name": "timeEnd",
          "type": "uint256"
        },
        {
          "internalType": "uint256",
          "name": "votes",
          "type": "uint256"
        }
      ],
      "stateMutability": "view",
      "type": "function"
    },
    {
      "inputs": [],
      "name": "petitionsMasLength",
      "outputs": [
        {
          "internalType": "uint256",
          "name": "",
          "type": "uint256"
        }
      ],
      "stateMutability": "view",
      "type": "function"
    },
    {
      "inputs": [
        {
          "internalType": "string",
          "name": "_name",
          "type": "string"
        },
        {
          "internalType": "string",
          "name": "_description",
          "type": "string"
        }
      ],
      "name": "reg",
      "outputs": [],
      "stateMutability": "nonpayable",
      "type": "function"
    },
    {
      "inputs": [
        {
          "internalType": "address",
          "name": "",
          "type": "address"
        }
      ],
      "name": "regStatus",
      "outputs": [
        {
          "internalType": "bool",
          "name": "",
          "type": "bool"
        }
      ],
      "stateMutability": "view",
      "type": "function"
    },
    {
      "inputs": [
        {
          "internalType": "address",
          "name": "",
          "type": "address"
        },
        {
          "internalType": "uint256",
          "name": "",
          "type": "uint256"
        }
      ],
      "name": "userAddedPetitions",
      "outputs": [
        {
          "internalType": "uint256",
          "name": "id",
          "type": "uint256"
        },
        {
          "internalType": "address",
          "name": "creator",
          "type": "address"
        },
        {
          "internalType": "string",
          "name": "name",
          "type": "string"
        },
        {
          "internalType": "string",
          "name": "description",
          "type": "string"
        },
        {
          "internalType": "uint256",
          "name": "timeStart",
          "type": "uint256"
        },
        {
          "internalType": "uint256",
          "name": "timeEnd",
          "type": "uint256"
        },
        {
          "internalType": "uint256",
          "name": "votes",
          "type": "uint256"
        }
      ],
      "stateMutability": "view",
      "type": "function"
    },
    {
      "inputs": [
        {
          "internalType": "address",
          "name": "",
          "type": "address"
        },
        {
          "internalType": "uint256",
          "name": "",
          "type": "uint256"
        }
      ],
      "name": "userAddedVotes",
      "outputs": [
        {
          "internalType": "uint256",
          "name": "id",
          "type": "uint256"
        },
        {
          "internalType": "address",
          "name": "creator",
          "type": "address"
        },
        {
          "internalType": "string",
          "name": "name",
          "type": "string"
        },
        {
          "internalType": "string",
          "name": "description",
          "type": "string"
        },
        {
          "internalType": "uint256",
          "name": "timeStart",
          "type": "uint256"
        },
        {
          "internalType": "uint256",
          "name": "timeToJoin",
          "type": "uint256"
        },
        {
          "internalType": "uint256",
          "name": "timeEnd",
          "type": "uint256"
        }
      ],
      "stateMutability": "view",
      "type": "function"
    },
    {
      "inputs": [
        {
          "internalType": "address",
          "name": "",
          "type": "address"
        }
      ],
      "name": "userMap",
      "outputs": [
        {
          "internalType": "string",
          "name": "name",
          "type": "string"
        },
        {
          "internalType": "string",
          "name": "description",
          "type": "string"
        },
        {
          "internalType": "uint256",
          "name": "timeReg",
          "type": "uint256"
        }
      ],
      "stateMutability": "view",
      "type": "function"
    },
    {
      "inputs": [],
      "name": "viewPoll",
      "outputs": [
        {
          "components": [
            {
              "internalType": "uint256",
              "name": "id",
              "type": "uint256"
            },
            {
              "internalType": "address",
              "name": "creator",
              "type": "address"
            },
            {
              "internalType": "string",
              "name": "name",
              "type": "string"
            },
            {
              "internalType": "string",
              "name": "description",
              "type": "string"
            },
            {
              "internalType": "uint256",
              "name": "timeStart",
              "type": "uint256"
            },
            {
              "internalType": "uint256",
              "name": "timeToJoin",
              "type": "uint256"
            },
            {
              "internalType": "uint256",
              "name": "timeEnd",
              "type": "uint256"
            }
          ],
          "internalType": "struct VoteDapp.Vote[]",
          "name": "",
          "type": "tuple[]"
        }
      ],
      "stateMutability": "view",
      "type": "function"
    },
    {
      "inputs": [
        {
          "internalType": "uint256",
          "name": "",
          "type": "uint256"
        }
      ],
      "name": "votesMas",
      "outputs": [
        {
          "internalType": "uint256",
          "name": "id",
          "type": "uint256"
        },
        {
          "internalType": "address",
          "name": "creator",
          "type": "address"
        },
        {
          "internalType": "string",
          "name": "name",
          "type": "string"
        },
        {
          "internalType": "string",
          "name": "description",
          "type": "string"
        },
        {
          "internalType": "uint256",
          "name": "timeStart",
          "type": "uint256"
        },
        {
          "internalType": "uint256",
          "name": "timeToJoin",
          "type": "uint256"
        },
        {
          "internalType": "uint256",
          "name": "timeEnd",
          "type": "uint256"
        }
      ],
      "stateMutability": "view",
      "type": "function"
    },
    {
      "inputs": [],
      "name": "votesMasLength",
      "outputs": [
        {
          "internalType": "uint256",
          "name": "",
          "type": "uint256"
        }
      ],
      "stateMutability": "view",
      "type": "function"
    },
    {
      "inputs": [
        {
          "internalType": "uint256",
          "name": "index",
          "type": "uint256"
        }
      ],
      "name": "writePet",
      "outputs": [],
      "stateMutability": "nonpayable",
      "type": "function"
    }
  ],
  "bytecode": "0x60806040523480156200001157600080fd5b5060018060003373ffffffffffffffffffffffffffffffffffffffff1673ffffffffffffffffffffffffffffffffffffffff16815260200190815260200160002060006101000a81548160ff021916908315150217905550336000806101000a81548173ffffffffffffffffffffffffffffffffffffffff021916908373ffffffffffffffffffffffffffffffffffffffff16021790555060405180606001604052806040518060400160405280600a81526020017f5472796c617374736b7900000000000000000000000000000000000000000000815250815260200160405180606001604052806034815260200162004a3660349139815260200142815250600260003373ffffffffffffffffffffffffffffffffffffffff1673ffffffffffffffffffffffffffffffffffffffff16815260200190815260200160002060008201518160000190816200016891906200040e565b5060208201518160010190816200018091906200040e565b5060408201518160020155905050620004f5565b600081519050919050565b7f4e487b7100000000000000000000000000000000000000000000000000000000600052604160045260246000fd5b7f4e487b7100000000000000000000000000000000000000000000000000000000600052602260045260246000fd5b600060028204905060018216806200021657607f821691505b6020821081036200022c576200022b620001ce565b5b50919050565b60008190508160005260206000209050919050565b60006020601f8301049050919050565b600082821b905092915050565b600060088302620002967fffffffffffffffffffffffffffffffffffffffffffffffffffffffffffffffff8262000257565b620002a2868362000257565b95508019841693508086168417925050509392505050565b6000819050919050565b6000819050919050565b6000620002ef620002e9620002e384620002ba565b620002c4565b620002ba565b9050919050565b6000819050919050565b6200030b83620002ce565b620003236200031a82620002f6565b84845462000264565b825550505050565b600090565b6200033a6200032b565b6200034781848462000300565b505050565b5b818110156200036f576200036360008262000330565b6001810190506200034d565b5050565b601f821115620003be57620003888162000232565b620003938462000247565b81016020851015620003a3578190505b620003bb620003b28562000247565b8301826200034c565b50505b505050565b600082821c905092915050565b6000620003e360001984600802620003c3565b1980831691505092915050565b6000620003fe8383620003d0565b9150826002028217905092915050565b620004198262000194565b67ffffffffffffffff8111156200043557620004346200019f565b5b620004418254620001fd565b6200044e82828562000373565b600060209050601f83116001811462000486576000841562000471578287015190505b6200047d8582620003f0565b865550620004ed565b601f198416620004968662000232565b60005b82811015620004c05784890151825560018201915060208501945060208101905062000499565b86831015620004e05784890151620004dc601f891682620003d0565b8355505b6001600288020188555050505b505050505050565b61453180620005056000396000f3fe6080604052600436106101665760003560e01c80639f1bb475116100d1578063d13bcca81161008a578063e844d09711610064578063e844d09714610569578063eac01e3114610592578063f4bcbb6d146105bd578063f8924a6c146105fa57610166565b8063d13bcca8146104f9578063d917deb514610536578063d9f905d91461054057610166565b80639f1bb475146103d1578063ae37a1b5146103fc578063b848639614610425578063c2109eee14610468578063c341113b14610491578063c5ff1b44146104d057610166565b806373a4e4c31161012357806373a4e4c3146102a95780637cc059dc146102d257806387ad137d146102fd5780638da5cb5b146103405780639351f4f21461036b578063975ac2091461039457610166565b80630bc342651461016b5780631d234dea146101965780631f6b4414146101c15780632bcc23f8146101ea5780635ba504d014610229578063616209b91461026c575b600080fd5b34801561017757600080fd5b5061018061063d565b60405161018d91906132a7565b60405180910390f35b3480156101a257600080fd5b506101ab610687565b6040516101b89190613507565b60405180910390f35b3480156101cd57600080fd5b506101e860048036038101906101e39190613569565b610888565b005b3480156101f657600080fd5b50610211600480360381019061020c91906135c2565b610a30565b60405161022093929190613639565b60405180910390f35b34801561023557600080fd5b50610250600480360381019061024b919061367e565b610b6a565b60405161026397969594939291906136cd565b60405180910390f35b34801561027857600080fd5b50610293600480360381019061028e9190613569565b610cf9565b6040516102a09190613765565b60405180910390f35b3480156102b557600080fd5b506102d060048036038101906102cb91906138b5565b610dcb565b005b3480156102de57600080fd5b506102e7610fa0565b6040516102f491906132a7565b60405180910390f35b34801561030957600080fd5b50610324600480360381019061031f9190613569565b610fea565b60405161033797969594939291906136cd565b60405180910390f35b34801561034c57600080fd5b5061035561116c565b604051610362919061394e565b60405180910390f35b34801561037757600080fd5b50610392600480360381019061038d9190613569565b611190565b005b3480156103a057600080fd5b506103bb60048036038101906103b691906135c2565b6118a6565b6040516103c89190613765565b60405180910390f35b3480156103dd57600080fd5b506103e66118c6565b6040516103f391906132a7565b60405180910390f35b34801561040857600080fd5b50610423600480360381019061041e9190613969565b6118d3565b005b34801561043157600080fd5b5061044c60048036038101906104479190613569565b611b6f565b60405161045f97969594939291906136cd565b60405180910390f35b34801561047457600080fd5b5061048f600480360381019061048a9190613569565b611cf1565b005b34801561049d57600080fd5b506104b860048036038101906104b391906139f4565b6123af565b6040516104c793929190613a8b565b60405180910390f35b3480156104dc57600080fd5b506104f760048036038101906104f29190613ac9565b61252e565b005b34801561050557600080fd5b50610520600480360381019061051b9190613569565b6127e1565b60405161052d91906132a7565b60405180910390f35b61053e612801565b005b34801561054c57600080fd5b50610567600480360381019061056291906139f4565b612a04565b005b34801561057557600080fd5b50610590600480360381019061058b9190613569565b612c56565b005b34801561059e57600080fd5b506105a7613075565b6040516105b491906132a7565b60405180910390f35b3480156105c957600080fd5b506105e460048036038101906105df91906135c2565b613082565b6040516105f19190613765565b60405180910390f35b34801561060657600080fd5b50610621600480360381019061061c919061367e565b6130a2565b60405161063497969594939291906136cd565b60405180910390f35b6000600760003373ffffffffffffffffffffffffffffffffffffffff1673ffffffffffffffffffffffffffffffffffffffff16815260200190815260200160002080549050905090565b60606009805480602002602001604051908101604052809291908181526020016000905b8282101561087f57838290600052602060002090600702016040518060e0016040529081600082015481526020016001820160009054906101000a900473ffffffffffffffffffffffffffffffffffffffff1673ffffffffffffffffffffffffffffffffffffffff1673ffffffffffffffffffffffffffffffffffffffff16815260200160028201805461073e90613b97565b80601f016020809104026020016040519081016040528092919081815260200182805461076a90613b97565b80156107b75780601f1061078c576101008083540402835291602001916107b7565b820191906000526020600020905b81548152906001019060200180831161079a57829003601f168201915b505050505081526020016003820180546107d090613b97565b80601f01602080910402602001604051908101604052809291908181526020018280546107fc90613b97565b80156108495780601f1061081e57610100808354040283529160200191610849565b820191906000526020600020905b81548152906001019060200180831161082c57829003601f168201915b505050505081526020016004820154815260200160058201548152602001600682015481525050815260200190600101906106ab565b50505050905090565b60011515600160003373ffffffffffffffffffffffffffffffffffffffff1673ffffffffffffffffffffffffffffffffffffffff16815260200190815260200160002060009054906101000a900460ff161515146108e557600080fd5b600015156006600083815260200190815260200160002060003373ffffffffffffffffffffffffffffffffffffffff1673ffffffffffffffffffffffffffffffffffffffff16815260200190815260200160002060009054906101000a900460ff16151514610989576040517f08c379a000000000000000000000000000000000000000000000000000000000815260040161098090613c14565b60405180910390fd5b600a818154811061099d5761099c613c34565b5b906000526020600020906007020160060160008154809291906109bf90613c92565b919050555060016006600083815260200190815260200160002060003373ffffffffffffffffffffffffffffffffffffffff1673ffffffffffffffffffffffffffffffffffffffff16815260200190815260200160002060006101000a81548160ff02191690831515021790555050565b6002602052806000526040600020600091509050806000018054610a5390613b97565b80601f0160208091040260200160405190810160405280929190818152602001828054610a7f90613b97565b8015610acc5780601f10610aa157610100808354040283529160200191610acc565b820191906000526020600020905b815481529060010190602001808311610aaf57829003601f168201915b505050505090806001018054610ae190613b97565b80601f0160208091040260200160405190810160405280929190818152602001828054610b0d90613b97565b8015610b5a5780601f10610b2f57610100808354040283529160200191610b5a565b820191906000526020600020905b815481529060010190602001808311610b3d57829003601f168201915b5050505050908060020154905083565b60086020528160005260406000208181548110610b8657600080fd5b9060005260206000209060070201600091509150508060000154908060010160009054906101000a900473ffffffffffffffffffffffffffffffffffffffff1690806002018054610bd690613b97565b80601f0160208091040260200160405190810160405280929190818152602001828054610c0290613b97565b8015610c4f5780601f10610c2457610100808354040283529160200191610c4f565b820191906000526020600020905b815481529060010190602001808311610c3257829003601f168201915b505050505090806003018054610c6490613b97565b80601f0160208091040260200160405190810160405280929190818152602001828054610c9090613b97565b8015610cdd5780601f10610cb257610100808354040283529160200191610cdd565b820191906000526020600020905b815481529060010190602001808311610cc057829003601f168201915b5050505050908060040154908060050154908060060154905087565b600060098281548110610d0f57610d0e613c34565b5b90600052602060002090600702016005015460098381548110610d3557610d34613c34565b5b906000526020600020906007020160040154610d519190613cda565b4211610d605760019050610dc6565b60098281548110610d7457610d73613c34565b5b90600052602060002090600702016005015460098381548110610d9a57610d99613c34565b5b906000526020600020906007020160040154610db69190613d0e565b4210610dc55760009050610dc6565b5b919050565b60011515600160003373ffffffffffffffffffffffffffffffffffffffff1673ffffffffffffffffffffffffffffffffffffffff16815260200190815260200160002060009054906101000a900460ff16151503610e5e576040517f08c379a0000000000000000000000000000000000000000000000000000000008152600401610e5590613d8e565b60405180910390fd5b81600260003373ffffffffffffffffffffffffffffffffffffffff1673ffffffffffffffffffffffffffffffffffffffff1681526020019081526020016000206000019081610ead9190613f5a565b5080600260003373ffffffffffffffffffffffffffffffffffffffff1673ffffffffffffffffffffffffffffffffffffffff1681526020019081526020016000206001019081610efd9190613f5a565b5042600260003373ffffffffffffffffffffffffffffffffffffffff1673ffffffffffffffffffffffffffffffffffffffff1681526020019081526020016000206002018190555060018060003373ffffffffffffffffffffffffffffffffffffffff1673ffffffffffffffffffffffffffffffffffffffff16815260200190815260200160002060006101000a81548160ff0219169083151502179055505050565b6000600860003373ffffffffffffffffffffffffffffffffffffffff1673ffffffffffffffffffffffffffffffffffffffff16815260200190815260200160002080549050905090565b600a8181548110610ffa57600080fd5b90600052602060002090600702016000915090508060000154908060010160009054906101000a900473ffffffffffffffffffffffffffffffffffffffff169080600201805461104990613b97565b80601f016020809104026020016040519081016040528092919081815260200182805461107590613b97565b80156110c25780601f10611097576101008083540402835291602001916110c2565b820191906000526020600020905b8154815290600101906020018083116110a557829003601f168201915b5050505050908060030180546110d790613b97565b80601f016020809104026020016040519081016040528092919081815260200182805461110390613b97565b80156111505780601f1061112557610100808354040283529160200191611150565b820191906000526020600020905b81548152906001019060200180831161113357829003601f168201915b5050505050908060040154908060050154908060060154905087565b60008054906101000a900473ffffffffffffffffffffffffffffffffffffffff1681565b60011515600160003373ffffffffffffffffffffffffffffffffffffffff1673ffffffffffffffffffffffffffffffffffffffff16815260200190815260200160002060009054906101000a900460ff161515146111ed57600080fd5b6000600860003373ffffffffffffffffffffffffffffffffffffffff1673ffffffffffffffffffffffffffffffffffffffff16815260200190815260200160002082815481106112405761123f613c34565b5b9060005260206000209060070201600001549050600860003373ffffffffffffffffffffffffffffffffffffffff1673ffffffffffffffffffffffffffffffffffffffff16815260200190815260200160002082815481106112a5576112a4613c34565b5b90600052602060002090600702016000808201600090556001820160006101000a81549073ffffffffffffffffffffffffffffffffffffffff02191690556002820160006112f39190613231565b6003820160006113039190613231565b6004820160009055600582016000905560068201600090555050600860003373ffffffffffffffffffffffffffffffffffffffff1673ffffffffffffffffffffffffffffffffffffffff1681526020019081526020016000206001600860003373ffffffffffffffffffffffffffffffffffffffff1673ffffffffffffffffffffffffffffffffffffffff168152602001908152602001600020805490506113ab9190613d0e565b815481106113bc576113bb613c34565b5b9060005260206000209060070201600860003373ffffffffffffffffffffffffffffffffffffffff1673ffffffffffffffffffffffffffffffffffffffff168152602001908152602001600020838154811061141b5761141a613c34565b5b9060005260206000209060070201600082015481600001556001820160009054906101000a900473ffffffffffffffffffffffffffffffffffffffff168160010160006101000a81548173ffffffffffffffffffffffffffffffffffffffff021916908373ffffffffffffffffffffffffffffffffffffffff160217905550600282018160020190816114ae9190614042565b50600382018160030190816114c39190614042565b5060048201548160040155600582015481600501556006820154816006015590505080600860003373ffffffffffffffffffffffffffffffffffffffff1673ffffffffffffffffffffffffffffffffffffffff168152602001908152602001600020838154811061153757611536613c34565b5b906000526020600020906007020160000181905550600860003373ffffffffffffffffffffffffffffffffffffffff1673ffffffffffffffffffffffffffffffffffffffff16815260200190815260200160002080548061159b5761159a61412a565b5b60019003818190600052602060002090600702016000808201600090556001820160006101000a81549073ffffffffffffffffffffffffffffffffffffffff02191690556002820160006115ef9190613231565b6003820160006115ff9190613231565b600482016000905560058201600090556006820160009055505090556009818154811061162f5761162e613c34565b5b90600052602060002090600702016000808201600090556001820160006101000a81549073ffffffffffffffffffffffffffffffffffffffff021916905560028201600061167d9190613231565b60038201600061168d9190613231565b6004820160009055600582016000905560068201600090555050600960016009805490506116bb9190613d0e565b815481106116cc576116cb613c34565b5b9060005260206000209060070201600982815481106116ee576116ed613c34565b5b9060005260206000209060070201600082015481600001556001820160009054906101000a900473ffffffffffffffffffffffffffffffffffffffff168160010160006101000a81548173ffffffffffffffffffffffffffffffffffffffff021916908373ffffffffffffffffffffffffffffffffffffffff160217905550600282018160020190816117819190614042565b50600382018160030190816117969190614042565b5060048201548160040155600582015481600501556006820154816006015590505060098054806117ca576117c961412a565b5b60019003818190600052602060002090600702016000808201600090556001820160006101000a81549073ffffffffffffffffffffffffffffffffffffffff021916905560028201600061181e9190613231565b60038201600061182e9190613231565b600482016000905560058201600090556006820160009055505090556000600360003373ffffffffffffffffffffffffffffffffffffffff1673ffffffffffffffffffffffffffffffffffffffff16815260200190815260200160002060006101000a81548160ff0219169083151502179055505050565b60036020528060005260406000206000915054906101000a900460ff1681565b6000600a80549050905090565b60011515600160003373ffffffffffffffffffffffffffffffffffffffff1673ffffffffffffffffffffffffffffffffffffffff16815260200190815260200160002060009054906101000a900460ff1615151461193057600080fd5b60006040518060e00160405280600a8054905081526020013373ffffffffffffffffffffffffffffffffffffffff168152602001858152602001848152602001428152602001603c846119839190614159565b4261198e9190613cda565b815260200160008152509050600a8190806001815401808255809150506001900390600052602060002090600702016000909190919091506000820151816000015560208201518160010160006101000a81548173ffffffffffffffffffffffffffffffffffffffff021916908373ffffffffffffffffffffffffffffffffffffffff1602179055506040820151816002019081611a2c9190613f5a565b506060820151816003019081611a429190613f5a565b506080820151816004015560a0820151816005015560c082015181600601555050600760003373ffffffffffffffffffffffffffffffffffffffff1673ffffffffffffffffffffffffffffffffffffffff1681526020019081526020016000208190806001815401808255809150506001900390600052602060002090600702016000909190919091506000820151816000015560208201518160010160006101000a81548173ffffffffffffffffffffffffffffffffffffffff021916908373ffffffffffffffffffffffffffffffffffffffff1602179055506040820151816002019081611b329190613f5a565b506060820151816003019081611b489190613f5a565b506080820151816004015560a0820151816005015560c08201518160060155505050505050565b60098181548110611b7f57600080fd5b90600052602060002090600702016000915090508060000154908060010160009054906101000a900473ffffffffffffffffffffffffffffffffffffffff1690806002018054611bce90613b97565b80601f0160208091040260200160405190810160405280929190818152602001828054611bfa90613b97565b8015611c475780601f10611c1c57610100808354040283529160200191611c47565b820191906000526020600020905b815481529060010190602001808311611c2a57829003601f168201915b505050505090806003018054611c5c90613b97565b80601f0160208091040260200160405190810160405280929190818152602001828054611c8890613b97565b8015611cd55780601f10611caa57610100808354040283529160200191611cd5565b820191906000526020600020905b815481529060010190602001808311611cb857829003601f168201915b5050505050908060040154908060050154908060060154905087565b60011515600160003373ffffffffffffffffffffffffffffffffffffffff1673ffffffffffffffffffffffffffffffffffffffff16815260200190815260200160002060009054906101000a900460ff16151514611d4e57600080fd5b6000600760003373ffffffffffffffffffffffffffffffffffffffff1673ffffffffffffffffffffffffffffffffffffffff1681526020019081526020016000208281548110611da157611da0613c34565b5b9060005260206000209060070201600001549050600760003373ffffffffffffffffffffffffffffffffffffffff1673ffffffffffffffffffffffffffffffffffffffff1681526020019081526020016000208281548110611e0657611e05613c34565b5b90600052602060002090600702016000808201600090556001820160006101000a81549073ffffffffffffffffffffffffffffffffffffffff0219169055600282016000611e549190613231565b600382016000611e649190613231565b6004820160009055600582016000905560068201600090555050600760003373ffffffffffffffffffffffffffffffffffffffff1673ffffffffffffffffffffffffffffffffffffffff1681526020019081526020016000206001600760003373ffffffffffffffffffffffffffffffffffffffff1673ffffffffffffffffffffffffffffffffffffffff16815260200190815260200160002080549050611f0c9190613d0e565b81548110611f1d57611f1c613c34565b5b9060005260206000209060070201600760003373ffffffffffffffffffffffffffffffffffffffff1673ffffffffffffffffffffffffffffffffffffffff1681526020019081526020016000208381548110611f7c57611f7b613c34565b5b9060005260206000209060070201600082015481600001556001820160009054906101000a900473ffffffffffffffffffffffffffffffffffffffff168160010160006101000a81548173ffffffffffffffffffffffffffffffffffffffff021916908373ffffffffffffffffffffffffffffffffffffffff1602179055506002820181600201908161200f9190614042565b50600382018160030190816120249190614042565b5060048201548160040155600582015481600501556006820154816006015590505080600760003373ffffffffffffffffffffffffffffffffffffffff1673ffffffffffffffffffffffffffffffffffffffff168152602001908152602001600020838154811061209857612097613c34565b5b906000526020600020906007020160000181905550600760003373ffffffffffffffffffffffffffffffffffffffff1673ffffffffffffffffffffffffffffffffffffffff1681526020019081526020016000208054806120fc576120fb61412a565b5b60019003818190600052602060002090600702016000808201600090556001820160006101000a81549073ffffffffffffffffffffffffffffffffffffffff02191690556002820160006121509190613231565b6003820160006121609190613231565b60048201600090556005820160009055600682016000905550509055600a81815481106121905761218f613c34565b5b90600052602060002090600702016000808201600090556001820160006101000a81549073ffffffffffffffffffffffffffffffffffffffff02191690556002820160006121de9190613231565b6003820160006121ee9190613231565b6004820160009055600582016000905560068201600090555050600a6001600a8054905061221c9190613d0e565b8154811061222d5761222c613c34565b5b9060005260206000209060070201600a828154811061224f5761224e613c34565b5b9060005260206000209060070201600082015481600001556001820160009054906101000a900473ffffffffffffffffffffffffffffffffffffffff168160010160006101000a81548173ffffffffffffffffffffffffffffffffffffffff021916908373ffffffffffffffffffffffffffffffffffffffff160217905550600282018160020190816122e29190614042565b50600382018160030190816122f79190614042565b50600482015481600401556005820154816005015560068201548160060155905050600a80548061232b5761232a61412a565b5b60019003818190600052602060002090600702016000808201600090556001820160006101000a81549073ffffffffffffffffffffffffffffffffffffffff021916905560028201600061237f9190613231565b60038201600061238f9190613231565b600482016000905560058201600090556006820160009055505090555050565b600460205281600052604060002081815481106123cb57600080fd5b9060005260206000209060050201600091509150508060000154908060010160405180606001604052908160008201805461240590613b97565b80601f016020809104026020016040519081016040528092919081815260200182805461243190613b97565b801561247e5780601f106124535761010080835404028352916020019161247e565b820191906000526020600020905b81548152906001019060200180831161246157829003601f168201915b5050505050815260200160018201805461249790613b97565b80601f01602080910402602001604051908101604052809291908181526020018280546124c390613b97565b80156125105780601f106124e557610100808354040283529160200191612510565b820191906000526020600020905b8154815290600101906020018083116124f357829003601f168201915b50505050508152602001600282015481525050908060040154905083565b60011515600160003373ffffffffffffffffffffffffffffffffffffffff1673ffffffffffffffffffffffffffffffffffffffff16815260200190815260200160002060009054906101000a900460ff1615151461258b57600080fd5b60006040518060e0016040528060098054905081526020013373ffffffffffffffffffffffffffffffffffffffff168152602001868152602001858152602001428152602001603c856125de9190614159565b426125e99190613cda565b8152602001603c846125fb9190614159565b426126069190613cda565b815250905060098190806001815401808255809150506001900390600052602060002090600702016000909190919091506000820151816000015560208201518160010160006101000a81548173ffffffffffffffffffffffffffffffffffffffff021916908373ffffffffffffffffffffffffffffffffffffffff160217905550604082015181600201908161269d9190613f5a565b5060608201518160030190816126b39190613f5a565b506080820151816004015560a0820151816005015560c082015181600601555050600860003373ffffffffffffffffffffffffffffffffffffffff1673ffffffffffffffffffffffffffffffffffffffff1681526020019081526020016000208190806001815401808255809150506001900390600052602060002090600702016000909190919091506000820151816000015560208201518160010160006101000a81548173ffffffffffffffffffffffffffffffffffffffff021916908373ffffffffffffffffffffffffffffffffffffffff16021790555060408201518160020190816127a39190613f5a565b5060608201518160030190816127b99190613f5a565b506080820151816004015560a0820151816005015560c0820151816006015550505050505050565b600060046000838152602001908152602001600020805490509050919050565b600073ffffffffffffffffffffffffffffffffffffffff163373ffffffffffffffffffffffffffffffffffffffff1603612870576040517f08c379a0000000000000000000000000000000000000000000000000000000008152600401612867906141e7565b60405180910390fd5b600034116128b3576040517f08c379a00000000000000000000000000000000000000000000000000000000081526004016128aa90614253565b60405180910390fd5b343373ffffffffffffffffffffffffffffffffffffffff1631101561290d576040517f08c379a0000000000000000000000000000000000000000000000000000000008152600401612904906142bf565b60405180910390fd5b60008054906101000a900473ffffffffffffffffffffffffffffffffffffffff1673ffffffffffffffffffffffffffffffffffffffff163373ffffffffffffffffffffffffffffffffffffffff160361299b576040517f08c379a00000000000000000000000000000000000000000000000000000000081526004016129929061432b565b60405180910390fd5b60008054906101000a900473ffffffffffffffffffffffffffffffffffffffff1673ffffffffffffffffffffffffffffffffffffffff166108fc349081150290604051600060405180830381858888f19350505050158015612a01573d6000803e3d6000fd5b50565b60011515600160003373ffffffffffffffffffffffffffffffffffffffff1673ffffffffffffffffffffffffffffffffffffffff16815260200190815260200160002060009054906101000a900460ff16151514612a6157600080fd5b60011515600560003373ffffffffffffffffffffffffffffffffffffffff1673ffffffffffffffffffffffffffffffffffffffff168152602001908152602001600020600084815260200190815260200160002060009054906101000a900460ff16151503612b05576040517f08c379a0000000000000000000000000000000000000000000000000000000008152600401612afc90614397565b60405180910390fd5b60098281548110612b1957612b18613c34565b5b90600052602060002090600702016006015460098381548110612b3f57612b3e613c34565b5b906000526020600020906007020160040154612b5b9190613cda565b421115612b9d576040517f08c379a0000000000000000000000000000000000000000000000000000000008152600401612b9490614403565b60405180910390fd5b600460008381526020019081526020016000208181548110612bc257612bc1613c34565b5b90600052602060002090600502016004016000815480929190612be490613c92565b91905055506001600560003373ffffffffffffffffffffffffffffffffffffffff1673ffffffffffffffffffffffffffffffffffffffff168152602001908152602001600020600084815260200190815260200160002060006101000a81548160ff0219169083151502179055505050565b60011515600160003373ffffffffffffffffffffffffffffffffffffffff1673ffffffffffffffffffffffffffffffffffffffff16815260200190815260200160002060009054906101000a900460ff16151514612cb357600080fd5b60001515600360003373ffffffffffffffffffffffffffffffffffffffff1673ffffffffffffffffffffffffffffffffffffffff16815260200190815260200160002060009054906101000a900460ff16151514612d46576040517f08c379a0000000000000000000000000000000000000000000000000000000008152600401612d3d9061446f565b60405180910390fd5b60098181548110612d5a57612d59613c34565b5b90600052602060002090600702016005015460098281548110612d8057612d7f613c34565b5b906000526020600020906007020160040154612d9c9190613cda565b421115612dde576040517f08c379a0000000000000000000000000000000000000000000000000000000008152600401612dd5906144db565b60405180910390fd5b60046000828152602001908152602001600020604051806060016040528060046000858152602001908152602001600020805490508152602001600260003373ffffffffffffffffffffffffffffffffffffffff1673ffffffffffffffffffffffffffffffffffffffff168152602001908152602001600020604051806060016040529081600082018054612e7290613b97565b80601f0160208091040260200160405190810160405280929190818152602001828054612e9e90613b97565b8015612eeb5780601f10612ec057610100808354040283529160200191612eeb565b820191906000526020600020905b815481529060010190602001808311612ece57829003601f168201915b50505050508152602001600182018054612f0490613b97565b80601f0160208091040260200160405190810160405280929190818152602001828054612f3090613b97565b8015612f7d5780601f10612f5257610100808354040283529160200191612f7d565b820191906000526020600020905b815481529060010190602001808311612f6057829003601f168201915b50505050508152602001600282015481525050815260200160008152509080600181540180825580915050600190039060005260206000209060050201600090919091909150600082015181600001556020820151816001016000820151816000019081612feb9190613f5a565b5060208201518160010190816130019190613f5a565b506040820151816002015550506040820151816004015550506001600360003373ffffffffffffffffffffffffffffffffffffffff1673ffffffffffffffffffffffffffffffffffffffff16815260200190815260200160002060006101000a81548160ff02191690831515021790555050565b6000600980549050905090565b60016020528060005260406000206000915054906101000a900460ff1681565b600760205281600052604060002081815481106130be57600080fd5b9060005260206000209060070201600091509150508060000154908060010160009054906101000a900473ffffffffffffffffffffffffffffffffffffffff169080600201805461310e90613b97565b80601f016020809104026020016040519081016040528092919081815260200182805461313a90613b97565b80156131875780601f1061315c57610100808354040283529160200191613187565b820191906000526020600020905b81548152906001019060200180831161316a57829003601f168201915b50505050509080600301805461319c90613b97565b80601f01602080910402602001604051908101604052809291908181526020018280546131c890613b97565b80156132155780601f106131ea57610100808354040283529160200191613215565b820191906000526020600020905b8154815290600101906020018083116131f857829003601f168201915b5050505050908060040154908060050154908060060154905087565b50805461323d90613b97565b6000825580601f1061324f575061326e565b601f01602090049060005260206000209081019061326d9190613271565b5b50565b5b8082111561328a576000816000905550600101613272565b5090565b6000819050919050565b6132a18161328e565b82525050565b60006020820190506132bc6000830184613298565b92915050565b600081519050919050565b600082825260208201905092915050565b6000819050602082019050919050565b6132f78161328e565b82525050565b600073ffffffffffffffffffffffffffffffffffffffff82169050919050565b6000613328826132fd565b9050919050565b6133388161331d565b82525050565b600081519050919050565b600082825260208201905092915050565b60005b8381101561337857808201518184015260208101905061335d565b60008484015250505050565b6000601f19601f8301169050919050565b60006133a08261333e565b6133aa8185613349565b93506133ba81856020860161335a565b6133c381613384565b840191505092915050565b600060e0830160008301516133e660008601826132ee565b5060208301516133f9602086018261332f565b50604083015184820360408601526134118282613395565b9150506060830151848203606086015261342b8282613395565b915050608083015161344060808601826132ee565b5060a083015161345360a08601826132ee565b5060c083015161346660c08601826132ee565b508091505092915050565b600061347d83836133ce565b905092915050565b6000602082019050919050565b600061349d826132c2565b6134a781856132cd565b9350836020820285016134b9856132de565b8060005b858110156134f557848403895281516134d68582613471565b94506134e183613485565b925060208a019950506001810190506134bd565b50829750879550505050505092915050565b600060208201905081810360008301526135218184613492565b905092915050565b6000604051905090565b600080fd5b600080fd5b6135468161328e565b811461355157600080fd5b50565b6000813590506135638161353d565b92915050565b60006020828403121561357f5761357e613533565b5b600061358d84828501613554565b91505092915050565b61359f8161331d565b81146135aa57600080fd5b50565b6000813590506135bc81613596565b92915050565b6000602082840312156135d8576135d7613533565b5b60006135e6848285016135ad565b91505092915050565b600082825260208201905092915050565b600061360b8261333e565b61361581856135ef565b935061362581856020860161335a565b61362e81613384565b840191505092915050565b600060608201905081810360008301526136538186613600565b905081810360208301526136678185613600565b90506136766040830184613298565b949350505050565b6000806040838503121561369557613694613533565b5b60006136a3858286016135ad565b92505060206136b485828601613554565b9150509250929050565b6136c78161331d565b82525050565b600060e0820190506136e2600083018a613298565b6136ef60208301896136be565b81810360408301526137018188613600565b905081810360608301526137158187613600565b90506137246080830186613298565b61373160a0830185613298565b61373e60c0830184613298565b98975050505050505050565b60008115159050919050565b61375f8161374a565b82525050565b600060208201905061377a6000830184613756565b92915050565b600080fd5b600080fd5b7f4e487b7100000000000000000000000000000000000000000000000000000000600052604160045260246000fd5b6137c282613384565b810181811067ffffffffffffffff821117156137e1576137e061378a565b5b80604052505050565b60006137f4613529565b905061380082826137b9565b919050565b600067ffffffffffffffff8211156138205761381f61378a565b5b61382982613384565b9050602081019050919050565b82818337600083830152505050565b600061385861385384613805565b6137ea565b90508281526020810184848401111561387457613873613785565b5b61387f848285613836565b509392505050565b600082601f83011261389c5761389b613780565b5b81356138ac848260208601613845565b91505092915050565b600080604083850312156138cc576138cb613533565b5b600083013567ffffffffffffffff8111156138ea576138e9613538565b5b6138f685828601613887565b925050602083013567ffffffffffffffff81111561391757613916613538565b5b61392385828601613887565b9150509250929050565b6000613938826132fd565b9050919050565b6139488161392d565b82525050565b6000602082019050613963600083018461393f565b92915050565b60008060006060848603121561398257613981613533565b5b600084013567ffffffffffffffff8111156139a05761399f613538565b5b6139ac86828701613887565b935050602084013567ffffffffffffffff8111156139cd576139cc613538565b5b6139d986828701613887565b92505060406139ea86828701613554565b9150509250925092565b60008060408385031215613a0b57613a0a613533565b5b6000613a1985828601613554565b9250506020613a2a85828601613554565b9150509250929050565b60006060830160008301518482036000860152613a518282613395565b91505060208301518482036020860152613a6b8282613395565b9150506040830151613a8060408601826132ee565b508091505092915050565b6000606082019050613aa06000830186613298565b8181036020830152613ab28185613a34565b9050613ac16040830184613298565b949350505050565b60008060008060808587031215613ae357613ae2613533565b5b600085013567ffffffffffffffff811115613b0157613b00613538565b5b613b0d87828801613887565b945050602085013567ffffffffffffffff811115613b2e57613b2d613538565b5b613b3a87828801613887565b9350506040613b4b87828801613554565b9250506060613b5c87828801613554565b91505092959194509250565b7f4e487b7100000000000000000000000000000000000000000000000000000000600052602260045260246000fd5b60006002820490506001821680613baf57607f821691505b602082108103613bc257613bc1613b68565b5b50919050565b7f796f7520616c72656164792077726974652074686973207065746974696f6e00600082015250565b6000613bfe601f836135ef565b9150613c0982613bc8565b602082019050919050565b60006020820190508181036000830152613c2d81613bf1565b9050919050565b7f4e487b7100000000000000000000000000000000000000000000000000000000600052603260045260246000fd5b7f4e487b7100000000000000000000000000000000000000000000000000000000600052601160045260246000fd5b6000613c9d8261328e565b91507fffffffffffffffffffffffffffffffffffffffffffffffffffffffffffffffff8203613ccf57613cce613c63565b5b600182019050919050565b6000613ce58261328e565b9150613cf08361328e565b9250828201905080821115613d0857613d07613c63565b5b92915050565b6000613d198261328e565b9150613d248361328e565b9250828203905081811115613d3c57613d3b613c63565b5b92915050565b7f796f7520616c7265616479207265676973747265640000000000000000000000600082015250565b6000613d786015836135ef565b9150613d8382613d42565b602082019050919050565b60006020820190508181036000830152613da781613d6b565b9050919050565b60008190508160005260206000209050919050565b60006020601f8301049050919050565b600082821b905092915050565b600060088302613e107fffffffffffffffffffffffffffffffffffffffffffffffffffffffffffffffff82613dd3565b613e1a8683613dd3565b95508019841693508086168417925050509392505050565b6000819050919050565b6000613e57613e52613e4d8461328e565b613e32565b61328e565b9050919050565b6000819050919050565b613e7183613e3c565b613e85613e7d82613e5e565b848454613de0565b825550505050565b600090565b613e9a613e8d565b613ea5818484613e68565b505050565b5b81811015613ec957613ebe600082613e92565b600181019050613eab565b5050565b601f821115613f0e57613edf81613dae565b613ee884613dc3565b81016020851015613ef7578190505b613f0b613f0385613dc3565b830182613eaa565b50505b505050565b600082821c905092915050565b6000613f3160001984600802613f13565b1980831691505092915050565b6000613f4a8383613f20565b9150826002028217905092915050565b613f638261333e565b67ffffffffffffffff811115613f7c57613f7b61378a565b5b613f868254613b97565b613f91828285613ecd565b600060209050601f831160018114613fc45760008415613fb2578287015190505b613fbc8582613f3e565b865550614024565b601f198416613fd286613dae565b60005b82811015613ffa57848901518255600182019150602085019450602081019050613fd5565b868310156140175784890151614013601f891682613f20565b8355505b6001600288020188555050505b505050505050565b60008154905061403b81613b97565b9050919050565b818103614050575050614128565b6140598261402c565b67ffffffffffffffff8111156140725761407161378a565b5b61407c8254613b97565b614087828285613ecd565b6000601f8311600181146140b657600084156140a4578287015490505b6140ae8582613f3e565b865550614121565b601f1984166140c487613dae565b96506140cf86613dae565b60005b828110156140f7578489015482556001820191506001850194506020810190506140d2565b868310156141145784890154614110601f891682613f20565b8355505b6001600288020188555050505b5050505050505b565b7f4e487b7100000000000000000000000000000000000000000000000000000000600052603160045260246000fd5b60006141648261328e565b915061416f8361328e565b925082820261417d8161328e565b9150828204841483151761419457614193613c63565b5b5092915050565b7f596f75722061646472657373206e6f7420666f756e6421000000000000000000600082015250565b60006141d16017836135ef565b91506141dc8261419b565b602082019050919050565b60006020820190508181036000830152614200816141c4565b9050919050565b7f302066756e64732073656e740000000000000000000000000000000000000000600082015250565b600061423d600c836135ef565b915061424882614207565b602082019050919050565b6000602082019050818103600083015261426c81614230565b9050919050565b7f6e6f206d6f6e6579206e6f2066756e6e79000000000000000000000000000000600082015250565b60006142a96011836135ef565b91506142b482614273565b602082019050919050565b600060208201905081810360008301526142d88161429c565b9050919050565b7f796f75207472757374206f776e65722058440000000000000000000000000000600082015250565b60006143156012836135ef565b9150614320826142df565b602082019050919050565b6000602082019050818103600083015261434481614308565b9050919050565b7f796f7520616c7265616479206368616e67652063616e64696461746500000000600082015250565b6000614381601c836135ef565b915061438c8261434b565b602082019050919050565b600060208201905081810360008301526143b081614374565b9050919050565b7f74696d6520746f20766f746520656e6465640000000000000000000000000000600082015250565b60006143ed6012836135ef565b91506143f8826143b7565b602082019050919050565b6000602082019050818103600083015261441c816143e0565b9050919050565b7f796f7520616c72656164792063616e6469646174650000000000000000000000600082015250565b60006144596015836135ef565b915061446482614423565b602082019050919050565b600060208201905081810360008301526144888161444c565b9050919050565b7f656e6420707573682063616e6469646174732c2074696d65206f766572000000600082015250565b60006144c5601d836135ef565b91506144d08261448f565b602082019050919050565b600060208201905081810360008301526144f4816144b8565b905091905056fea26469706673582212205dc33d41b5d5f6faa2e0bb62c58c475d104bee2233babb8e94e4056ca3dfb89f64736f6c634300081800334920616d207468652063726561746f72206f6620746869732070726f6a6563742c20646f20796f75206c696b6520726f7365733f",
  "linkReferences": {},
  "deployedLinkReferences": {}
}