{
  "_format": "hh-sol-artifact-1",
  "contractName": "VoteDapp",
  "sourceName": "contracts/VoteDapp.sol",
  "abi": [
    {
      "inputs": [],
      "stateMutability": "nonpayable",
      "type": "constructor"
    },
    {
      "inputs": [],
      "name": "Donate",
      "outputs": [],
      "stateMutability": "payable",
      "type": "function"
    },
    {
      "inputs": [
        {
          "internalType": "uint256",
          "name": "idVote",
          "type": "uint256"
        }
      ],
      "name": "addCandidate",
      "outputs": [],
      "stateMutability": "nonpayable",
      "type": "function"
    },
    {
      "inputs": [
        {
          "internalType": "string",
          "name": "_name",
          "type": "string"
        },
        {
          "internalType": "string",
          "name": "_description",
          "type": "string"
        },
        {
          "internalType": "uint256",
          "name": "_daysToVote",
          "type": "uint256"
        }
      ],
      "name": "addPetition",
      "outputs": [],
      "stateMutability": "nonpayable",
      "type": "function"
    },
    {
      "inputs": [
        {
          "internalType": "string",
          "name": "_name",
          "type": "string"
        },
        {
          "internalType": "string",
          "name": "_description",
          "type": "string"
        },
        {
          "internalType": "uint256",
          "name": "_timeToJoin",
          "type": "uint256"
        },
        {
          "internalType": "uint256",
          "name": "_daysToVote",
          "type": "uint256"
        }
      ],
      "name": "addVote",
      "outputs": [],
      "stateMutability": "nonpayable",
      "type": "function"
    },
    {
      "inputs": [
        {
          "internalType": "address",
          "name": "",
          "type": "address"
        }
      ],
      "name": "candidateStatusMap",
      "outputs": [
        {
          "internalType": "bool",
          "name": "",
          "type": "bool"
        }
      ],
      "stateMutability": "view",
      "type": "function"
    },
    {
      "inputs": [
        {
          "internalType": "uint256",
          "name": "",
          "type": "uint256"
        },
        {
          "internalType": "uint256",
          "name": "",
          "type": "uint256"
        }
      ],
      "name": "candidatsMap",
      "outputs": [
        {
          "internalType": "uint256",
          "name": "id",
          "type": "uint256"
        },
        {
          "components": [
            {
              "internalType": "string",
              "name": "name",
              "type": "string"
            },
            {
              "internalType": "string",
              "name": "description",
              "type": "string"
            },
            {
              "internalType": "uint256",
              "name": "timeReg",
              "type": "uint256"
            }
          ],
          "internalType": "struct VoteDapp.User",
          "name": "user",
          "type": "tuple"
        },
        {
          "internalType": "uint256",
          "name": "votes",
          "type": "uint256"
        }
      ],
      "stateMutability": "view",
      "type": "function"
    },
    {
      "inputs": [
        {
          "internalType": "uint256",
          "name": "idVote",
          "type": "uint256"
        },
        {
          "internalType": "uint256",
          "name": "idCandidate",
          "type": "uint256"
        }
      ],
      "name": "changeCandidate",
      "outputs": [],
      "stateMutability": "nonpayable",
      "type": "function"
    },
    {
      "inputs": [],
      "name": "checkLengthAddedPetitions",
      "outputs": [
        {
          "internalType": "uint256",
          "name": "",
          "type": "uint256"
        }
      ],
      "stateMutability": "view",
      "type": "function"
    },
    {
      "inputs": [],
      "name": "checkLengthAddedVotes",
      "outputs": [
        {
          "internalType": "uint256",
          "name": "",
          "type": "uint256"
        }
      ],
      "stateMutability": "view",
      "type": "function"
    },
    {
      "inputs": [
        {
          "internalType": "uint256",
          "name": "idVote",
          "type": "uint256"
        }
      ],
      "name": "checkLengthCandidats",
      "outputs": [
        {
          "internalType": "uint256",
          "name": "",
          "type": "uint256"
        }
      ],
      "stateMutability": "view",
      "type": "function"
    },
    {
      "inputs": [
        {
          "internalType": "uint256",
          "name": "idVote",
          "type": "uint256"
        }
      ],
      "name": "checkTimeVote",
      "outputs": [
        {
          "internalType": "bool",
          "name": "aha",
          "type": "bool"
        }
      ],
      "stateMutability": "view",
      "type": "function"
    },
    {
      "inputs": [
        {
          "internalType": "uint256",
          "name": "index",
          "type": "uint256"
        }
      ],
      "name": "delVote",
      "outputs": [],
      "stateMutability": "nonpayable",
      "type": "function"
    },
    {
      "inputs": [],
      "name": "owner",
      "outputs": [
        {
          "internalType": "address payable",
          "name": "",
          "type": "address"
        }
      ],
      "stateMutability": "view",
      "type": "function"
    },
    {
      "inputs": [
        {
          "internalType": "uint256",
          "name": "",
          "type": "uint256"
        }
      ],
      "name": "petitionsMas",
      "outputs": [
        {
          "internalType": "uint256",
          "name": "id",
          "type": "uint256"
        },
        {
          "internalType": "address",
          "name": "creator",
          "type": "address"
        },
        {
          "internalType": "string",
          "name": "name",
          "type": "string"
        },
        {
          "internalType": "string",
          "name": "description",
          "type": "string"
        },
        {
          "internalType": "uint256",
          "name": "timeStart",
          "type": "uint256"
        },
        {
          "internalType": "uint256",
          "name": "timeEnd",
          "type": "uint256"
        },
        {
          "internalType": "uint256",
          "name": "votes",
          "type": "uint256"
        }
      ],
      "stateMutability": "view",
      "type": "function"
    },
    {
      "inputs": [],
      "name": "petitionsMasLength",
      "outputs": [
        {
          "internalType": "uint256",
          "name": "",
          "type": "uint256"
        }
      ],
      "stateMutability": "view",
      "type": "function"
    },
    {
      "inputs": [
        {
          "internalType": "string",
          "name": "_name",
          "type": "string"
        },
        {
          "internalType": "string",
          "name": "_description",
          "type": "string"
        }
      ],
      "name": "reg",
      "outputs": [],
      "stateMutability": "nonpayable",
      "type": "function"
    },
    {
      "inputs": [
        {
          "internalType": "address",
          "name": "",
          "type": "address"
        }
      ],
      "name": "regStatus",
      "outputs": [
        {
          "internalType": "bool",
          "name": "",
          "type": "bool"
        }
      ],
      "stateMutability": "view",
      "type": "function"
    },
    {
      "inputs": [
        {
          "internalType": "address",
          "name": "",
          "type": "address"
        },
        {
          "internalType": "uint256",
          "name": "",
          "type": "uint256"
        }
      ],
      "name": "userAddedPetitions",
      "outputs": [
        {
          "internalType": "uint256",
          "name": "id",
          "type": "uint256"
        },
        {
          "internalType": "address",
          "name": "creator",
          "type": "address"
        },
        {
          "internalType": "string",
          "name": "name",
          "type": "string"
        },
        {
          "internalType": "string",
          "name": "description",
          "type": "string"
        },
        {
          "internalType": "uint256",
          "name": "timeStart",
          "type": "uint256"
        },
        {
          "internalType": "uint256",
          "name": "timeEnd",
          "type": "uint256"
        },
        {
          "internalType": "uint256",
          "name": "votes",
          "type": "uint256"
        }
      ],
      "stateMutability": "view",
      "type": "function"
    },
    {
      "inputs": [
        {
          "internalType": "address",
          "name": "",
          "type": "address"
        },
        {
          "internalType": "uint256",
          "name": "",
          "type": "uint256"
        }
      ],
      "name": "userAddedVotes",
      "outputs": [
        {
          "internalType": "uint256",
          "name": "id",
          "type": "uint256"
        },
        {
          "internalType": "address",
          "name": "creator",
          "type": "address"
        },
        {
          "internalType": "string",
          "name": "name",
          "type": "string"
        },
        {
          "internalType": "string",
          "name": "description",
          "type": "string"
        },
        {
          "internalType": "uint256",
          "name": "timeStart",
          "type": "uint256"
        },
        {
          "internalType": "uint256",
          "name": "timeToJoin",
          "type": "uint256"
        },
        {
          "internalType": "uint256",
          "name": "timeEnd",
          "type": "uint256"
        }
      ],
      "stateMutability": "view",
      "type": "function"
    },
    {
      "inputs": [
        {
          "internalType": "address",
          "name": "",
          "type": "address"
        }
      ],
      "name": "userMap",
      "outputs": [
        {
          "internalType": "string",
          "name": "name",
          "type": "string"
        },
        {
          "internalType": "string",
          "name": "description",
          "type": "string"
        },
        {
          "internalType": "uint256",
          "name": "timeReg",
          "type": "uint256"
        }
      ],
      "stateMutability": "view",
      "type": "function"
    },
    {
      "inputs": [],
      "name": "viewPoll",
      "outputs": [
        {
          "components": [
            {
              "internalType": "uint256",
              "name": "id",
              "type": "uint256"
            },
            {
              "internalType": "address",
              "name": "creator",
              "type": "address"
            },
            {
              "internalType": "string",
              "name": "name",
              "type": "string"
            },
            {
              "internalType": "string",
              "name": "description",
              "type": "string"
            },
            {
              "internalType": "uint256",
              "name": "timeStart",
              "type": "uint256"
            },
            {
              "internalType": "uint256",
              "name": "timeToJoin",
              "type": "uint256"
            },
            {
              "internalType": "uint256",
              "name": "timeEnd",
              "type": "uint256"
            }
          ],
          "internalType": "struct VoteDapp.Vote[]",
          "name": "",
          "type": "tuple[]"
        }
      ],
      "stateMutability": "view",
      "type": "function"
    },
    {
      "inputs": [
        {
          "internalType": "uint256",
          "name": "",
          "type": "uint256"
        }
      ],
      "name": "votesMas",
      "outputs": [
        {
          "internalType": "uint256",
          "name": "id",
          "type": "uint256"
        },
        {
          "internalType": "address",
          "name": "creator",
          "type": "address"
        },
        {
          "internalType": "string",
          "name": "name",
          "type": "string"
        },
        {
          "internalType": "string",
          "name": "description",
          "type": "string"
        },
        {
          "internalType": "uint256",
          "name": "timeStart",
          "type": "uint256"
        },
        {
          "internalType": "uint256",
          "name": "timeToJoin",
          "type": "uint256"
        },
        {
          "internalType": "uint256",
          "name": "timeEnd",
          "type": "uint256"
        }
      ],
      "stateMutability": "view",
      "type": "function"
    },
    {
      "inputs": [],
      "name": "votesMasLength",
      "outputs": [
        {
          "internalType": "uint256",
          "name": "",
          "type": "uint256"
        }
      ],
      "stateMutability": "view",
      "type": "function"
    },
    {
      "inputs": [
        {
          "internalType": "uint256",
          "name": "index",
          "type": "uint256"
        }
      ],
      "name": "writePet",
      "outputs": [],
      "stateMutability": "nonpayable",
      "type": "function"
    }
  ],
  "bytecode": "0x60806040523480156200001157600080fd5b5060018060003373ffffffffffffffffffffffffffffffffffffffff1673ffffffffffffffffffffffffffffffffffffffff16815260200190815260200160002060006101000a81548160ff021916908315150217905550336000806101000a81548173ffffffffffffffffffffffffffffffffffffffff021916908373ffffffffffffffffffffffffffffffffffffffff16021790555060405180606001604052806040518060400160405280600a81526020017f5472796c617374736b790000000000000000000000000000000000000000000081525081526020016040518060600160405280603481526020016200406360349139815260200142815250600260003373ffffffffffffffffffffffffffffffffffffffff1673ffffffffffffffffffffffffffffffffffffffff16815260200190815260200160002060008201518160000190816200016891906200040e565b5060208201518160010190816200018091906200040e565b5060408201518160020155905050620004f5565b600081519050919050565b7f4e487b7100000000000000000000000000000000000000000000000000000000600052604160045260246000fd5b7f4e487b7100000000000000000000000000000000000000000000000000000000600052602260045260246000fd5b600060028204905060018216806200021657607f821691505b6020821081036200022c576200022b620001ce565b5b50919050565b60008190508160005260206000209050919050565b60006020601f8301049050919050565b600082821b905092915050565b600060088302620002967fffffffffffffffffffffffffffffffffffffffffffffffffffffffffffffffff8262000257565b620002a2868362000257565b95508019841693508086168417925050509392505050565b6000819050919050565b6000819050919050565b6000620002ef620002e9620002e384620002ba565b620002c4565b620002ba565b9050919050565b6000819050919050565b6200030b83620002ce565b620003236200031a82620002f6565b84845462000264565b825550505050565b600090565b6200033a6200032b565b6200034781848462000300565b505050565b5b818110156200036f576200036360008262000330565b6001810190506200034d565b5050565b601f821115620003be57620003888162000232565b620003938462000247565b81016020851015620003a3578190505b620003bb620003b28562000247565b8301826200034c565b50505b505050565b600082821c905092915050565b6000620003e360001984600802620003c3565b1980831691505092915050565b6000620003fe8383620003d0565b9150826002028217905092915050565b620004198262000194565b67ffffffffffffffff8111156200043557620004346200019f565b5b620004418254620001fd565b6200044e82828562000373565b600060209050601f83116001811462000486576000841562000471578287015190505b6200047d8582620003f0565b865550620004ed565b601f198416620004968662000232565b60005b82811015620004c05784890151825560018201915060208501945060208101905062000499565b86831015620004e05784890151620004dc601f891682620003d0565b8355505b6001600288020188555050505b505050505050565b613b5e80620005056000396000f3fe60806040526004361061014b5760003560e01c80639f1bb475116100b6578063d9f905d91161006f578063d9f905d9146104d3578063e844d097146104fc578063eac01e3114610525578063f43f30d814610550578063f4bcbb6d14610579578063f8924a6c146105b65761014b565b80639f1bb475146103b6578063b8486396146103e1578063c341113b14610424578063c5ff1b4414610463578063d13bcca81461048c578063d917deb5146104c95761014b565b806373a4e4c31161010857806373a4e4c31461028e5780637cc059dc146102b757806387ad137d146102e25780638da5cb5b146103255780639351f4f214610350578063975ac209146103795761014b565b80630bc34265146101505780631d234dea1461017b5780631f6b4414146101a65780632bcc23f8146101cf5780635ba504d01461020e5780636039e62c14610251575b600080fd5b34801561015c57600080fd5b506101656105f9565b60405161017291906128d4565b60405180910390f35b34801561018757600080fd5b50610190610643565b60405161019d9190612b34565b60405180910390f35b3480156101b257600080fd5b506101cd60048036038101906101c89190612b96565b610844565b005b3480156101db57600080fd5b506101f660048036038101906101f19190612bef565b6109ec565b60405161020593929190612c66565b60405180910390f35b34801561021a57600080fd5b5061023560048036038101906102309190612cab565b610b26565b6040516102489796959493929190612cfa565b60405180910390f35b34801561025d57600080fd5b5061027860048036038101906102739190612b96565b610cb5565b6040516102859190612d92565b60405180910390f35b34801561029a57600080fd5b506102b560048036038101906102b09190612ee2565b610d87565b005b3480156102c357600080fd5b506102cc610f5c565b6040516102d991906128d4565b60405180910390f35b3480156102ee57600080fd5b5061030960048036038101906103049190612b96565b610fa6565b60405161031c9796959493929190612cfa565b60405180910390f35b34801561033157600080fd5b5061033a611128565b6040516103479190612f7b565b60405180910390f35b34801561035c57600080fd5b5061037760048036038101906103729190612b96565b61114c565b005b34801561038557600080fd5b506103a0600480360381019061039b9190612bef565b611591565b6040516103ad9190612d92565b60405180910390f35b3480156103c257600080fd5b506103cb6115b1565b6040516103d891906128d4565b60405180910390f35b3480156103ed57600080fd5b5061040860048036038101906104039190612b96565b6115be565b60405161041b9796959493929190612cfa565b60405180910390f35b34801561043057600080fd5b5061044b60048036038101906104469190612f96565b611740565b60405161045a9392919061302d565b60405180910390f35b34801561046f57600080fd5b5061048a6004803603810190610485919061306b565b6118bf565b005b34801561049857600080fd5b506104b360048036038101906104ae9190612b96565b611b72565b6040516104c091906128d4565b60405180910390f35b6104d1611b92565b005b3480156104df57600080fd5b506104fa60048036038101906104f59190612f96565b611d95565b005b34801561050857600080fd5b50610523600480360381019061051e9190612b96565b611fe7565b005b34801561053157600080fd5b5061053a612406565b60405161054791906128d4565b60405180910390f35b34801561055c57600080fd5b506105776004803603810190610572919061310a565b612413565b005b34801561058557600080fd5b506105a0600480360381019061059b9190612bef565b6126af565b6040516105ad9190612d92565b60405180910390f35b3480156105c257600080fd5b506105dd60048036038101906105d89190612cab565b6126cf565b6040516105f09796959493929190612cfa565b60405180910390f35b6000600760003373ffffffffffffffffffffffffffffffffffffffff1673ffffffffffffffffffffffffffffffffffffffff16815260200190815260200160002080549050905090565b60606009805480602002602001604051908101604052809291908181526020016000905b8282101561083b57838290600052602060002090600702016040518060e0016040529081600082015481526020016001820160009054906101000a900473ffffffffffffffffffffffffffffffffffffffff1673ffffffffffffffffffffffffffffffffffffffff1673ffffffffffffffffffffffffffffffffffffffff1681526020016002820180546106fa906131c4565b80601f0160208091040260200160405190810160405280929190818152602001828054610726906131c4565b80156107735780601f1061074857610100808354040283529160200191610773565b820191906000526020600020905b81548152906001019060200180831161075657829003601f168201915b5050505050815260200160038201805461078c906131c4565b80601f01602080910402602001604051908101604052809291908181526020018280546107b8906131c4565b80156108055780601f106107da57610100808354040283529160200191610805565b820191906000526020600020905b8154815290600101906020018083116107e857829003601f168201915b50505050508152602001600482015481526020016005820154815260200160068201548152505081526020019060010190610667565b50505050905090565b60011515600160003373ffffffffffffffffffffffffffffffffffffffff1673ffffffffffffffffffffffffffffffffffffffff16815260200190815260200160002060009054906101000a900460ff161515146108a157600080fd5b600015156006600083815260200190815260200160002060003373ffffffffffffffffffffffffffffffffffffffff1673ffffffffffffffffffffffffffffffffffffffff16815260200190815260200160002060009054906101000a900460ff16151514610945576040517f08c379a000000000000000000000000000000000000000000000000000000000815260040161093c90613241565b60405180910390fd5b600a818154811061095957610958613261565b5b9060005260206000209060070201600601600081548092919061097b906132bf565b919050555060016006600083815260200190815260200160002060003373ffffffffffffffffffffffffffffffffffffffff1673ffffffffffffffffffffffffffffffffffffffff16815260200190815260200160002060006101000a81548160ff02191690831515021790555050565b6002602052806000526040600020600091509050806000018054610a0f906131c4565b80601f0160208091040260200160405190810160405280929190818152602001828054610a3b906131c4565b8015610a885780601f10610a5d57610100808354040283529160200191610a88565b820191906000526020600020905b815481529060010190602001808311610a6b57829003601f168201915b505050505090806001018054610a9d906131c4565b80601f0160208091040260200160405190810160405280929190818152602001828054610ac9906131c4565b8015610b165780601f10610aeb57610100808354040283529160200191610b16565b820191906000526020600020905b815481529060010190602001808311610af957829003601f168201915b5050505050908060020154905083565b60086020528160005260406000208181548110610b4257600080fd5b9060005260206000209060070201600091509150508060000154908060010160009054906101000a900473ffffffffffffffffffffffffffffffffffffffff1690806002018054610b92906131c4565b80601f0160208091040260200160405190810160405280929190818152602001828054610bbe906131c4565b8015610c0b5780601f10610be057610100808354040283529160200191610c0b565b820191906000526020600020905b815481529060010190602001808311610bee57829003601f168201915b505050505090806003018054610c20906131c4565b80601f0160208091040260200160405190810160405280929190818152602001828054610c4c906131c4565b8015610c995780601f10610c6e57610100808354040283529160200191610c99565b820191906000526020600020905b815481529060010190602001808311610c7c57829003601f168201915b5050505050908060040154908060050154908060060154905087565b600060098281548110610ccb57610cca613261565b5b90600052602060002090600702016006015460098381548110610cf157610cf0613261565b5b906000526020600020906007020160040154610d0d9190613307565b4211610d1c5760019050610d82565b60098281548110610d3057610d2f613261565b5b90600052602060002090600702016006015460098381548110610d5657610d55613261565b5b906000526020600020906007020160040154610d729190613307565b4210610d815760009050610d82565b5b919050565b60011515600160003373ffffffffffffffffffffffffffffffffffffffff1673ffffffffffffffffffffffffffffffffffffffff16815260200190815260200160002060009054906101000a900460ff16151503610e1a576040517f08c379a0000000000000000000000000000000000000000000000000000000008152600401610e1190613387565b60405180910390fd5b81600260003373ffffffffffffffffffffffffffffffffffffffff1673ffffffffffffffffffffffffffffffffffffffff1681526020019081526020016000206000019081610e699190613553565b5080600260003373ffffffffffffffffffffffffffffffffffffffff1673ffffffffffffffffffffffffffffffffffffffff1681526020019081526020016000206001019081610eb99190613553565b5042600260003373ffffffffffffffffffffffffffffffffffffffff1673ffffffffffffffffffffffffffffffffffffffff1681526020019081526020016000206002018190555060018060003373ffffffffffffffffffffffffffffffffffffffff1673ffffffffffffffffffffffffffffffffffffffff16815260200190815260200160002060006101000a81548160ff0219169083151502179055505050565b6000600860003373ffffffffffffffffffffffffffffffffffffffff1673ffffffffffffffffffffffffffffffffffffffff16815260200190815260200160002080549050905090565b600a8181548110610fb657600080fd5b90600052602060002090600702016000915090508060000154908060010160009054906101000a900473ffffffffffffffffffffffffffffffffffffffff1690806002018054611005906131c4565b80601f0160208091040260200160405190810160405280929190818152602001828054611031906131c4565b801561107e5780601f106110535761010080835404028352916020019161107e565b820191906000526020600020905b81548152906001019060200180831161106157829003601f168201915b505050505090806003018054611093906131c4565b80601f01602080910402602001604051908101604052809291908181526020018280546110bf906131c4565b801561110c5780601f106110e15761010080835404028352916020019161110c565b820191906000526020600020905b8154815290600101906020018083116110ef57829003601f168201915b5050505050908060040154908060050154908060060154905087565b60008054906101000a900473ffffffffffffffffffffffffffffffffffffffff1681565b60011515600160003373ffffffffffffffffffffffffffffffffffffffff1673ffffffffffffffffffffffffffffffffffffffff16815260200190815260200160002060009054906101000a900460ff161515146111a957600080fd5b6000600860003373ffffffffffffffffffffffffffffffffffffffff1673ffffffffffffffffffffffffffffffffffffffff16815260200190815260200160002082815481106111fc576111fb613261565b5b9060005260206000209060070201600001549050600860003373ffffffffffffffffffffffffffffffffffffffff1673ffffffffffffffffffffffffffffffffffffffff1681526020019081526020016000206001600860003373ffffffffffffffffffffffffffffffffffffffff1673ffffffffffffffffffffffffffffffffffffffff1681526020019081526020016000208054905061129e9190613625565b815481106112af576112ae613261565b5b906000526020600020905050600860003373ffffffffffffffffffffffffffffffffffffffff1673ffffffffffffffffffffffffffffffffffffffff16815260200190815260200160002080548061130a57611309613659565b5b60019003818190600052602060002090600702016000808201600090556001820160006101000a81549073ffffffffffffffffffffffffffffffffffffffff021916905560028201600061135e919061285e565b60038201600061136e919061285e565b600482016000905560058201600090556006820160009055505090556009818154811061139e5761139d613261565b5b906000526020600020906007020160000154600960016009805490506113c49190613625565b815481106113d5576113d4613261565b5b906000526020600020906007020160000181905550600960016009805490506113fe9190613625565b8154811061140f5761140e613261565b5b90600052602060002090600702016009828154811061143157611430613261565b5b9060005260206000209060070201600082015481600001556001820160009054906101000a900473ffffffffffffffffffffffffffffffffffffffff168160010160006101000a81548173ffffffffffffffffffffffffffffffffffffffff021916908373ffffffffffffffffffffffffffffffffffffffff160217905550600282018160020190816114c4919061369e565b50600382018160030190816114d9919061369e565b50600482015481600401556005820154816005015560068201548160060155905050600980548061150d5761150c613659565b5b60019003818190600052602060002090600702016000808201600090556001820160006101000a81549073ffffffffffffffffffffffffffffffffffffffff0219169055600282016000611561919061285e565b600382016000611571919061285e565b600482016000905560058201600090556006820160009055505090555050565b60036020528060005260406000206000915054906101000a900460ff1681565b6000600a80549050905090565b600981815481106115ce57600080fd5b90600052602060002090600702016000915090508060000154908060010160009054906101000a900473ffffffffffffffffffffffffffffffffffffffff169080600201805461161d906131c4565b80601f0160208091040260200160405190810160405280929190818152602001828054611649906131c4565b80156116965780601f1061166b57610100808354040283529160200191611696565b820191906000526020600020905b81548152906001019060200180831161167957829003601f168201915b5050505050908060030180546116ab906131c4565b80601f01602080910402602001604051908101604052809291908181526020018280546116d7906131c4565b80156117245780601f106116f957610100808354040283529160200191611724565b820191906000526020600020905b81548152906001019060200180831161170757829003601f168201915b5050505050908060040154908060050154908060060154905087565b6004602052816000526040600020818154811061175c57600080fd5b90600052602060002090600502016000915091505080600001549080600101604051806060016040529081600082018054611796906131c4565b80601f01602080910402602001604051908101604052809291908181526020018280546117c2906131c4565b801561180f5780601f106117e45761010080835404028352916020019161180f565b820191906000526020600020905b8154815290600101906020018083116117f257829003601f168201915b50505050508152602001600182018054611828906131c4565b80601f0160208091040260200160405190810160405280929190818152602001828054611854906131c4565b80156118a15780601f10611876576101008083540402835291602001916118a1565b820191906000526020600020905b81548152906001019060200180831161188457829003601f168201915b50505050508152602001600282015481525050908060040154905083565b60011515600160003373ffffffffffffffffffffffffffffffffffffffff1673ffffffffffffffffffffffffffffffffffffffff16815260200190815260200160002060009054906101000a900460ff1615151461191c57600080fd5b60006040518060e0016040528060098054905081526020013373ffffffffffffffffffffffffffffffffffffffff168152602001868152602001858152602001428152602001603c8561196f9190613786565b4261197a9190613307565b8152602001603c8461198c9190613786565b426119979190613307565b815250905060098190806001815401808255809150506001900390600052602060002090600702016000909190919091506000820151816000015560208201518160010160006101000a81548173ffffffffffffffffffffffffffffffffffffffff021916908373ffffffffffffffffffffffffffffffffffffffff1602179055506040820151816002019081611a2e9190613553565b506060820151816003019081611a449190613553565b506080820151816004015560a0820151816005015560c082015181600601555050600860003373ffffffffffffffffffffffffffffffffffffffff1673ffffffffffffffffffffffffffffffffffffffff1681526020019081526020016000208190806001815401808255809150506001900390600052602060002090600702016000909190919091506000820151816000015560208201518160010160006101000a81548173ffffffffffffffffffffffffffffffffffffffff021916908373ffffffffffffffffffffffffffffffffffffffff1602179055506040820151816002019081611b349190613553565b506060820151816003019081611b4a9190613553565b506080820151816004015560a0820151816005015560c0820151816006015550505050505050565b600060046000838152602001908152602001600020805490509050919050565b600073ffffffffffffffffffffffffffffffffffffffff163373ffffffffffffffffffffffffffffffffffffffff1603611c01576040517f08c379a0000000000000000000000000000000000000000000000000000000008152600401611bf890613814565b60405180910390fd5b60003411611c44576040517f08c379a0000000000000000000000000000000000000000000000000000000008152600401611c3b90613880565b60405180910390fd5b343373ffffffffffffffffffffffffffffffffffffffff16311015611c9e576040517f08c379a0000000000000000000000000000000000000000000000000000000008152600401611c95906138ec565b60405180910390fd5b60008054906101000a900473ffffffffffffffffffffffffffffffffffffffff1673ffffffffffffffffffffffffffffffffffffffff163373ffffffffffffffffffffffffffffffffffffffff1603611d2c576040517f08c379a0000000000000000000000000000000000000000000000000000000008152600401611d2390613958565b60405180910390fd5b60008054906101000a900473ffffffffffffffffffffffffffffffffffffffff1673ffffffffffffffffffffffffffffffffffffffff166108fc349081150290604051600060405180830381858888f19350505050158015611d92573d6000803e3d6000fd5b50565b60011515600160003373ffffffffffffffffffffffffffffffffffffffff1673ffffffffffffffffffffffffffffffffffffffff16815260200190815260200160002060009054906101000a900460ff16151514611df257600080fd5b60011515600560003373ffffffffffffffffffffffffffffffffffffffff1673ffffffffffffffffffffffffffffffffffffffff168152602001908152602001600020600084815260200190815260200160002060009054906101000a900460ff16151503611e96576040517f08c379a0000000000000000000000000000000000000000000000000000000008152600401611e8d906139c4565b60405180910390fd5b60098281548110611eaa57611ea9613261565b5b90600052602060002090600702016006015460098381548110611ed057611ecf613261565b5b906000526020600020906007020160040154611eec9190613307565b421115611f2e576040517f08c379a0000000000000000000000000000000000000000000000000000000008152600401611f2590613a30565b60405180910390fd5b600460008381526020019081526020016000208181548110611f5357611f52613261565b5b90600052602060002090600502016004016000815480929190611f75906132bf565b91905055506001600560003373ffffffffffffffffffffffffffffffffffffffff1673ffffffffffffffffffffffffffffffffffffffff168152602001908152602001600020600084815260200190815260200160002060006101000a81548160ff0219169083151502179055505050565b60011515600160003373ffffffffffffffffffffffffffffffffffffffff1673ffffffffffffffffffffffffffffffffffffffff16815260200190815260200160002060009054906101000a900460ff1615151461204457600080fd5b60001515600360003373ffffffffffffffffffffffffffffffffffffffff1673ffffffffffffffffffffffffffffffffffffffff16815260200190815260200160002060009054906101000a900460ff161515146120d7576040517f08c379a00000000000000000000000000000000000000000000000000000000081526004016120ce90613a9c565b60405180910390fd5b600981815481106120eb576120ea613261565b5b9060005260206000209060070201600501546009828154811061211157612110613261565b5b90600052602060002090600702016004015461212d9190613307565b42111561216f576040517f08c379a000000000000000000000000000000000000000000000000000000000815260040161216690613b08565b60405180910390fd5b60046000828152602001908152602001600020604051806060016040528060046000858152602001908152602001600020805490508152602001600260003373ffffffffffffffffffffffffffffffffffffffff1673ffffffffffffffffffffffffffffffffffffffff168152602001908152602001600020604051806060016040529081600082018054612203906131c4565b80601f016020809104026020016040519081016040528092919081815260200182805461222f906131c4565b801561227c5780601f106122515761010080835404028352916020019161227c565b820191906000526020600020905b81548152906001019060200180831161225f57829003601f168201915b50505050508152602001600182018054612295906131c4565b80601f01602080910402602001604051908101604052809291908181526020018280546122c1906131c4565b801561230e5780601f106122e35761010080835404028352916020019161230e565b820191906000526020600020905b8154815290600101906020018083116122f157829003601f168201915b5050505050815260200160028201548152505081526020016000815250908060018154018082558091505060019003906000526020600020906005020160009091909190915060008201518160000155602082015181600101600082015181600001908161237c9190613553565b5060208201518160010190816123929190613553565b506040820151816002015550506040820151816004015550506001600360003373ffffffffffffffffffffffffffffffffffffffff1673ffffffffffffffffffffffffffffffffffffffff16815260200190815260200160002060006101000a81548160ff02191690831515021790555050565b6000600980549050905090565b60011515600160003373ffffffffffffffffffffffffffffffffffffffff1673ffffffffffffffffffffffffffffffffffffffff16815260200190815260200160002060009054906101000a900460ff1615151461247057600080fd5b60006040518060e00160405280600a8054905081526020013373ffffffffffffffffffffffffffffffffffffffff168152602001858152602001848152602001428152602001603c846124c39190613786565b426124ce9190613307565b815260200160008152509050600a8190806001815401808255809150506001900390600052602060002090600702016000909190919091506000820151816000015560208201518160010160006101000a81548173ffffffffffffffffffffffffffffffffffffffff021916908373ffffffffffffffffffffffffffffffffffffffff160217905550604082015181600201908161256c9190613553565b5060608201518160030190816125829190613553565b506080820151816004015560a0820151816005015560c082015181600601555050600760003373ffffffffffffffffffffffffffffffffffffffff1673ffffffffffffffffffffffffffffffffffffffff1681526020019081526020016000208190806001815401808255809150506001900390600052602060002090600702016000909190919091506000820151816000015560208201518160010160006101000a81548173ffffffffffffffffffffffffffffffffffffffff021916908373ffffffffffffffffffffffffffffffffffffffff16021790555060408201518160020190816126729190613553565b5060608201518160030190816126889190613553565b506080820151816004015560a0820151816005015560c08201518160060155505050505050565b60016020528060005260406000206000915054906101000a900460ff1681565b600760205281600052604060002081815481106126eb57600080fd5b9060005260206000209060070201600091509150508060000154908060010160009054906101000a900473ffffffffffffffffffffffffffffffffffffffff169080600201805461273b906131c4565b80601f0160208091040260200160405190810160405280929190818152602001828054612767906131c4565b80156127b45780601f10612789576101008083540402835291602001916127b4565b820191906000526020600020905b81548152906001019060200180831161279757829003601f168201915b5050505050908060030180546127c9906131c4565b80601f01602080910402602001604051908101604052809291908181526020018280546127f5906131c4565b80156128425780601f1061281757610100808354040283529160200191612842565b820191906000526020600020905b81548152906001019060200180831161282557829003601f168201915b5050505050908060040154908060050154908060060154905087565b50805461286a906131c4565b6000825580601f1061287c575061289b565b601f01602090049060005260206000209081019061289a919061289e565b5b50565b5b808211156128b757600081600090555060010161289f565b5090565b6000819050919050565b6128ce816128bb565b82525050565b60006020820190506128e960008301846128c5565b92915050565b600081519050919050565b600082825260208201905092915050565b6000819050602082019050919050565b612924816128bb565b82525050565b600073ffffffffffffffffffffffffffffffffffffffff82169050919050565b60006129558261292a565b9050919050565b6129658161294a565b82525050565b600081519050919050565b600082825260208201905092915050565b60005b838110156129a557808201518184015260208101905061298a565b60008484015250505050565b6000601f19601f8301169050919050565b60006129cd8261296b565b6129d78185612976565b93506129e7818560208601612987565b6129f0816129b1565b840191505092915050565b600060e083016000830151612a13600086018261291b565b506020830151612a26602086018261295c565b5060408301518482036040860152612a3e82826129c2565b91505060608301518482036060860152612a5882826129c2565b9150506080830151612a6d608086018261291b565b5060a0830151612a8060a086018261291b565b5060c0830151612a9360c086018261291b565b508091505092915050565b6000612aaa83836129fb565b905092915050565b6000602082019050919050565b6000612aca826128ef565b612ad481856128fa565b935083602082028501612ae68561290b565b8060005b85811015612b225784840389528151612b038582612a9e565b9450612b0e83612ab2565b925060208a01995050600181019050612aea565b50829750879550505050505092915050565b60006020820190508181036000830152612b4e8184612abf565b905092915050565b6000604051905090565b600080fd5b600080fd5b612b73816128bb565b8114612b7e57600080fd5b50565b600081359050612b9081612b6a565b92915050565b600060208284031215612bac57612bab612b60565b5b6000612bba84828501612b81565b91505092915050565b612bcc8161294a565b8114612bd757600080fd5b50565b600081359050612be981612bc3565b92915050565b600060208284031215612c0557612c04612b60565b5b6000612c1384828501612bda565b91505092915050565b600082825260208201905092915050565b6000612c388261296b565b612c428185612c1c565b9350612c52818560208601612987565b612c5b816129b1565b840191505092915050565b60006060820190508181036000830152612c808186612c2d565b90508181036020830152612c948185612c2d565b9050612ca360408301846128c5565b949350505050565b60008060408385031215612cc257612cc1612b60565b5b6000612cd085828601612bda565b9250506020612ce185828601612b81565b9150509250929050565b612cf48161294a565b82525050565b600060e082019050612d0f600083018a6128c5565b612d1c6020830189612ceb565b8181036040830152612d2e8188612c2d565b90508181036060830152612d428187612c2d565b9050612d5160808301866128c5565b612d5e60a08301856128c5565b612d6b60c08301846128c5565b98975050505050505050565b60008115159050919050565b612d8c81612d77565b82525050565b6000602082019050612da76000830184612d83565b92915050565b600080fd5b600080fd5b7f4e487b7100000000000000000000000000000000000000000000000000000000600052604160045260246000fd5b612def826129b1565b810181811067ffffffffffffffff82111715612e0e57612e0d612db7565b5b80604052505050565b6000612e21612b56565b9050612e2d8282612de6565b919050565b600067ffffffffffffffff821115612e4d57612e4c612db7565b5b612e56826129b1565b9050602081019050919050565b82818337600083830152505050565b6000612e85612e8084612e32565b612e17565b905082815260208101848484011115612ea157612ea0612db2565b5b612eac848285612e63565b509392505050565b600082601f830112612ec957612ec8612dad565b5b8135612ed9848260208601612e72565b91505092915050565b60008060408385031215612ef957612ef8612b60565b5b600083013567ffffffffffffffff811115612f1757612f16612b65565b5b612f2385828601612eb4565b925050602083013567ffffffffffffffff811115612f4457612f43612b65565b5b612f5085828601612eb4565b9150509250929050565b6000612f658261292a565b9050919050565b612f7581612f5a565b82525050565b6000602082019050612f906000830184612f6c565b92915050565b60008060408385031215612fad57612fac612b60565b5b6000612fbb85828601612b81565b9250506020612fcc85828601612b81565b9150509250929050565b60006060830160008301518482036000860152612ff382826129c2565b9150506020830151848203602086015261300d82826129c2565b9150506040830151613022604086018261291b565b508091505092915050565b600060608201905061304260008301866128c5565b81810360208301526130548185612fd6565b905061306360408301846128c5565b949350505050565b6000806000806080858703121561308557613084612b60565b5b600085013567ffffffffffffffff8111156130a3576130a2612b65565b5b6130af87828801612eb4565b945050602085013567ffffffffffffffff8111156130d0576130cf612b65565b5b6130dc87828801612eb4565b93505060406130ed87828801612b81565b92505060606130fe87828801612b81565b91505092959194509250565b60008060006060848603121561312357613122612b60565b5b600084013567ffffffffffffffff81111561314157613140612b65565b5b61314d86828701612eb4565b935050602084013567ffffffffffffffff81111561316e5761316d612b65565b5b61317a86828701612eb4565b925050604061318b86828701612b81565b9150509250925092565b7f4e487b7100000000000000000000000000000000000000000000000000000000600052602260045260246000fd5b600060028204905060018216806131dc57607f821691505b6020821081036131ef576131ee613195565b5b50919050565b7f796f7520616c72656164792077726974652074686973207065746974696f6e00600082015250565b600061322b601f83612c1c565b9150613236826131f5565b602082019050919050565b6000602082019050818103600083015261325a8161321e565b9050919050565b7f4e487b7100000000000000000000000000000000000000000000000000000000600052603260045260246000fd5b7f4e487b7100000000000000000000000000000000000000000000000000000000600052601160045260246000fd5b60006132ca826128bb565b91507fffffffffffffffffffffffffffffffffffffffffffffffffffffffffffffffff82036132fc576132fb613290565b5b600182019050919050565b6000613312826128bb565b915061331d836128bb565b925082820190508082111561333557613334613290565b5b92915050565b7f796f7520616c7265616479207265676973747265640000000000000000000000600082015250565b6000613371601583612c1c565b915061337c8261333b565b602082019050919050565b600060208201905081810360008301526133a081613364565b9050919050565b60008190508160005260206000209050919050565b60006020601f8301049050919050565b600082821b905092915050565b6000600883026134097fffffffffffffffffffffffffffffffffffffffffffffffffffffffffffffffff826133cc565b61341386836133cc565b95508019841693508086168417925050509392505050565b6000819050919050565b600061345061344b613446846128bb565b61342b565b6128bb565b9050919050565b6000819050919050565b61346a83613435565b61347e61347682613457565b8484546133d9565b825550505050565b600090565b613493613486565b61349e818484613461565b505050565b5b818110156134c2576134b760008261348b565b6001810190506134a4565b5050565b601f821115613507576134d8816133a7565b6134e1846133bc565b810160208510156134f0578190505b6135046134fc856133bc565b8301826134a3565b50505b505050565b600082821c905092915050565b600061352a6000198460080261350c565b1980831691505092915050565b60006135438383613519565b9150826002028217905092915050565b61355c8261296b565b67ffffffffffffffff81111561357557613574612db7565b5b61357f82546131c4565b61358a8282856134c6565b600060209050601f8311600181146135bd57600084156135ab578287015190505b6135b58582613537565b86555061361d565b601f1984166135cb866133a7565b60005b828110156135f3578489015182556001820191506020850194506020810190506135ce565b86831015613610578489015161360c601f891682613519565b8355505b6001600288020188555050505b505050505050565b6000613630826128bb565b915061363b836128bb565b925082820390508181111561365357613652613290565b5b92915050565b7f4e487b7100000000000000000000000000000000000000000000000000000000600052603160045260246000fd5b600081549050613697816131c4565b9050919050565b8181036136ac575050613784565b6136b582613688565b67ffffffffffffffff8111156136ce576136cd612db7565b5b6136d882546131c4565b6136e38282856134c6565b6000601f8311600181146137125760008415613700578287015490505b61370a8582613537565b86555061377d565b601f198416613720876133a7565b965061372b866133a7565b60005b828110156137535784890154825560018201915060018501945060208101905061372e565b86831015613770578489015461376c601f891682613519565b8355505b6001600288020188555050505b5050505050505b565b6000613791826128bb565b915061379c836128bb565b92508282026137aa816128bb565b915082820484148315176137c1576137c0613290565b5b5092915050565b7f596f75722061646472657373206e6f7420666f756e6421000000000000000000600082015250565b60006137fe601783612c1c565b9150613809826137c8565b602082019050919050565b6000602082019050818103600083015261382d816137f1565b9050919050565b7f302066756e64732073656e740000000000000000000000000000000000000000600082015250565b600061386a600c83612c1c565b915061387582613834565b602082019050919050565b600060208201905081810360008301526138998161385d565b9050919050565b7f6e6f206d6f6e6579206e6f2066756e6e79000000000000000000000000000000600082015250565b60006138d6601183612c1c565b91506138e1826138a0565b602082019050919050565b60006020820190508181036000830152613905816138c9565b9050919050565b7f796f75207472757374206f776e65722058440000000000000000000000000000600082015250565b6000613942601283612c1c565b915061394d8261390c565b602082019050919050565b6000602082019050818103600083015261397181613935565b9050919050565b7f796f7520616c7265616479206368616e67652063616e64696461746500000000600082015250565b60006139ae601c83612c1c565b91506139b982613978565b602082019050919050565b600060208201905081810360008301526139dd816139a1565b9050919050565b7f74696d6520746f20766f746520656e6465640000000000000000000000000000600082015250565b6000613a1a601283612c1c565b9150613a25826139e4565b602082019050919050565b60006020820190508181036000830152613a4981613a0d565b9050919050565b7f796f7520616c72656164792063616e6469646174650000000000000000000000600082015250565b6000613a86601583612c1c565b9150613a9182613a50565b602082019050919050565b60006020820190508181036000830152613ab581613a79565b9050919050565b7f656e6420707573682063616e6469646174732c2074696d65206f766572000000600082015250565b6000613af2601d83612c1c565b9150613afd82613abc565b602082019050919050565b60006020820190508181036000830152613b2181613ae5565b905091905056fea264697066735822122084df1e80fbffc0efc1417fa9305632a268f11c669660e49497fd650afbc7ac8a64736f6c634300081800334920616d207468652063726561746f72206f6620746869732070726f6a6563742c20646f20796f75206c696b6520726f7365733f",
  "linkReferences": {},
  "deployedLinkReferences": {}
}